{
  "address": "0xe7f1725E7734CE288F8367e1Bb143E90bb3F0512",
  "abi": [
    {
      "inputs": [
        {
          "internalType": "address",
          "name": "_governance",
          "type": "address"
        }
      ],
      "stateMutability": "nonpayable",
      "type": "constructor"
    },
    {
      "anonymous": false,
      "inputs": [
        {
          "indexed": true,
          "internalType": "contract ITornadoInstance",
          "name": "instance",
          "type": "address"
        },
        {
          "indexed": false,
          "internalType": "enum InstanceRegistry.InstanceState",
          "name": "state",
          "type": "uint8"
        }
      ],
      "name": "InstanceStateUpdated",
      "type": "event"
    },
    {
      "anonymous": false,
      "inputs": [
        {
          "indexed": false,
          "internalType": "address",
          "name": "pgRouter",
          "type": "address"
        }
      ],
      "name": "RouterRegistered",
      "type": "event"
    },
    {
      "inputs": [],
      "name": "getAllInstanceAddresses",
      "outputs": [
        {
          "internalType": "contract ITornadoInstance[]",
          "name": "result",
          "type": "address[]"
        }
      ],
      "stateMutability": "view",
      "type": "function"
    },
    {
      "inputs": [],
      "name": "getAllInstances",
      "outputs": [
        {
          "components": [
            {
              "internalType": "contract ITornadoInstance",
              "name": "addr",
              "type": "address"
            },
            {
              "components": [
                {
                  "internalType": "bool",
                  "name": "isERC20",
                  "type": "bool"
                },
                {
                  "internalType": "contract IERC20",
                  "name": "token",
                  "type": "address"
                },
                {
                  "internalType": "enum InstanceRegistry.InstanceState",
                  "name": "state",
                  "type": "uint8"
                },
                {
                  "internalType": "uint24",
                  "name": "uniswapPoolSwappingFee",
                  "type": "uint24"
                },
                {
                  "internalType": "uint32",
                  "name": "protocolFeePercentage",
                  "type": "uint32"
                },
                {
                  "internalType": "uint256",
                  "name": "maxDepositAmount",
                  "type": "uint256"
                }
              ],
              "internalType": "struct InstanceRegistry.Instance",
              "name": "instance",
              "type": "tuple"
            }
          ],
          "internalType": "struct InstanceRegistry.TornadoConfig[]",
          "name": "result",
          "type": "tuple[]"
        }
      ],
      "stateMutability": "view",
      "type": "function"
    },
    {
      "inputs": [
        {
          "internalType": "contract ITornadoInstance",
          "name": "instance",
          "type": "address"
        }
      ],
      "name": "getPoolToken",
      "outputs": [
        {
          "internalType": "address",
          "name": "",
          "type": "address"
        }
      ],
      "stateMutability": "view",
      "type": "function"
    },
    {
      "inputs": [],
      "name": "governance",
      "outputs": [
        {
          "internalType": "address",
          "name": "",
          "type": "address"
        }
      ],
      "stateMutability": "view",
      "type": "function"
    },
    {
      "inputs": [
        {
          "components": [
            {
              "internalType": "contract ITornadoInstance",
              "name": "addr",
              "type": "address"
            },
            {
              "components": [
                {
                  "internalType": "bool",
                  "name": "isERC20",
                  "type": "bool"
                },
                {
                  "internalType": "contract IERC20",
                  "name": "token",
                  "type": "address"
                },
                {
                  "internalType": "enum InstanceRegistry.InstanceState",
                  "name": "state",
                  "type": "uint8"
                },
                {
                  "internalType": "uint24",
                  "name": "uniswapPoolSwappingFee",
                  "type": "uint24"
                },
                {
                  "internalType": "uint32",
                  "name": "protocolFeePercentage",
                  "type": "uint32"
                },
                {
                  "internalType": "uint256",
                  "name": "maxDepositAmount",
                  "type": "uint256"
                }
              ],
              "internalType": "struct InstanceRegistry.Instance",
              "name": "instance",
              "type": "tuple"
            }
          ],
          "internalType": "struct InstanceRegistry.TornadoConfig[]",
          "name": "_instances",
          "type": "tuple[]"
        }
      ],
      "name": "initInstances",
      "outputs": [],
      "stateMutability": "nonpayable",
      "type": "function"
    },
    {
      "inputs": [
        {
          "internalType": "uint256",
          "name": "",
          "type": "uint256"
        }
      ],
      "name": "instanceIds",
      "outputs": [
        {
          "internalType": "contract ITornadoInstance",
          "name": "",
          "type": "address"
        }
      ],
      "stateMutability": "view",
      "type": "function"
    },
    {
      "inputs": [
        {
          "internalType": "contract ITornadoInstance",
          "name": "",
          "type": "address"
        }
      ],
      "name": "instances",
      "outputs": [
        {
          "internalType": "bool",
          "name": "isERC20",
          "type": "bool"
        },
        {
          "internalType": "contract IERC20",
          "name": "token",
          "type": "address"
        },
        {
          "internalType": "enum InstanceRegistry.InstanceState",
          "name": "state",
          "type": "uint8"
        },
        {
          "internalType": "uint24",
          "name": "uniswapPoolSwappingFee",
          "type": "uint24"
        },
        {
          "internalType": "uint32",
          "name": "protocolFeePercentage",
          "type": "uint32"
        },
        {
          "internalType": "uint256",
          "name": "maxDepositAmount",
          "type": "uint256"
        }
      ],
      "stateMutability": "view",
      "type": "function"
    },
    {
      "inputs": [
        {
          "internalType": "uint256",
          "name": "_instanceId",
          "type": "uint256"
        }
      ],
      "name": "removeInstance",
      "outputs": [],
      "stateMutability": "nonpayable",
      "type": "function"
    },
    {
      "inputs": [],
      "name": "router",
      "outputs": [
        {
          "internalType": "contract PGRouter",
          "name": "",
          "type": "address"
        }
      ],
      "stateMutability": "view",
      "type": "function"
    },
    {
      "inputs": [
        {
          "internalType": "address",
          "name": "routerAddress",
          "type": "address"
        }
      ],
      "name": "setPGRouter",
      "outputs": [],
      "stateMutability": "nonpayable",
      "type": "function"
    },
    {
      "inputs": [
        {
          "internalType": "contract ITornadoInstance",
          "name": "instance",
          "type": "address"
        },
        {
          "internalType": "uint32",
          "name": "newFee",
          "type": "uint32"
        }
      ],
      "name": "setProtocolFee",
      "outputs": [],
      "stateMutability": "nonpayable",
      "type": "function"
    },
    {
      "inputs": [
        {
          "components": [
            {
              "internalType": "contract ITornadoInstance",
              "name": "addr",
              "type": "address"
            },
            {
              "components": [
                {
                  "internalType": "bool",
                  "name": "isERC20",
                  "type": "bool"
                },
                {
                  "internalType": "contract IERC20",
                  "name": "token",
                  "type": "address"
                },
                {
                  "internalType": "enum InstanceRegistry.InstanceState",
                  "name": "state",
                  "type": "uint8"
                },
                {
                  "internalType": "uint24",
                  "name": "uniswapPoolSwappingFee",
                  "type": "uint24"
                },
                {
                  "internalType": "uint32",
                  "name": "protocolFeePercentage",
                  "type": "uint32"
                },
                {
                  "internalType": "uint256",
                  "name": "maxDepositAmount",
                  "type": "uint256"
                }
              ],
              "internalType": "struct InstanceRegistry.Instance",
              "name": "instance",
              "type": "tuple"
            }
          ],
          "internalType": "struct InstanceRegistry.TornadoConfig",
          "name": "_tornadoConf",
          "type": "tuple"
        }
      ],
      "name": "updateInstance",
      "outputs": [],
      "stateMutability": "nonpayable",
      "type": "function"
    },
    {
      "inputs": [
        {
          "internalType": "contract ITornadoInstance",
          "name": "_addr",
          "type": "address"
        },
        {
          "internalType": "enum InstanceRegistry.InstanceState",
          "name": "_state",
          "type": "uint8"
        }
      ],
      "name": "updateInstanceState",
      "outputs": [],
      "stateMutability": "nonpayable",
      "type": "function"
    }
  ],
  "transactionHash": "0x7349d6dd09b2e5ed2a6b186edb78142e99008bb80346c3495b1f840c43a4209d",
  "args": [
    "0xf39Fd6e51aad88F6F4ce6aB8827279cffFb92266"
  ],
  "numDeployments": 1,
  "solcInputHash": "f1d808c53fb7aa922f9f005914d1615a",
  "bytecode": "0x60a060405234801561001057600080fd5b5060405161166438038061166483398101604081905261002f91610040565b6001600160a01b0316608052610070565b60006020828403121561005257600080fd5b81516001600160a01b038116811461006957600080fd5b9392505050565b6080516115af6100b560003960008181610180015281816104c50152818161059d015281816106fe015281816107ad015281816108890152610b3b01526115af6000f3fe608060405234801561001057600080fd5b50600436106100cf5760003560e01c8063908e3b371161008c578063bc1a1a5711610066578063bc1a1a5714610239578063cf552c891461024c578063eb961de81461025f578063f887ea401461027257600080fd5b8063908e3b37146101e257806392b65a4114610213578063b5b899b71461022657600080fd5b8063032bb443146100d457806310c13ac31461015157806352c228e3146101665780635aa6e6751461017b5780636f1a16d0146101ba5780637940bcd3146101cf575b600080fd5b6101366100e2366004610fb5565b6001602081905260009182526040909120805491015460ff8083169261010081046001600160a01b031692600160a81b820490921691600160b01b820462ffffff1691600160c81b900463ffffffff169086565b60405161014896959493929190611011565b60405180910390f35b610159610285565b604051610148919061105e565b61016e61034d565b60405161014891906110ab565b6101a27f000000000000000000000000000000000000000000000000000000000000000081565b6040516001600160a01b039091168152602001610148565b6101cd6101c836600461116a565b6104ba565b005b6101cd6101dd36600461119f565b610592565b6101a26101f0366004610fb5565b6001600160a01b0390811660009081526001602052604090205461010090041690565b6101cd6102213660046111cb565b6106f3565b6101a26102343660046111f7565b610778565b6101cd610247366004611364565b6107a2565b6101cd61025a3660046111f7565b61087e565b6101cd61026d366004610fb5565b610b30565b6000546101a2906001600160a01b031681565b60025460609067ffffffffffffffff8111156102a3576102a3611210565b6040519080825280602002602001820160405280156102cc578160200160208202803683370190505b50905060005b60025481101561034957600281815481106102ef576102ef611414565b9060005260206000200160009054906101000a90046001600160a01b031682828151811061031f5761031f611414565b6001600160a01b03909216602092830291909101909101528061034181611440565b9150506102d2565b5090565b60025460609067ffffffffffffffff81111561036b5761036b611210565b6040519080825280602002602001820160405280156103a457816020015b610391610f47565b8152602001906001900390816103895790505b50905060005b600254811015610349576000600282815481106103c9576103c9611414565b60009182526020808320909101546040805180820182526001600160a01b039283168082528086526001855294829020825160c081018452815460ff8082161515835261010082049096168288015296975091959486019491939092840191600160a81b900416600381111561044157610441610fd9565b600381111561045257610452610fd9565b81528154600160b01b810462ffffff166020830152600160c81b900463ffffffff1660408201526001909101546060909101529052835184908490811061049b5761049b611414565b60200260200101819052505080806104b290611440565b9150506103aa565b336001600160a01b037f0000000000000000000000000000000000000000000000000000000000000000161461050b5760405162461bcd60e51b815260040161050290611459565b60405180910390fd5b6001600160a01b038216600090815260016020526040902080548290829060ff60a81b1916600160a81b83600381111561054757610547610fd9565b0217905550826001600160a01b03167f02826f62d88a4d9f1978eb9c06f8663f642d032908e65a915d5898f3585421c0836040516105859190611481565b60405180910390a2505050565b336001600160a01b037f000000000000000000000000000000000000000000000000000000000000000016146105da5760405162461bcd60e51b815260040161050290611459565b60006105ec6080830160608401611495565b60038111156105fd576105fd610fd9565b0361064a5760405162461bcd60e51b815260206004820152601f60248201527f5573652072656d6f7665496e7374616e6365282920666f722072656d6f7665006044820152606401610502565b60006001600061065d6020850185610fb5565b6001600160a01b03168152602081019190915260400160002054600160a81b900460ff16600381111561069257610692610fd9565b036106d95760026106a66020830183610fb5565b81546001810183556000928352602090922090910180546001600160a01b0319166001600160a01b039092169190911790555b6106f06106eb368390038301836114b0565b610bcc565b50565b336001600160a01b037f0000000000000000000000000000000000000000000000000000000000000000161461073b5760405162461bcd60e51b815260040161050290611459565b6001600160a01b039091166000908152600160205260409020805463ffffffff909216600160c81b0263ffffffff60c81b19909216919091179055565b6002818154811061078857600080fd5b6000918252602090912001546001600160a01b0316905081565b336001600160a01b037f000000000000000000000000000000000000000000000000000000000000000016146107ea5760405162461bcd60e51b815260040161050290611459565b60005b815181101561087a5761081882828151811061080b5761080b611414565b6020026020010151610bcc565b600282828151811061082c5761082c611414565b6020908102919091018101515182546001810184556000938452919092200180546001600160a01b0319166001600160a01b039092169190911790558061087281611440565b9150506107ed565b5050565b336001600160a01b037f000000000000000000000000000000000000000000000000000000000000000016146108c65760405162461bcd60e51b815260040161050290611459565b6000600282815481106108db576108db611414565b60009182526020808320909101546001600160a01b03908116808452600190925260409092205490925060ff811691610100909104168115610a085760008054604051636eb1769f60e11b81526001600160a01b03918216600482015285821660248201529083169063dd62ed3e90604401602060405180830381865afa15801561096a573d6000803e3d6000fd5b505050506040513d601f19601f8201168201806040525081019061098e91906114cc565b90508015610a065760008054604051633ef1078360e01b81526001600160a01b03858116600483015287811660248301526044820193909352911690633ef1078390606401600060405180830381600087803b1580156109ed57600080fd5b505af1158015610a01573d6000803e3d6000fd5b505050505b505b6001600160a01b0383166000908152600160208190526040822080546001600160e81b0319168155810191909155600280549091610a45916114e5565b81548110610a5557610a55611414565b600091825260209091200154600280546001600160a01b039092169186908110610a8157610a81611414565b9060005260206000200160006101000a8154816001600160a01b0302191690836001600160a01b031602179055506002805480610ac057610ac06114f8565b6001900381819060005260206000200160006101000a8154906001600160a01b0302191690559055826001600160a01b03167f02826f62d88a4d9f1978eb9c06f8663f642d032908e65a915d5898f3585421c06000604051610b229190611481565b60405180910390a250505050565b336001600160a01b037f00000000000000000000000000000000000000000000000000000000000000001614610b785760405162461bcd60e51b815260040161050290611459565b600080546001600160a01b0319166001600160a01b0383169081179091556040519081527f94df8c3a8087dce110e5fbc5acf380c83c94bbd31b2c8ed4c08e1396a696e1a89060200160405180910390a150565b60208181015182516001600160a01b0390811660009081526001845260409081902083518154958501516001600160a81b0319909616901515610100600160a81b031916176101009590931694909402919091178084559082015191929190829060ff60a81b1916600160a81b836003811115610c4b57610c4b610fd9565b021790555060608201518154608084015163ffffffff16600160c81b0263ffffffff60c81b1962ffffff909316600160b01b029290921666ffffffffffffff60b01b199091161717815560a09091015160019091015560208101515115610e9857600081600001516001600160a01b031663fc0c546a6040518163ffffffff1660e01b8152600401602060405180830381865afa158015610cf0573d6000803e3d6000fd5b505050506040513d601f19601f82011682018060405250810190610d14919061150e565b90508160200151602001516001600160a01b0316816001600160a01b031614610d715760405162461bcd60e51b815260206004820152600f60248201526e24b731b7b93932b1ba103a37b5b2b760891b6044820152606401610502565b600080548351604051636eb1769f60e11b81526001600160a01b03928316600482015290821660248201529083169063dd62ed3e90604401602060405180830381865afa158015610dc6573d6000803e3d6000fd5b505050506040513d601f19601f82011682018060405250810190610dea91906114cc565b905080600003610e9557610e246040518060400160405280600f81526020016e20b8383937bb34b733903a37b5b2b760891b815250610ee8565b6000548351604051633ef1078360e01b81526001600160a01b03858116600483015291821660248201526000196044820152911690633ef1078390606401600060405180830381600087803b158015610e7c57600080fd5b505af1158015610e90573d6000803e3d6000fd5b505050505b50505b80600001516001600160a01b03167f02826f62d88a4d9f1978eb9c06f8663f642d032908e65a915d5898f3585421c0826020015160400151604051610edd9190611481565b60405180910390a250565b6106f081604051602401610efc919061152b565b60408051601f198184030181529190526020810180516001600160e01b031663104c13eb60e21b17905280516a636f6e736f6c652e6c6f67602083016000808483855afa5050505050565b604051806040016040528060006001600160a01b03168152602001610f9b6040805160c081018252600080825260208201819052909182019081526000602082018190526040820181905260609091015290565b905290565b6001600160a01b03811681146106f057600080fd5b600060208284031215610fc757600080fd5b8135610fd281610fa0565b9392505050565b634e487b7160e01b600052602160045260246000fd5b6004811061100d57634e487b7160e01b600052602160045260246000fd5b9052565b86151581526001600160a01b038616602082015260c081016110366040830187610fef565b62ffffff8516606083015263ffffffff841660808301528260a0830152979650505050505050565b6020808252825182820181905260009190848201906040850190845b8181101561109f5783516001600160a01b03168352928401929184019160010161107a565b50909695505050505050565b602080825282518282018190526000919060409081850190868401855b8281101561114957815180516001600160a01b039081168652908701518051151588870152808801519091168686015285810151606061110a81880183610fef565b82015162ffffff1660808781019190915282015163ffffffff1660a0808801919091529091015160c08601525060e090930192908501906001016110c8565b5091979650505050505050565b80356004811061116557600080fd5b919050565b6000806040838503121561117d57600080fd5b823561118881610fa0565b915061119660208401611156565b90509250929050565b600060e082840312156111b157600080fd5b50919050565b803563ffffffff8116811461116557600080fd5b600080604083850312156111de57600080fd5b82356111e981610fa0565b9150611196602084016111b7565b60006020828403121561120957600080fd5b5035919050565b634e487b7160e01b600052604160045260246000fd5b6040805190810167ffffffffffffffff8111828210171561124957611249611210565b60405290565b60405160c0810167ffffffffffffffff8111828210171561124957611249611210565b604051601f8201601f1916810167ffffffffffffffff8111828210171561129b5761129b611210565b604052919050565b600081830360e08112156112b657600080fd5b6112be611226565b915082356112cb81610fa0565b825260c0601f19820112156112df57600080fd5b506112e861124f565b602083013580151581146112fb57600080fd5b8152604083013561130b81610fa0565b602082015261131c60608401611156565b6040820152608083013562ffffff8116811461133757600080fd5b606082015261134860a084016111b7565b608082015260c083013560a08201528060208301525092915050565b6000602080838503121561137757600080fd5b823567ffffffffffffffff8082111561138f57600080fd5b818501915085601f8301126113a357600080fd5b8135818111156113b5576113b5611210565b6113c3848260051b01611272565b818152848101925060e09182028401850191888311156113e257600080fd5b938501935b82851015611408576113f989866112a3565b845293840193928501926113e7565b50979650505050505050565b634e487b7160e01b600052603260045260246000fd5b634e487b7160e01b600052601160045260246000fd5b6000600182016114525761145261142a565b5060010190565b6020808252600e908201526d139bdd08185d5d1a1bdc9a5e995960921b604082015260600190565b6020810161148f8284610fef565b92915050565b6000602082840312156114a757600080fd5b610fd282611156565b600060e082840312156114c257600080fd5b610fd283836112a3565b6000602082840312156114de57600080fd5b5051919050565b8181038181111561148f5761148f61142a565b634e487b7160e01b600052603160045260246000fd5b60006020828403121561152057600080fd5b8151610fd281610fa0565b600060208083528351808285015260005b818110156115585785810183015185820160400152820161153c565b506000604082860101526040601f19601f830116850101925050509291505056fea264697066735822122084b76223eef2eb182634c055a0b22a26745d45fc570fad2df47a6a563236ad9564736f6c63430008130033",
  "devdoc": {
    "kind": "dev",
    "methods": {
      "getAllInstanceAddresses()": {
        "details": "Returns all instance addresses"
      },
      "getAllInstances()": {
        "details": "Returns all instance configs"
      },
      "getPoolToken(address)": {
        "params": {
          "instance": "the interface (contract) key to the instance data"
        }
      },
      "initInstances((address,(bool,address,uint8,uint24,uint32,uint256))[])": {
        "details": "initialise a set of tornado instances."
      },
      "removeInstance(uint256)": {
        "details": "Remove an instance.",
        "params": {
          "_instanceId": "The instance id in `instanceIds` mapping to remove."
        }
      },
      "setPGRouter(address)": {
        "params": {
          "routerAddress": "address of the new proxy "
        }
      },
      "setProtocolFee(address,uint32)": {
        "params": {
          "instance": "the to update",
          "newFee": "the new fee to use "
        }
      },
      "updateInstance((address,(bool,address,uint8,uint24,uint32,uint256)))": {
        "details": "Add or update an instance."
      },
      "updateInstanceState(address,uint8)": {
        "details": "Add or update an instance."
      }
    },
    "version": 1
  },
  "userdoc": {
    "kind": "user",
    "methods": {
      "getPoolToken(address)": {
        "notice": "get erc20 tornado instance token"
      },
      "setPGRouter(address)": {
        "notice": "This function should allow governance to set a new tornado proxy address"
      },
      "setProtocolFee(address,uint32)": {
        "notice": "This function should allow governance to set a new protocol fee for relayers"
      }
    },
    "version": 1
  },
  "storageLayout": {
    "storage": [
      {
        "astId": 1856,
        "contract": "contracts/portalgate/InstanceRegistry.sol:InstanceRegistry",
        "label": "router",
        "offset": 0,
        "slot": "0",
        "type": "t_contract(PGRouter)2719"
      },
      {
        "astId": 1862,
        "contract": "contracts/portalgate/InstanceRegistry.sol:InstanceRegistry",
        "label": "instances",
        "offset": 0,
        "slot": "1",
        "type": "t_mapping(t_contract(ITornadoInstance)1813,t_struct(Instance)1844_storage)"
      },
      {
        "astId": 1866,
        "contract": "contracts/portalgate/InstanceRegistry.sol:InstanceRegistry",
        "label": "instanceIds",
        "offset": 0,
        "slot": "2",
        "type": "t_array(t_contract(ITornadoInstance)1813)dyn_storage"
      }
    ],
    "types": {
      "t_array(t_contract(ITornadoInstance)1813)dyn_storage": {
        "base": "t_contract(ITornadoInstance)1813",
        "encoding": "dynamic_array",
        "label": "contract ITornadoInstance[]",
        "numberOfBytes": "32"
      },
      "t_bool": {
        "encoding": "inplace",
        "label": "bool",
        "numberOfBytes": "1"
      },
      "t_contract(IERC20)244": {
        "encoding": "inplace",
        "label": "contract IERC20",
        "numberOfBytes": "20"
      },
      "t_contract(ITornadoInstance)1813": {
        "encoding": "inplace",
        "label": "contract ITornadoInstance",
        "numberOfBytes": "20"
      },
      "t_contract(PGRouter)2719": {
        "encoding": "inplace",
        "label": "contract PGRouter",
        "numberOfBytes": "20"
      },
      "t_enum(InstanceState)1829": {
        "encoding": "inplace",
        "label": "enum InstanceRegistry.InstanceState",
        "numberOfBytes": "1"
      },
      "t_mapping(t_contract(ITornadoInstance)1813,t_struct(Instance)1844_storage)": {
        "encoding": "mapping",
        "key": "t_contract(ITornadoInstance)1813",
        "label": "mapping(contract ITornadoInstance => struct InstanceRegistry.Instance)",
        "numberOfBytes": "32",
        "value": "t_struct(Instance)1844_storage"
      },
      "t_struct(Instance)1844_storage": {
        "encoding": "inplace",
        "label": "struct InstanceRegistry.Instance",
        "members": [
          {
            "astId": 1831,
            "contract": "contracts/portalgate/InstanceRegistry.sol:InstanceRegistry",
            "label": "isERC20",
            "offset": 0,
            "slot": "0",
            "type": "t_bool"
          },
          {
            "astId": 1834,
            "contract": "contracts/portalgate/InstanceRegistry.sol:InstanceRegistry",
            "label": "token",
            "offset": 1,
            "slot": "0",
            "type": "t_contract(IERC20)244"
          },
          {
            "astId": 1837,
            "contract": "contracts/portalgate/InstanceRegistry.sol:InstanceRegistry",
            "label": "state",
            "offset": 21,
            "slot": "0",
            "type": "t_enum(InstanceState)1829"
          },
          {
            "astId": 1839,
            "contract": "contracts/portalgate/InstanceRegistry.sol:InstanceRegistry",
            "label": "uniswapPoolSwappingFee",
            "offset": 22,
            "slot": "0",
            "type": "t_uint24"
          },
          {
            "astId": 1841,
            "contract": "contracts/portalgate/InstanceRegistry.sol:InstanceRegistry",
            "label": "protocolFeePercentage",
            "offset": 25,
            "slot": "0",
            "type": "t_uint32"
          },
          {
            "astId": 1843,
            "contract": "contracts/portalgate/InstanceRegistry.sol:InstanceRegistry",
            "label": "maxDepositAmount",
            "offset": 0,
            "slot": "1",
            "type": "t_uint256"
          }
        ],
        "numberOfBytes": "64"
      },
      "t_uint24": {
        "encoding": "inplace",
        "label": "uint24",
        "numberOfBytes": "3"
      },
      "t_uint256": {
        "encoding": "inplace",
        "label": "uint256",
        "numberOfBytes": "32"
      },
      "t_uint32": {
        "encoding": "inplace",
        "label": "uint32",
        "numberOfBytes": "4"
      }
    }
  }
}