{
  "address": "0x2279B7A0a67DB372996a5FaB50D91eAA73d2eBe6",
  "abi": [
    {
      "inputs": [
        {
          "internalType": "address",
          "name": "_governance",
          "type": "address"
        },
        {
          "internalType": "address",
          "name": "_instanceRegistry",
          "type": "address"
        },
        {
          "internalType": "address",
          "name": "_relayerRegistry",
          "type": "address"
        }
      ],
      "stateMutability": "nonpayable",
      "type": "constructor"
    },
    {
      "anonymous": false,
      "inputs": [
        {
          "indexed": true,
          "internalType": "address",
          "name": "sender",
          "type": "address"
        },
        {
          "indexed": false,
          "internalType": "bytes",
          "name": "encryptedNote",
          "type": "bytes"
        }
      ],
      "name": "EncryptedNote",
      "type": "event"
    },
    {
      "inputs": [
        {
          "internalType": "contract IERC20",
          "name": "_token",
          "type": "address"
        },
        {
          "internalType": "address",
          "name": "_spender",
          "type": "address"
        },
        {
          "internalType": "uint256",
          "name": "_amount",
          "type": "uint256"
        }
      ],
      "name": "approveExactToken",
      "outputs": [],
      "stateMutability": "nonpayable",
      "type": "function"
    },
    {
      "inputs": [
        {
          "internalType": "bytes[]",
          "name": "_encryptedNotes",
          "type": "bytes[]"
        }
      ],
      "name": "backupNotes",
      "outputs": [],
      "stateMutability": "nonpayable",
      "type": "function"
    },
    {
      "inputs": [
        {
          "internalType": "contract ITornadoInstance",
          "name": "_tornado",
          "type": "address"
        },
        {
          "internalType": "bytes32",
          "name": "_commitment",
          "type": "bytes32"
        },
        {
          "internalType": "bytes",
          "name": "_encryptedNote",
          "type": "bytes"
        }
      ],
      "name": "deposit",
      "outputs": [],
      "stateMutability": "payable",
      "type": "function"
    },
    {
      "inputs": [],
      "name": "governance",
      "outputs": [
        {
          "internalType": "address",
          "name": "",
          "type": "address"
        }
      ],
      "stateMutability": "view",
      "type": "function"
    },
    {
      "inputs": [],
      "name": "instanceRegistry",
      "outputs": [
        {
          "internalType": "contract InstanceRegistry",
          "name": "",
          "type": "address"
        }
      ],
      "stateMutability": "view",
      "type": "function"
    },
    {
      "inputs": [],
      "name": "relayerRegistry",
      "outputs": [
        {
          "internalType": "contract RelayerRegistry",
          "name": "",
          "type": "address"
        }
      ],
      "stateMutability": "view",
      "type": "function"
    },
    {
      "inputs": [
        {
          "internalType": "contract IERC20",
          "name": "_token",
          "type": "address"
        },
        {
          "internalType": "address payable",
          "name": "_to",
          "type": "address"
        },
        {
          "internalType": "uint256",
          "name": "_amount",
          "type": "uint256"
        }
      ],
      "name": "rescueTokens",
      "outputs": [],
      "stateMutability": "nonpayable",
      "type": "function"
    },
    {
      "inputs": [
        {
          "internalType": "contract ITornadoInstance",
          "name": "_tornado",
          "type": "address"
        },
        {
          "internalType": "bytes",
          "name": "_proof",
          "type": "bytes"
        },
        {
          "internalType": "bytes32",
          "name": "_root",
          "type": "bytes32"
        },
        {
          "internalType": "bytes32",
          "name": "_nullifierHash",
          "type": "bytes32"
        },
        {
          "internalType": "address payable",
          "name": "_recipient",
          "type": "address"
        },
        {
          "internalType": "address payable",
          "name": "_relayer",
          "type": "address"
        },
        {
          "internalType": "uint256",
          "name": "_fee",
          "type": "uint256"
        },
        {
          "internalType": "uint256",
          "name": "_refund",
          "type": "uint256"
        }
      ],
      "name": "withdraw",
      "outputs": [],
      "stateMutability": "payable",
      "type": "function"
    }
  ],
  "transactionHash": "0xc1845a08dde3a8d1bb4afc796167fb92a1c1e2b2a7cd0d75a978d596f073c515",
  "args": [
    "0xf39Fd6e51aad88F6F4ce6aB8827279cffFb92266",
    "0x5FC8d32690cc91D4c39d9d3abcBD16989F875707",
    "0x0165878A594ca255338adfa4d48449f69242Eb8F"
  ],
  "numDeployments": 1,
  "solcInputHash": "e501d77edd4314ca14f93010de633e78",
  "bytecode": "0x60e060405234801561001057600080fd5b50604051620014ae380380620014ae8339810160408190526100319161006a565b6001600160a01b0392831660805290821660a0521660c0526100ad565b80516001600160a01b038116811461006557600080fd5b919050565b60008060006060848603121561007f57600080fd5b6100888461004e565b92506100966020850161004e565b91506100a46040850161004e565b90509250925092565b60805160a05160c0516113a86200010660003960008181610117015281816106e8015261076f01526000818160a7015281816101e8015281816104c101526105d301526000818161014b01526108ba01526113a86000f3fe60806040526004361061007b5760003560e01c80635aa6e6751161004e5780635aa6e675146101395780636485ba2a1461016d578063b438689f1461018d578063cea9d26f146101a057600080fd5b806313d98d131461008057806336a3874b146100955780633ef10783146100e557806347ff589d14610105575b600080fd5b61009361008e366004610f41565b6101c0565b005b3480156100a157600080fd5b506100c97f000000000000000000000000000000000000000000000000000000000000000081565b6040516001600160a01b03909116815260200160405180910390f35b3480156100f157600080fd5b50610093610100366004610f9d565b6104b6565b34801561011157600080fd5b506100c97f000000000000000000000000000000000000000000000000000000000000000081565b34801561014557600080fd5b506100c97f000000000000000000000000000000000000000000000000000000000000000081565b34801561017957600080fd5b50610093610188366004610fde565b610538565b61009361019b366004611053565b6105b1565b3480156101ac57600080fd5b506100936101bb366004610f9d565b6108af565b60405163032bb44360e01b81526001600160a01b0385811660048301526000918291829182917f0000000000000000000000000000000000000000000000000000000000000000169063032bb4439060240160c060405180830381865afa15801561022f573d6000803e3d6000fd5b505050506040513d601f19601f82011682018060405250810190610253919061110b565b95505050935093509350600060018111156102705761027061119a565b8260018111156102825761028261119a565b036102d45760405162461bcd60e51b815260206004820152601d60248201527f54686520696e7374616e6365206973206e6f7420737570706f7274656400000060448201526064015b60405180910390fd5b6040516370a0823160e01b81526001600160a01b0389811660048301528291908516906370a0823190602401602060405180830381865afa15801561031d573d6000803e3d6000fd5b505050506040513d601f19601f8201168201806040525081019061034191906111b0565b1061038e5760405162461bcd60e51b815260206004820152601f60248201527f457863656564206465706f7369742043617020666f722074686520706f6f6c0060448201526064016102cb565b831561040d5761040d33308a6001600160a01b0316638bca6d166040518163ffffffff1660e01b8152600401602060405180830381865afa1580156103d7573d6000803e3d6000fd5b505050506040513d601f19601f820116820180604052508101906103fb91906111b0565b6001600160a01b038716929190610ab0565b60405163b214faa560e01b8152600481018890526001600160a01b0389169063b214faa59034906024016000604051808303818588803b15801561045057600080fd5b505af1158015610464573d6000803e3d6000fd5b5050505050336001600160a01b03167ffa28df43db3553771f7209dcef046f3bdfea15870ab625dcda30ac58b82b400887876040516104a49291906111f2565b60405180910390a25050505050505050565b336001600160a01b037f0000000000000000000000000000000000000000000000000000000000000000161461051f5760405162461bcd60e51b815260206004820152600e60248201526d139bdd08185d5d1a1bdc9a5e995960921b60448201526064016102cb565b6105336001600160a01b0384168383610b21565b505050565b60005b8181101561053357337ffa28df43db3553771f7209dcef046f3bdfea15870ab625dcda30ac58b82b400884848481811061057757610577611206565b9050602002810190610589919061121c565b6040516105979291906111f2565b60405180910390a2806105a981611263565b91505061053b565b60405163032bb44360e01b81526001600160a01b038a811660048301526000917f00000000000000000000000000000000000000000000000000000000000000009091169063032bb4439060240160c060405180830381865afa15801561061c573d6000803e3d6000fd5b505050506040513d601f19601f82011682018060405250810190610640919061110b565b509194506000935061065192505050565b8160018111156106635761066361119a565b036106b05760405162461bcd60e51b815260206004820152601d60248201527f54686520696e7374616e6365206973206e6f7420737570706f7274656400000060448201526064016102cb565b846001600160a01b0316846001600160a01b0316146108355760405163fb04c93960e01b81526001600160a01b0385811660048301527f0000000000000000000000000000000000000000000000000000000000000000169063fb04c93990602401602060405180830381865afa15801561072f573d6000803e3d6000fd5b505050506040513d601f19601f82011682018060405250810190610753919061128a565b80156107e2575060405163fb04c93960e01b81523360048201527f00000000000000000000000000000000000000000000000000000000000000006001600160a01b03169063fb04c93990602401602060405180830381865afa1580156107be573d6000803e3d6000fd5b505050506040513d601f19601f820116820180604052508101906107e2919061128a565b80156107f65750336001600160a01b038516145b6108355760405162461bcd60e51b815260206004820152601060248201526f24b73b30b634b2102932b630bcb2b91760811b60448201526064016102cb565b6040516310d056db60e11b81526001600160a01b038b16906321a0adb6903490610871908d908d908d908d908d908d908d908d906004016112a5565b6000604051808303818588803b15801561088a57600080fd5b505af115801561089e573d6000803e3d6000fd5b505050505050505050505050505050565b336001600160a01b037f000000000000000000000000000000000000000000000000000000000000000016146109185760405162461bcd60e51b815260206004820152600e60248201526d139bdd08185d5d1a1bdc9a5e995960921b60448201526064016102cb565b6001600160a01b03821661096e5760405162461bcd60e51b815260206004820181905260248201527f50473a2063616e206e6f742073656e6420746f207a65726f206164647265737360448201526064016102cb565b6001600160a01b0383166109ca574760006109898284610c36565b6040519091506001600160a01b0385169082156108fc029083906000818181858888f193505050501580156109c2573d6000803e3d6000fd5b505050505050565b6040516370a0823160e01b81523060048201526000906001600160a01b038516906370a0823190602401602060405180830381865afa158015610a11573d6000803e3d6000fd5b505050506040513d601f19601f82011682018060405250810190610a3591906111b0565b90506000610a438284610c36565b905060008111610a955760405162461bcd60e51b815260206004820152601c60248201527f50473a20747279696e6720746f2073656e6420302062616c616e63650000000060448201526064016102cb565b610aa96001600160a01b0386168583610c4e565b5050505050565b6040516001600160a01b0380851660248301528316604482015260648101829052610b1b9085906323b872dd60e01b906084015b60408051601f198184030181529190526020810180516001600160e01b03166001600160e01b031990931692909217909152610c7e565b50505050565b801580610b9b5750604051636eb1769f60e11b81523060048201526001600160a01b03838116602483015284169063dd62ed3e90604401602060405180830381865afa158015610b75573d6000803e3d6000fd5b505050506040513d601f19601f82011682018060405250810190610b9991906111b0565b155b610c065760405162461bcd60e51b815260206004820152603660248201527f5361666545524332303a20617070726f76652066726f6d206e6f6e2d7a65726f60448201527520746f206e6f6e2d7a65726f20616c6c6f77616e636560501b60648201526084016102cb565b6040516001600160a01b03831660248201526044810182905261053390849063095ea7b360e01b90606401610ae4565b6000818310610c455781610c47565b825b9392505050565b6040516001600160a01b03831660248201526044810182905261053390849063a9059cbb60e01b90606401610ae4565b6000610cd3826040518060400160405280602081526020017f5361666545524332303a206c6f772d6c6576656c2063616c6c206661696c6564815250856001600160a01b0316610d509092919063ffffffff16565b8051909150156105335780806020019051810190610cf1919061128a565b6105335760405162461bcd60e51b815260206004820152602a60248201527f5361666545524332303a204552433230206f7065726174696f6e20646964206e6044820152691bdd081cdd58d8d9595960b21b60648201526084016102cb565b6060610d5f8484600085610d67565b949350505050565b606082471015610dc85760405162461bcd60e51b815260206004820152602660248201527f416464726573733a20696e73756666696369656e742062616c616e636520666f6044820152651c8818d85b1b60d21b60648201526084016102cb565b600080866001600160a01b03168587604051610de49190611323565b60006040518083038185875af1925050503d8060008114610e21576040519150601f19603f3d011682016040523d82523d6000602084013e610e26565b606091505b5091509150610e3787838387610e42565b979650505050505050565b60608315610eb1578251600003610eaa576001600160a01b0385163b610eaa5760405162461bcd60e51b815260206004820152601d60248201527f416464726573733a2063616c6c20746f206e6f6e2d636f6e747261637400000060448201526064016102cb565b5081610d5f565b610d5f8383815115610ec65781518083602001fd5b8060405162461bcd60e51b81526004016102cb919061133f565b6001600160a01b0381168114610ef557600080fd5b50565b60008083601f840112610f0a57600080fd5b50813567ffffffffffffffff811115610f2257600080fd5b602083019150836020828501011115610f3a57600080fd5b9250929050565b60008060008060608587031215610f5757600080fd5b8435610f6281610ee0565b935060208501359250604085013567ffffffffffffffff811115610f8557600080fd5b610f9187828801610ef8565b95989497509550505050565b600080600060608486031215610fb257600080fd5b8335610fbd81610ee0565b92506020840135610fcd81610ee0565b929592945050506040919091013590565b60008060208385031215610ff157600080fd5b823567ffffffffffffffff8082111561100957600080fd5b818501915085601f83011261101d57600080fd5b81358181111561102c57600080fd5b8660208260051b850101111561104157600080fd5b60209290920196919550909350505050565b60008060008060008060008060006101008a8c03121561107257600080fd5b893561107d81610ee0565b985060208a013567ffffffffffffffff81111561109957600080fd5b6110a58c828d01610ef8565b90995097505060408a0135955060608a0135945060808a01356110c781610ee0565b935060a08a01356110d781610ee0565b8093505060c08a0135915060e08a013590509295985092959850929598565b8051801515811461110657600080fd5b919050565b60008060008060008060c0878903121561112457600080fd5b61112d876110f6565b9550602087015161113d81610ee0565b60408801519095506002811061115257600080fd5b606088015190945062ffffff8116811461116b57600080fd5b608088015190935063ffffffff8116811461118557600080fd5b8092505060a087015190509295509295509295565b634e487b7160e01b600052602160045260246000fd5b6000602082840312156111c257600080fd5b5051919050565b81835281816020850137506000828201602090810191909152601f909101601f19169091010190565b602081526000610d5f6020830184866111c9565b634e487b7160e01b600052603260045260246000fd5b6000808335601e1984360301811261123357600080fd5b83018035915067ffffffffffffffff82111561124e57600080fd5b602001915036819003821315610f3a57600080fd5b60006001820161128357634e487b7160e01b600052601160045260246000fd5b5060010190565b60006020828403121561129c57600080fd5b610c47826110f6565b60e0815260006112b960e083018a8c6111c9565b60208301989098525060408101959095526001600160a01b03938416606086015291909216608084015260a083019190915260c09091015292915050565b60005b838110156113125781810151838201526020016112fa565b83811115610b1b5750506000910152565b600082516113358184602087016112f7565b9190910192915050565b602081526000825180602084015261135e8160408501602087016112f7565b601f01601f1916919091016040019291505056fea26469706673582212207564eab6e39e8bf74eed22b39fb7e0f9369c2ddbf1cea1961cb8e62ed63140f764736f6c634300080e0033",
  "devdoc": {
    "kind": "dev",
    "methods": {
      "approveExactToken(address,address,uint256)": {
        "details": "Sets `amount` allowance of `_spender` over the router's (this contract) tokens."
      },
      "rescueTokens(address,address,uint256)": {
        "details": "Method to claim junk and accidentally sent tokens"
      }
    },
    "version": 1
  },
  "userdoc": {
    "kind": "user",
    "methods": {
      "backupNotes(bytes[])": {
        "notice": "Manually backup encrypted notes"
      }
    },
    "version": 1
  },
  "storageLayout": {
    "storage": [],
    "types": null
  }
}