{
  "address": "0x918CC013BCdF8F75270b9143CbbDd9402F7302bE",
  "abi": [
    {
      "anonymous": false,
      "inputs": [
        {
          "indexed": true,
          "internalType": "address",
          "name": "who",
          "type": "address"
        },
        {
          "indexed": false,
          "internalType": "bytes",
          "name": "data",
          "type": "bytes"
        }
      ],
      "name": "Echo",
      "type": "event"
    },
    {
      "inputs": [
        {
          "internalType": "bytes",
          "name": "_data",
          "type": "bytes"
        }
      ],
      "name": "echo",
      "outputs": [],
      "stateMutability": "nonpayable",
      "type": "function"
    }
  ],
  "transactionHash": "0xe01e1d5dbaf023d6f8959cfe82c41f6e45d66fb556370506fc06f7880b823072",
  "args": [],
  "numDeployments": 2,
  "solcInputHash": "8beda19219579723a38f17825df12756",
  "bytecode": "0x608060405234801561001057600080fd5b50610163806100206000396000f3fe608060405234801561001057600080fd5b506004361061002b5760003560e01c8063624fbfdc14610030575b600080fd5b61004361003e36600461008c565b610045565b005b336001600160a01b03167f50d6f3fc915efd1695d8a4cb50da185984f50d256834b9cb308295eb3c872c9c83836040516100809291906100fe565b60405180910390a25050565b6000806020838503121561009f57600080fd5b823567ffffffffffffffff808211156100b757600080fd5b818501915085601f8301126100cb57600080fd5b8135818111156100da57600080fd5b8660208285010111156100ec57600080fd5b60209290920196919550909350505050565b60208152816020820152818360408301376000818301604090810191909152601f909201601f1916010191905056fea2646970667358221220a5433cf4f06befcc6c6b95916ccc7239f6c4b5b4533e1af4d0af74df83a8770664736f6c634300080e0033",
  "devdoc": {
    "kind": "dev",
    "methods": {},
    "version": 1
  },
  "userdoc": {
    "kind": "user",
    "methods": {},
    "version": 1
  },
  "storageLayout": {
    "storage": [],
    "types": null
  }
}