{
  "address": "0x4458416EA99DCcA928ab24d2DC93C7561C010a28",
  "abi": [
    {
      "inputs": [
        {
          "internalType": "address",
          "name": "_governance",
          "type": "address"
        },
        {
          "internalType": "address",
          "name": "_tornadoTrees",
          "type": "address"
        },
        {
          "internalType": "address[3]",
          "name": "_verifiers",
          "type": "address[3]"
        },
        {
          "internalType": "bytes32",
          "name": "_accountRoot",
          "type": "bytes32"
        },
        {
          "components": [
            {
              "internalType": "address",
              "name": "instance",
              "type": "address"
            },
            {
              "internalType": "uint256",
              "name": "value",
              "type": "uint256"
            }
          ],
          "internalType": "struct Miner.Rate[]",
          "name": "_rates",
          "type": "tuple[]"
        }
      ],
      "stateMutability": "nonpayable",
      "type": "constructor"
    },
    {
      "anonymous": false,
      "inputs": [
        {
          "indexed": false,
          "internalType": "bytes32",
          "name": "commitment",
          "type": "bytes32"
        },
        {
          "indexed": false,
          "internalType": "bytes32",
          "name": "nullifier",
          "type": "bytes32"
        },
        {
          "indexed": false,
          "internalType": "bytes",
          "name": "encryptedAccount",
          "type": "bytes"
        },
        {
          "indexed": false,
          "internalType": "uint256",
          "name": "index",
          "type": "uint256"
        }
      ],
      "name": "NewAccount",
      "type": "event"
    },
    {
      "anonymous": false,
      "inputs": [
        {
          "indexed": false,
          "internalType": "address",
          "name": "instance",
          "type": "address"
        },
        {
          "indexed": false,
          "internalType": "uint256",
          "name": "value",
          "type": "uint256"
        }
      ],
      "name": "RateChanged",
      "type": "event"
    },
    {
      "anonymous": false,
      "inputs": [
        {
          "indexed": false,
          "internalType": "address",
          "name": "reward",
          "type": "address"
        },
        {
          "indexed": false,
          "internalType": "address",
          "name": "withdraw",
          "type": "address"
        },
        {
          "indexed": false,
          "internalType": "address",
          "name": "treeUpdate",
          "type": "address"
        }
      ],
      "name": "VerifiersUpdated",
      "type": "event"
    },
    {
      "inputs": [],
      "name": "ACCOUNT_ROOT_HISTORY_SIZE",
      "outputs": [
        {
          "internalType": "uint256",
          "name": "",
          "type": "uint256"
        }
      ],
      "stateMutability": "view",
      "type": "function"
    },
    {
      "inputs": [],
      "name": "accountCount",
      "outputs": [
        {
          "internalType": "uint256",
          "name": "",
          "type": "uint256"
        }
      ],
      "stateMutability": "view",
      "type": "function"
    },
    {
      "inputs": [
        {
          "internalType": "bytes32",
          "name": "",
          "type": "bytes32"
        }
      ],
      "name": "accountNullifiers",
      "outputs": [
        {
          "internalType": "bool",
          "name": "",
          "type": "bool"
        }
      ],
      "stateMutability": "view",
      "type": "function"
    },
    {
      "inputs": [
        {
          "internalType": "uint256",
          "name": "",
          "type": "uint256"
        }
      ],
      "name": "accountRoots",
      "outputs": [
        {
          "internalType": "bytes32",
          "name": "",
          "type": "bytes32"
        }
      ],
      "stateMutability": "view",
      "type": "function"
    },
    {
      "inputs": [
        {
          "internalType": "bytes[]",
          "name": "_rewardArgs",
          "type": "bytes[]"
        }
      ],
      "name": "batchReward",
      "outputs": [],
      "stateMutability": "nonpayable",
      "type": "function"
    },
    {
      "inputs": [],
      "name": "getLastAccountRoot",
      "outputs": [
        {
          "internalType": "bytes32",
          "name": "",
          "type": "bytes32"
        }
      ],
      "stateMutability": "view",
      "type": "function"
    },
    {
      "inputs": [],
      "name": "governance",
      "outputs": [
        {
          "internalType": "address",
          "name": "",
          "type": "address"
        }
      ],
      "stateMutability": "view",
      "type": "function"
    },
    {
      "inputs": [
        {
          "internalType": "bytes32",
          "name": "_root",
          "type": "bytes32"
        },
        {
          "internalType": "uint256",
          "name": "_index",
          "type": "uint256"
        }
      ],
      "name": "isKnownAccountRoot",
      "outputs": [
        {
          "internalType": "bool",
          "name": "",
          "type": "bool"
        }
      ],
      "stateMutability": "view",
      "type": "function"
    },
    {
      "inputs": [
        {
          "internalType": "address",
          "name": "",
          "type": "address"
        }
      ],
      "name": "rates",
      "outputs": [
        {
          "internalType": "uint256",
          "name": "",
          "type": "uint256"
        }
      ],
      "stateMutability": "view",
      "type": "function"
    },
    {
      "inputs": [
        {
          "internalType": "bytes",
          "name": "_proof",
          "type": "bytes"
        },
        {
          "components": [
            {
              "internalType": "uint256",
              "name": "rate",
              "type": "uint256"
            },
            {
              "internalType": "uint256",
              "name": "fee",
              "type": "uint256"
            },
            {
              "internalType": "address",
              "name": "instance",
              "type": "address"
            },
            {
              "internalType": "bytes32",
              "name": "rewardNullifier",
              "type": "bytes32"
            },
            {
              "internalType": "bytes32",
              "name": "extDataHash",
              "type": "bytes32"
            },
            {
              "internalType": "bytes32",
              "name": "depositRoot",
              "type": "bytes32"
            },
            {
              "internalType": "bytes32",
              "name": "withdrawalRoot",
              "type": "bytes32"
            },
            {
              "components": [
                {
                  "internalType": "address",
                  "name": "relayer",
                  "type": "address"
                },
                {
                  "internalType": "bytes",
                  "name": "encryptedAccount",
                  "type": "bytes"
                }
              ],
              "internalType": "struct Miner.RewardExtData",
              "name": "extData",
              "type": "tuple"
            },
            {
              "components": [
                {
                  "internalType": "bytes32",
                  "name": "inputRoot",
                  "type": "bytes32"
                },
                {
                  "internalType": "bytes32",
                  "name": "inputNullifierHash",
                  "type": "bytes32"
                },
                {
                  "internalType": "bytes32",
                  "name": "outputRoot",
                  "type": "bytes32"
                },
                {
                  "internalType": "uint256",
                  "name": "outputPathIndices",
                  "type": "uint256"
                },
                {
                  "internalType": "bytes32",
                  "name": "outputCommitment",
                  "type": "bytes32"
                }
              ],
              "internalType": "struct Miner.AccountUpdate",
              "name": "account",
              "type": "tuple"
            }
          ],
          "internalType": "struct Miner.RewardArgs",
          "name": "_args",
          "type": "tuple"
        },
        {
          "internalType": "bytes",
          "name": "_treeUpdateProof",
          "type": "bytes"
        },
        {
          "components": [
            {
              "internalType": "bytes32",
              "name": "oldRoot",
              "type": "bytes32"
            },
            {
              "internalType": "bytes32",
              "name": "newRoot",
              "type": "bytes32"
            },
            {
              "internalType": "bytes32",
              "name": "leaf",
              "type": "bytes32"
            },
            {
              "internalType": "uint256",
              "name": "pathIndices",
              "type": "uint256"
            }
          ],
          "internalType": "struct Miner.TreeUpdateArgs",
          "name": "_treeUpdateArgs",
          "type": "tuple"
        }
      ],
      "name": "reward",
      "outputs": [],
      "stateMutability": "nonpayable",
      "type": "function"
    },
    {
      "inputs": [
        {
          "internalType": "bytes",
          "name": "_proof",
          "type": "bytes"
        },
        {
          "components": [
            {
              "internalType": "uint256",
              "name": "rate",
              "type": "uint256"
            },
            {
              "internalType": "uint256",
              "name": "fee",
              "type": "uint256"
            },
            {
              "internalType": "address",
              "name": "instance",
              "type": "address"
            },
            {
              "internalType": "bytes32",
              "name": "rewardNullifier",
              "type": "bytes32"
            },
            {
              "internalType": "bytes32",
              "name": "extDataHash",
              "type": "bytes32"
            },
            {
              "internalType": "bytes32",
              "name": "depositRoot",
              "type": "bytes32"
            },
            {
              "internalType": "bytes32",
              "name": "withdrawalRoot",
              "type": "bytes32"
            },
            {
              "components": [
                {
                  "internalType": "address",
                  "name": "relayer",
                  "type": "address"
                },
                {
                  "internalType": "bytes",
                  "name": "encryptedAccount",
                  "type": "bytes"
                }
              ],
              "internalType": "struct Miner.RewardExtData",
              "name": "extData",
              "type": "tuple"
            },
            {
              "components": [
                {
                  "internalType": "bytes32",
                  "name": "inputRoot",
                  "type": "bytes32"
                },
                {
                  "internalType": "bytes32",
                  "name": "inputNullifierHash",
                  "type": "bytes32"
                },
                {
                  "internalType": "bytes32",
                  "name": "outputRoot",
                  "type": "bytes32"
                },
                {
                  "internalType": "uint256",
                  "name": "outputPathIndices",
                  "type": "uint256"
                },
                {
                  "internalType": "bytes32",
                  "name": "outputCommitment",
                  "type": "bytes32"
                }
              ],
              "internalType": "struct Miner.AccountUpdate",
              "name": "account",
              "type": "tuple"
            }
          ],
          "internalType": "struct Miner.RewardArgs",
          "name": "_args",
          "type": "tuple"
        }
      ],
      "name": "reward",
      "outputs": [],
      "stateMutability": "nonpayable",
      "type": "function"
    },
    {
      "inputs": [
        {
          "internalType": "bytes32",
          "name": "",
          "type": "bytes32"
        }
      ],
      "name": "rewardNullifiers",
      "outputs": [
        {
          "internalType": "bool",
          "name": "",
          "type": "bool"
        }
      ],
      "stateMutability": "view",
      "type": "function"
    },
    {
      "inputs": [],
      "name": "rewardVerifier",
      "outputs": [
        {
          "internalType": "contract IVerifier",
          "name": "",
          "type": "address"
        }
      ],
      "stateMutability": "view",
      "type": "function"
    },
    {
      "inputs": [
        {
          "components": [
            {
              "internalType": "address",
              "name": "instance",
              "type": "address"
            },
            {
              "internalType": "uint256",
              "name": "value",
              "type": "uint256"
            }
          ],
          "internalType": "struct Miner.Rate[]",
          "name": "_rates",
          "type": "tuple[]"
        }
      ],
      "name": "setRates",
      "outputs": [],
      "stateMutability": "nonpayable",
      "type": "function"
    },
    {
      "inputs": [
        {
          "internalType": "contract TornadoTrees",
          "name": "_tornadoTrees",
          "type": "address"
        }
      ],
      "name": "setTornadoTreesContract",
      "outputs": [],
      "stateMutability": "nonpayable",
      "type": "function"
    },
    {
      "inputs": [
        {
          "internalType": "contract IVerifier[3]",
          "name": "_verifiers",
          "type": "address[3]"
        }
      ],
      "name": "setVerifiers",
      "outputs": [],
      "stateMutability": "nonpayable",
      "type": "function"
    },
    {
      "inputs": [],
      "name": "tornadoTrees",
      "outputs": [
        {
          "internalType": "contract TornadoTrees",
          "name": "",
          "type": "address"
        }
      ],
      "stateMutability": "view",
      "type": "function"
    },
    {
      "inputs": [],
      "name": "treeUpdateVerifier",
      "outputs": [
        {
          "internalType": "contract IVerifier",
          "name": "",
          "type": "address"
        }
      ],
      "stateMutability": "view",
      "type": "function"
    },
    {
      "inputs": [
        {
          "internalType": "bytes",
          "name": "_proof",
          "type": "bytes"
        },
        {
          "components": [
            {
              "internalType": "uint256",
              "name": "amount",
              "type": "uint256"
            },
            {
              "internalType": "bytes32",
              "name": "extDataHash",
              "type": "bytes32"
            },
            {
              "components": [
                {
                  "internalType": "uint256",
                  "name": "fee",
                  "type": "uint256"
                },
                {
                  "internalType": "address",
                  "name": "recipient",
                  "type": "address"
                },
                {
                  "internalType": "address",
                  "name": "relayer",
                  "type": "address"
                },
                {
                  "internalType": "bytes",
                  "name": "encryptedAccount",
                  "type": "bytes"
                }
              ],
              "internalType": "struct Miner.WithdrawExtData",
              "name": "extData",
              "type": "tuple"
            },
            {
              "components": [
                {
                  "internalType": "bytes32",
                  "name": "inputRoot",
                  "type": "bytes32"
                },
                {
                  "internalType": "bytes32",
                  "name": "inputNullifierHash",
                  "type": "bytes32"
                },
                {
                  "internalType": "bytes32",
                  "name": "outputRoot",
                  "type": "bytes32"
                },
                {
                  "internalType": "uint256",
                  "name": "outputPathIndices",
                  "type": "uint256"
                },
                {
                  "internalType": "bytes32",
                  "name": "outputCommitment",
                  "type": "bytes32"
                }
              ],
              "internalType": "struct Miner.AccountUpdate",
              "name": "account",
              "type": "tuple"
            }
          ],
          "internalType": "struct Miner.WithdrawArgs",
          "name": "_args",
          "type": "tuple"
        }
      ],
      "name": "withdraw",
      "outputs": [],
      "stateMutability": "nonpayable",
      "type": "function"
    },
    {
      "inputs": [
        {
          "internalType": "bytes",
          "name": "_proof",
          "type": "bytes"
        },
        {
          "components": [
            {
              "internalType": "uint256",
              "name": "amount",
              "type": "uint256"
            },
            {
              "internalType": "bytes32",
              "name": "extDataHash",
              "type": "bytes32"
            },
            {
              "components": [
                {
                  "internalType": "uint256",
                  "name": "fee",
                  "type": "uint256"
                },
                {
                  "internalType": "address",
                  "name": "recipient",
                  "type": "address"
                },
                {
                  "internalType": "address",
                  "name": "relayer",
                  "type": "address"
                },
                {
                  "internalType": "bytes",
                  "name": "encryptedAccount",
                  "type": "bytes"
                }
              ],
              "internalType": "struct Miner.WithdrawExtData",
              "name": "extData",
              "type": "tuple"
            },
            {
              "components": [
                {
                  "internalType": "bytes32",
                  "name": "inputRoot",
                  "type": "bytes32"
                },
                {
                  "internalType": "bytes32",
                  "name": "inputNullifierHash",
                  "type": "bytes32"
                },
                {
                  "internalType": "bytes32",
                  "name": "outputRoot",
                  "type": "bytes32"
                },
                {
                  "internalType": "uint256",
                  "name": "outputPathIndices",
                  "type": "uint256"
                },
                {
                  "internalType": "bytes32",
                  "name": "outputCommitment",
                  "type": "bytes32"
                }
              ],
              "internalType": "struct Miner.AccountUpdate",
              "name": "account",
              "type": "tuple"
            }
          ],
          "internalType": "struct Miner.WithdrawArgs",
          "name": "_args",
          "type": "tuple"
        },
        {
          "internalType": "bytes",
          "name": "_treeUpdateProof",
          "type": "bytes"
        },
        {
          "components": [
            {
              "internalType": "bytes32",
              "name": "oldRoot",
              "type": "bytes32"
            },
            {
              "internalType": "bytes32",
              "name": "newRoot",
              "type": "bytes32"
            },
            {
              "internalType": "bytes32",
              "name": "leaf",
              "type": "bytes32"
            },
            {
              "internalType": "uint256",
              "name": "pathIndices",
              "type": "uint256"
            }
          ],
          "internalType": "struct Miner.TreeUpdateArgs",
          "name": "_treeUpdateArgs",
          "type": "tuple"
        }
      ],
      "name": "withdraw",
      "outputs": [],
      "stateMutability": "nonpayable",
      "type": "function"
    },
    {
      "inputs": [],
      "name": "withdrawVerifier",
      "outputs": [
        {
          "internalType": "contract IVerifier",
          "name": "",
          "type": "address"
        }
      ],
      "stateMutability": "view",
      "type": "function"
    }
  ],
  "transactionHash": "0xe95e0b4cd7768cae7df187823f8381a5000c2523bb6f58b92254ad470244edba",
  "args": [
    "0xE356854c04927202C0188830424283ef1e34BAb0",
    "0xb9CCf2aAC524Ba99A21Adc18a3d70FFD228f227b",
    [
      "0xFfB2B74B491901F4dada1B48608cFDb25b724DA1",
      "0x8A0F93F4c7D89F3bF44c24cdEA86439b6126308B",
      "0xC62eF95ca0f596cEE23F4E80675f20BabF009472"
    ],
    "0x29f9a0a07a22ab214d00aaa0190f54509e853f3119009baecb0035347606b0a9",
    [
      {
        "instance": "0x34317E92C6AFFF78865aC68CAE7BE415c55fA09b",
        "value": "1000"
      }
    ]
  ],
  "numDeployments": 2,
  "solcInputHash": "7cfa734622d913b65837a0dfa7356c89",
  "bytecode": "0x60a06040523480156200001157600080fd5b506040516200225f3803806200225f833981016040819052620000349162000437565b6001600160a01b03858116608052600380546001600160a01b031916918616919091179055816008600001556200006b81620000d1565b620000c660405180606001604052808560006003811062000090576200009062000501565b602090810291909101516001600160a01b039081168352878201518116918301919091526040808801519091169101526200023e565b50505050506200053f565b60005b81518110156200023a57600160801b828281518110620000f857620000f862000501565b60200260200101516020015110620001475760405162461bcd60e51b815260206004820152600e60248201526d496e636f7272656374207261746560901b604482015260640160405180910390fd5b60008282815181106200015e576200015e62000501565b602002602001015160000151905082828151811062000181576200018162000501565b60200260200101516020015160066000836001600160a01b03166001600160a01b03168152602001908152602001600020819055507f14eccc240e5ba9a72e0ca955584fe1b0dca7104fce4dcb1296edbba8eea2da0481848481518110620001ed57620001ed62000501565b6020026020010151602001516040516200021c9291906001600160a01b03929092168252602082015260400190565b60405180910390a15080620002318162000517565b915050620000d4565b5050565b8051600080546001600160a01b039283166001600160a01b031991821681179092556020808501516001805491861691841682179055604080870151600280549190971694168417909555845193845290830152918101919091527fcdb44c0a599b75813fe4a4593f032c7cfd38aa9e6461ba99a31aba3540b502109060600160405180910390a150565b80516001600160a01b0381168114620002e157600080fd5b919050565b634e487b7160e01b600052604160045260246000fd5b604080519081016001600160401b0381118282101715620003215762000321620002e6565b60405290565b604051606081016001600160401b0381118282101715620003215762000321620002e6565b604051601f8201601f191681016001600160401b0381118282101715620003775762000377620002e6565b604052919050565b600082601f8301126200039157600080fd5b815160206001600160401b03821115620003af57620003af620002e6565b620003bf818360051b016200034c565b82815260069290921b84018101918181019086841115620003df57600080fd5b8286015b848110156200042c5760408189031215620003fe5760008081fd5b62000408620002fc565b6200041382620002c9565b81528185015185820152835291830191604001620003e3565b509695505050505050565b600080600080600060e086880312156200045057600080fd5b6200045b86620002c9565b945060206200046c818801620002c9565b945087605f8801126200047e57600080fd5b6200048862000327565b8060a089018a8111156200049b57600080fd5b60408a015b81811015620004c257620004b481620002c9565b8452928401928401620004a0565b505160c08a015191965094509150506001600160401b03811115620004e657600080fd5b620004f4888289016200037f565b9150509295509295909350565b634e487b7160e01b600052603260045260246000fd5b6000600182016200053857634e487b7160e01b600052601160045260246000fd5b5060010190565b608051611cef62000570600039600081816101f8015281816107a7015281816108c50152610bf20152611cef6000f3fe608060405234801561001057600080fd5b50600436106101375760003560e01c806380bc50cc116100b8578063c2c267751161007c578063c2c26775146102c1578063c6a4b053146102d4578063e2658c9c146102e7578063e4af29fc146102fa578063f9406cf314610303578063f945a17e1461031657600080fd5b806380bc50cc14610255578063864eb1641461026857806397f098d71461027b578063a8734f0b1461028e578063b710cc7c146102ae57600080fd5b806352ef8e96116100ff57806352ef8e96146101eb5780635aa6e675146101f3578063637c09631461021a57806377c55be51461022f5780637d9af9141461024257600080fd5b80631311b6e81461013c57806334239b95146101575780633cb837fd1461018a57806342a660b0146101b55780634a20de58146101d8575b600080fd5b610144610329565b6040519081526020015b60405180910390f35b61017a610165366004611257565b60056020526000908152604090205460ff1681565b604051901515815260200161014e565b60035461019d906001600160a01b031681565b6040516001600160a01b03909116815260200161014e565b61017a6101c3366004611257565b60046020526000908152604090205460ff1681565b60025461019d906001600160a01b031681565b610144606481565b61019d7f000000000000000000000000000000000000000000000000000000000000000081565b61022d61022836600461156c565b610353565b005b61022d61023d366004611605565b61079c565b61022d6102503660046116fd565b610815565b61022d610263366004611760565b61084e565b60015461019d906001600160a01b031681565b61017a6102893660046117b9565b610883565b61014461029c3660046117db565b60066020526000908152604090205481565b61022d6102bc3660046117ff565b6108ba565b61022d6102cf3660046118d4565b61090b565b6101446102e2366004611257565b610bd0565b61022d6102f53660046117db565b610be7565b61014460075481565b60005461019d906001600160a01b031681565b61022d61032436600461192f565b610c51565b60006008606460075461033c91906119a3565b6064811061034c5761034c6119c5565b0154905090565b6103638361010001518383610cb8565b60035460a084015160c085015160405163c11b968160e01b8152600481019290925260248201526001600160a01b039091169063c11b96819060440160006040518083038186803b1580156103b757600080fd5b505afa1580156103cb573d6000803e3d6000fd5b5050505061040a8360e001516040516020016103e79190611a21565b60405160208183030381529060405280516020909101206001600160f81b031690565b8360800151146104615760405162461bcd60e51b815260206004820152601c60248201527f496e636f72726563742065787465726e616c206461746120686173680000000060448201526064015b60405180910390fd5b600160f81b8360200151106104b15760405162461bcd60e51b81526020600482015260166024820152754665652076616c7565206f7574206f662072616e676560501b6044820152606401610458565b6040808401516001600160a01b031660009081526006602052205483511480156104db5750825115155b61051d5760405162461bcd60e51b8152602060048201526013602482015272496e76616c696420726577617264207261746560681b6044820152606401610458565b606083015160009081526005602052604090205460ff16156105815760405162461bcd60e51b815260206004820152601d60248201527f52657761726420686173206265656e20616c7265616479207370656e740000006044820152606401610458565b60005460408051610180810182528551815260208087015181830152868301516001600160a01b0390811683850152606080890151818501526080808a0151818601526101008a810180515160a08089019190915281519096015160c080890191909152815189015160e0890152815190940151918701919091525101516101208501529188015161014084015290870151610160830152915163393ba7b960e11b815291909216916372774f729161063e918891600401611a56565b602060405180830381865afa15801561065b573d6000803e3d6000fd5b505050506040513d601f19601f8201168201806040525081019061067f9190611a9e565b6106c25760405162461bcd60e51b815260206004820152601460248201527324b73b30b634b2103932bbb0b93210383937b7b360611b6044820152606401610458565b61010083015160209081015160009081526004825260408082208054600160ff1991821681179092556060880151845260059094529120805490921617905561073161070c610329565b6101008501515114610722578160200151610dde565b83610100015160400151610dde565b7fbd4a5ca11c6f082fd6d00dc9d1dced6ab22490039bc36154bfa748bf2bf7435583610100015160800151846101000151602001518560e0015160200151600160075461077e9190611ad6565b60405161078e9493929190611ae9565b60405180910390a150505050565b336001600160a01b037f000000000000000000000000000000000000000000000000000000000000000016146107e45760405162461bcd60e51b815260040161045890611b19565b6040805160608181019092526108129183906003908390839080828437600092019190915250610e16915050565b50565b60408051600080825260a0820183526020820181815292820181905260608201819052608082015261084a918491849161090b565b5050565b60408051600080825260a0820183526020820181815292820181905260608201819052608082015261084a9184918491610353565b600082158015906108b1575082600861089d6064856119a3565b606481106108ad576108ad6119c5565b0154145b90505b92915050565b336001600160a01b037f000000000000000000000000000000000000000000000000000000000000000016146109025760405162461bcd60e51b815260040161045890611b19565b61081281610ea1565b61091a83606001518383610cb8565b61093283604001516040516020016103e79190611b60565b8360200151146109845760405162461bcd60e51b815260206004820152601c60248201527f496e636f72726563742065787465726e616c20646174612068617368000000006044820152606401610458565b8251600160f81b116109d85760405162461bcd60e51b815260206004820152601960248201527f416d6f756e742076616c7565206f7574206f662072616e6765000000000000006044820152606401610458565b6001546040805160e081018252855181526020808701518183015260608088018051518486015280519092015181840152815184015160808085019190915282519091015160a08401529051015160c0820152905163598da1d160e01b81526001600160a01b039092169163598da1d191610a5891889190600401611ba7565b602060405180830381865afa158015610a75573d6000803e3d6000fd5b505050506040513d601f19601f82011682018060405250810190610a999190611a9e565b610ae55760405162461bcd60e51b815260206004820152601860248201527f496e76616c6964207769746864726177616c2070726f6f6600000000000000006044820152606401610458565b610b13610af0610329565b60608501515114610b05578160200151610dde565b836060015160400151610dde565b6060808401516020908101516000908152600482526040808220805460ff191660011790558087015151815194850190915260218085529193610b649391929091611c999083013986519190610ff4565b90507fbd4a5ca11c6f082fd6d00dc9d1dced6ab22490039bc36154bfa748bf2bf743558460600151608001518560600151602001518660400151606001516001600754610bb19190611ad6565b604051610bc19493929190611ae9565b60405180910390a15050505050565b60088160648110610be057600080fd5b0154905081565b336001600160a01b037f00000000000000000000000000000000000000000000000000000000000000001614610c2f5760405162461bcd60e51b815260040161045890611b19565b600380546001600160a01b0319166001600160a01b0392909216919091179055565b60005b81811015610cb357600080848484818110610c7157610c716119c5565b9050602002810190610c839190611be4565b810190610c909190611760565b91509150610c9e828261084e565b50508080610cab90611c31565b915050610c54565b505050565b60208084015160009081526004909152604090205460ff1615610d165760405162461bcd60e51b81526020600482015260166024820152754f75746461746564206163636f756e7420737461746560501b6044820152606401610458565b610d1e610329565b835114610d8957610d3783600001518460600151610883565b610d7a5760405162461bcd60e51b8152602060048201526014602482015273125b9d985b1a59081858d8dbdd5b9d081c9bdbdd60621b6044820152606401610458565b610cb382828560800151611020565b600754836060015114610cb35760405162461bcd60e51b815260206004820152601e60248201527f496e636f7272656374206163636f756e7420696e7365727420696e64657800006044820152606401610458565b8060086064600760008154610df290611c31565b9182905550610e0191906119a3565b60648110610e1157610e116119c5565b015550565b8051600080546001600160a01b039283166001600160a01b031991821681179092556020808501516001805491861691841682179055604080870151600280549190971694168417909555845193845290830152918101919091527fcdb44c0a599b75813fe4a4593f032c7cfd38aa9e6461ba99a31aba3540b502109060600160405180910390a150565b60005b815181101561084a57600160801b828281518110610ec457610ec46119c5565b60200260200101516020015110610f0e5760405162461bcd60e51b815260206004820152600e60248201526d496e636f7272656374207261746560901b6044820152606401610458565b6000828281518110610f2257610f226119c5565b6020026020010151600001519050828281518110610f4257610f426119c5565b60200260200101516020015160066000836001600160a01b03166001600160a01b03168152602001908152602001600020819055507f14eccc240e5ba9a72e0ca955584fe1b0dca7104fce4dcb1296edbba8eea2da0481848481518110610fab57610fab6119c5565b602002602001015160200151604051610fd99291906001600160a01b03929092168252602082015260400190565b60405180910390a15080610fec81611c31565b915050610ea4565b600081848411156110185760405162461bcd60e51b81526004016104589190611c4a565b505050900390565b60008351116110715760405162461bcd60e51b815260206004820152601c60248201527f4f75746461746564206163636f756e74206d65726b6c6520726f6f74000000006044820152606401610458565b611079610329565b8251146110c85760405162461bcd60e51b815260206004820181905260248201527f4f75746461746564207472656520757064617465206d65726b6c6520726f6f746044820152606401610458565b8082604001511461111b5760405162461bcd60e51b815260206004820152601d60248201527f496e636f727265637420636f6d6d69746d656e7420696e7365727465640000006044820152606401610458565b6007548260600151146111705760405162461bcd60e51b815260206004820152601e60248201527f496e636f7272656374206163636f756e7420696e7365727420696e64657800006044820152606401610458565b60025460408051608081018252845181526020808601519082015284820151818301526060808601519082015290516335f8315960e11b81526001600160a01b0390921691636bf062b2916111ca91879190600401611c5d565b602060405180830381865afa1580156111e7573d6000803e3d6000fd5b505050506040513d601f19601f8201168201806040525081019061120b9190611a9e565b610cb35760405162461bcd60e51b815260206004820152601960248201527f496e76616c69642074726565207570646174652070726f6f66000000000000006044820152606401610458565b60006020828403121561126957600080fd5b5035919050565b634e487b7160e01b600052604160045260246000fd5b604080519081016001600160401b03811182821017156112a8576112a8611270565b60405290565b60405161012081016001600160401b03811182821017156112a8576112a8611270565b604051608081016001600160401b03811182821017156112a8576112a8611270565b604051601f8201601f191681016001600160401b038111828210171561131b5761131b611270565b604052919050565b600082601f83011261133457600080fd5b81356001600160401b0381111561134d5761134d611270565b611360601f8201601f19166020016112f3565b81815284602083860101111561137557600080fd5b816020850160208301376000918101602001919091529392505050565b6001600160a01b038116811461081257600080fd5b80356113b281611392565b919050565b6000604082840312156113c957600080fd5b6113d1611286565b905081356113de81611392565b815260208201356001600160401b038111156113f957600080fd5b61140584828501611323565b60208301525092915050565b600060a0828403121561142357600080fd5b60405160a081018181106001600160401b038211171561144557611445611270565b806040525080915082358152602083013560208201526040830135604082015260608301356060820152608083013560808201525092915050565b60006101a0828403121561149357600080fd5b61149b6112ae565b905081358152602082013560208201526114b7604083016113a7565b6040820152606082013560608201526080820135608082015260a082013560a082015260c082013560c082015260e08201356001600160401b038111156114fd57600080fd5b611509848285016113b7565b60e08301525061010061151e84828501611411565b9082015292915050565b60006080828403121561153a57600080fd5b6115426112d1565b90508135815260208201356020820152604082013560408201526060820135606082015292915050565b60008060008060e0858703121561158257600080fd5b84356001600160401b038082111561159957600080fd5b6115a588838901611323565b955060208701359150808211156115bb57600080fd5b6115c788838901611480565b945060408701359150808211156115dd57600080fd5b506115ea87828801611323565b9250506115fa8660608701611528565b905092959194509250565b60006060828403121561161757600080fd5b8260608301111561162757600080fd5b50919050565b6000610100828403121561164057600080fd5b6116486112d1565b9050813581526020820135602082015260408201356001600160401b038082111561167257600080fd5b908301906080828603121561168657600080fd5b61168e6112d1565b8235815260208301356116a081611392565b602082015260408301356116b381611392565b60408201526060830135828111156116ca57600080fd5b6116d687828601611323565b6060830152508060408501525050506116f28360608401611411565b606082015292915050565b6000806040838503121561171057600080fd5b82356001600160401b038082111561172757600080fd5b61173386838701611323565b9350602085013591508082111561174957600080fd5b506117568582860161162d565b9150509250929050565b6000806040838503121561177357600080fd5b82356001600160401b038082111561178a57600080fd5b61179686838701611323565b935060208501359150808211156117ac57600080fd5b5061175685828601611480565b600080604083850312156117cc57600080fd5b50508035926020909101359150565b6000602082840312156117ed57600080fd5b81356117f881611392565b9392505050565b6000602080838503121561181257600080fd5b82356001600160401b038082111561182957600080fd5b818501915085601f83011261183d57600080fd5b81358181111561184f5761184f611270565b61185d848260051b016112f3565b818152848101925060069190911b83018401908782111561187d57600080fd5b928401925b818410156118c9576040848903121561189b5760008081fd5b6118a3611286565b84356118ae81611392565b81528486013586820152835260409093019291840191611882565b979650505050505050565b60008060008060e085870312156118ea57600080fd5b84356001600160401b038082111561190157600080fd5b61190d88838901611323565b9550602087013591508082111561192357600080fd5b6115c78883890161162d565b6000806020838503121561194257600080fd5b82356001600160401b038082111561195957600080fd5b818501915085601f83011261196d57600080fd5b81358181111561197c57600080fd5b8660208260051b850101111561199157600080fd5b60209290920196919550909350505050565b6000826119c057634e487b7160e01b600052601260045260246000fd5b500690565b634e487b7160e01b600052603260045260246000fd5b6000815180845260005b81811015611a01576020818501810151868301820152016119e5565b506000602082860101526020601f19601f83011685010191505092915050565b602080825282516001600160a01b031682820152820151604080830152600090611a4e60608401826119db565b949350505050565b60006101a0808352611a6a818401866119db565b91505060208083018460005b600c811015611a9357815183529183019190830190600101611a76565b505050509392505050565b600060208284031215611ab057600080fd5b815180151581146117f857600080fd5b634e487b7160e01b600052601160045260246000fd5b818103818111156108b4576108b4611ac0565b848152836020820152608060408201526000611b0860808301856119db565b905082606083015295945050505050565b60208082526027908201527f4f6e6c7920676f7665726e616e63652063616e20706572666f726d20746869736040820152661030b1ba34b7b760c91b606082015260800190565b60208152815160208201526000602083015160018060a01b03808216604085015280604086015116606085015250506060830151608080840152611a4e60a08401826119db565b6000610100808352611bbb818401866119db565b91505060208083018460005b6007811015611a9357815183529183019190830190600101611bc7565b6000808335601e19843603018112611bfb57600080fd5b8301803591506001600160401b03821115611c1557600080fd5b602001915036819003821315611c2a57600080fd5b9250929050565b600060018201611c4357611c43611ac0565b5060010190565b6020815260006108b160208301846119db565b60a081526000611c7060a08301856119db565b905060208083018460005b6004811015611a9357815183529183019190830190600101611c7b56fe416d6f756e742073686f756c642062652067726561746572207468616e20666565a2646970667358221220f8ddc43b7897bb373e42282d097259a5c3bf6b8c025cbc8a570084f844908d9264736f6c63430008130033",
  "devdoc": {
    "kind": "dev",
    "methods": {
      "getLastAccountRoot()": {
        "details": "Returns the last root"
      },
      "isKnownAccountRoot(bytes32,uint256)": {
        "details": "Whether the root is present in the root history"
      }
    },
    "version": 1
  },
  "userdoc": {
    "kind": "user",
    "methods": {},
    "version": 1
  },
  "storageLayout": {
    "storage": [
      {
        "astId": 1236,
        "contract": "contracts/tornado-core/Miner.sol:Miner",
        "label": "rewardVerifier",
        "offset": 0,
        "slot": "0",
        "type": "t_contract(IVerifier)615"
      },
      {
        "astId": 1239,
        "contract": "contracts/tornado-core/Miner.sol:Miner",
        "label": "withdrawVerifier",
        "offset": 0,
        "slot": "1",
        "type": "t_contract(IVerifier)615"
      },
      {
        "astId": 1242,
        "contract": "contracts/tornado-core/Miner.sol:Miner",
        "label": "treeUpdateVerifier",
        "offset": 0,
        "slot": "2",
        "type": "t_contract(IVerifier)615"
      },
      {
        "astId": 1247,
        "contract": "contracts/tornado-core/Miner.sol:Miner",
        "label": "tornadoTrees",
        "offset": 0,
        "slot": "3",
        "type": "t_contract(TornadoTrees)2496"
      },
      {
        "astId": 1251,
        "contract": "contracts/tornado-core/Miner.sol:Miner",
        "label": "accountNullifiers",
        "offset": 0,
        "slot": "4",
        "type": "t_mapping(t_bytes32,t_bool)"
      },
      {
        "astId": 1255,
        "contract": "contracts/tornado-core/Miner.sol:Miner",
        "label": "rewardNullifiers",
        "offset": 0,
        "slot": "5",
        "type": "t_mapping(t_bytes32,t_bool)"
      },
      {
        "astId": 1259,
        "contract": "contracts/tornado-core/Miner.sol:Miner",
        "label": "rates",
        "offset": 0,
        "slot": "6",
        "type": "t_mapping(t_address,t_uint256)"
      },
      {
        "astId": 1261,
        "contract": "contracts/tornado-core/Miner.sol:Miner",
        "label": "accountCount",
        "offset": 0,
        "slot": "7",
        "type": "t_uint256"
      },
      {
        "astId": 1268,
        "contract": "contracts/tornado-core/Miner.sol:Miner",
        "label": "accountRoots",
        "offset": 0,
        "slot": "8",
        "type": "t_array(t_bytes32)100_storage"
      }
    ],
    "types": {
      "t_address": {
        "encoding": "inplace",
        "label": "address",
        "numberOfBytes": "20"
      },
      "t_array(t_bytes32)100_storage": {
        "base": "t_bytes32",
        "encoding": "inplace",
        "label": "bytes32[100]",
        "numberOfBytes": "3200"
      },
      "t_bool": {
        "encoding": "inplace",
        "label": "bool",
        "numberOfBytes": "1"
      },
      "t_bytes32": {
        "encoding": "inplace",
        "label": "bytes32",
        "numberOfBytes": "32"
      },
      "t_contract(IVerifier)615": {
        "encoding": "inplace",
        "label": "contract IVerifier",
        "numberOfBytes": "20"
      },
      "t_contract(TornadoTrees)2496": {
        "encoding": "inplace",
        "label": "contract TornadoTrees",
        "numberOfBytes": "20"
      },
      "t_mapping(t_address,t_uint256)": {
        "encoding": "mapping",
        "key": "t_address",
        "label": "mapping(address => uint256)",
        "numberOfBytes": "32",
        "value": "t_uint256"
      },
      "t_mapping(t_bytes32,t_bool)": {
        "encoding": "mapping",
        "key": "t_bytes32",
        "label": "mapping(bytes32 => bool)",
        "numberOfBytes": "32",
        "value": "t_bool"
      },
      "t_uint256": {
        "encoding": "inplace",
        "label": "uint256",
        "numberOfBytes": "32"
      }
    }
  }
}