{
  "address": "0x08563a74367726A7F3641B9fFb8B4853C44D047C",
  "abi": [
    {
      "inputs": [
        {
          "internalType": "address",
          "name": "_rewardSwap",
          "type": "address"
        },
        {
          "internalType": "address",
          "name": "_governance",
          "type": "address"
        },
        {
          "internalType": "address",
          "name": "_tornadoTrees",
          "type": "address"
        },
        {
          "internalType": "address[3]",
          "name": "_verifiers",
          "type": "address[3]"
        },
        {
          "internalType": "bytes32",
          "name": "_accountRoot",
          "type": "bytes32"
        },
        {
          "components": [
            {
              "internalType": "address",
              "name": "instance",
              "type": "address"
            },
            {
              "internalType": "uint256",
              "name": "value",
              "type": "uint256"
            }
          ],
          "internalType": "struct Miner.Rate[]",
          "name": "_rates",
          "type": "tuple[]"
        }
      ],
      "stateMutability": "nonpayable",
      "type": "constructor"
    },
    {
      "anonymous": false,
      "inputs": [
        {
          "indexed": false,
          "internalType": "bytes32",
          "name": "commitment",
          "type": "bytes32"
        },
        {
          "indexed": false,
          "internalType": "bytes32",
          "name": "nullifier",
          "type": "bytes32"
        },
        {
          "indexed": false,
          "internalType": "bytes",
          "name": "encryptedAccount",
          "type": "bytes"
        },
        {
          "indexed": false,
          "internalType": "uint256",
          "name": "index",
          "type": "uint256"
        }
      ],
      "name": "NewAccount",
      "type": "event"
    },
    {
      "anonymous": false,
      "inputs": [
        {
          "indexed": false,
          "internalType": "address",
          "name": "instance",
          "type": "address"
        },
        {
          "indexed": false,
          "internalType": "uint256",
          "name": "value",
          "type": "uint256"
        }
      ],
      "name": "RateChanged",
      "type": "event"
    },
    {
      "anonymous": false,
      "inputs": [
        {
          "indexed": false,
          "internalType": "address",
          "name": "reward",
          "type": "address"
        },
        {
          "indexed": false,
          "internalType": "address",
          "name": "withdraw",
          "type": "address"
        },
        {
          "indexed": false,
          "internalType": "address",
          "name": "treeUpdate",
          "type": "address"
        }
      ],
      "name": "VerifiersUpdated",
      "type": "event"
    },
    {
      "inputs": [],
      "name": "ACCOUNT_ROOT_HISTORY_SIZE",
      "outputs": [
        {
          "internalType": "uint256",
          "name": "",
          "type": "uint256"
        }
      ],
      "stateMutability": "view",
      "type": "function"
    },
    {
      "inputs": [],
      "name": "accountCount",
      "outputs": [
        {
          "internalType": "uint256",
          "name": "",
          "type": "uint256"
        }
      ],
      "stateMutability": "view",
      "type": "function"
    },
    {
      "inputs": [
        {
          "internalType": "bytes32",
          "name": "",
          "type": "bytes32"
        }
      ],
      "name": "accountNullifiers",
      "outputs": [
        {
          "internalType": "bool",
          "name": "",
          "type": "bool"
        }
      ],
      "stateMutability": "view",
      "type": "function"
    },
    {
      "inputs": [
        {
          "internalType": "uint256",
          "name": "",
          "type": "uint256"
        }
      ],
      "name": "accountRoots",
      "outputs": [
        {
          "internalType": "bytes32",
          "name": "",
          "type": "bytes32"
        }
      ],
      "stateMutability": "view",
      "type": "function"
    },
    {
      "inputs": [
        {
          "internalType": "bytes[]",
          "name": "_rewardArgs",
          "type": "bytes[]"
        }
      ],
      "name": "batchReward",
      "outputs": [],
      "stateMutability": "nonpayable",
      "type": "function"
    },
    {
      "inputs": [],
      "name": "getLastAccountRoot",
      "outputs": [
        {
          "internalType": "bytes32",
          "name": "",
          "type": "bytes32"
        }
      ],
      "stateMutability": "view",
      "type": "function"
    },
    {
      "inputs": [],
      "name": "governance",
      "outputs": [
        {
          "internalType": "address",
          "name": "",
          "type": "address"
        }
      ],
      "stateMutability": "view",
      "type": "function"
    },
    {
      "inputs": [
        {
          "internalType": "bytes32",
          "name": "_root",
          "type": "bytes32"
        },
        {
          "internalType": "uint256",
          "name": "_index",
          "type": "uint256"
        }
      ],
      "name": "isKnownAccountRoot",
      "outputs": [
        {
          "internalType": "bool",
          "name": "",
          "type": "bool"
        }
      ],
      "stateMutability": "view",
      "type": "function"
    },
    {
      "inputs": [
        {
          "internalType": "address",
          "name": "",
          "type": "address"
        }
      ],
      "name": "rates",
      "outputs": [
        {
          "internalType": "uint256",
          "name": "",
          "type": "uint256"
        }
      ],
      "stateMutability": "view",
      "type": "function"
    },
    {
      "inputs": [
        {
          "internalType": "bytes",
          "name": "_proof",
          "type": "bytes"
        },
        {
          "components": [
            {
              "internalType": "uint256",
              "name": "rate",
              "type": "uint256"
            },
            {
              "internalType": "uint256",
              "name": "fee",
              "type": "uint256"
            },
            {
              "internalType": "address",
              "name": "instance",
              "type": "address"
            },
            {
              "internalType": "bytes32",
              "name": "rewardNullifier",
              "type": "bytes32"
            },
            {
              "internalType": "bytes32",
              "name": "extDataHash",
              "type": "bytes32"
            },
            {
              "internalType": "bytes32",
              "name": "depositRoot",
              "type": "bytes32"
            },
            {
              "internalType": "bytes32",
              "name": "withdrawalRoot",
              "type": "bytes32"
            },
            {
              "components": [
                {
                  "internalType": "address",
                  "name": "relayer",
                  "type": "address"
                },
                {
                  "internalType": "bytes",
                  "name": "encryptedAccount",
                  "type": "bytes"
                }
              ],
              "internalType": "struct Miner.RewardExtData",
              "name": "extData",
              "type": "tuple"
            },
            {
              "components": [
                {
                  "internalType": "bytes32",
                  "name": "inputRoot",
                  "type": "bytes32"
                },
                {
                  "internalType": "bytes32",
                  "name": "inputNullifierHash",
                  "type": "bytes32"
                },
                {
                  "internalType": "bytes32",
                  "name": "outputRoot",
                  "type": "bytes32"
                },
                {
                  "internalType": "uint256",
                  "name": "outputPathIndices",
                  "type": "uint256"
                },
                {
                  "internalType": "bytes32",
                  "name": "outputCommitment",
                  "type": "bytes32"
                }
              ],
              "internalType": "struct Miner.AccountUpdate",
              "name": "account",
              "type": "tuple"
            }
          ],
          "internalType": "struct Miner.RewardArgs",
          "name": "_args",
          "type": "tuple"
        },
        {
          "internalType": "bytes",
          "name": "_treeUpdateProof",
          "type": "bytes"
        },
        {
          "components": [
            {
              "internalType": "bytes32",
              "name": "oldRoot",
              "type": "bytes32"
            },
            {
              "internalType": "bytes32",
              "name": "newRoot",
              "type": "bytes32"
            },
            {
              "internalType": "bytes32",
              "name": "leaf",
              "type": "bytes32"
            },
            {
              "internalType": "uint256",
              "name": "pathIndices",
              "type": "uint256"
            }
          ],
          "internalType": "struct Miner.TreeUpdateArgs",
          "name": "_treeUpdateArgs",
          "type": "tuple"
        }
      ],
      "name": "reward",
      "outputs": [],
      "stateMutability": "nonpayable",
      "type": "function"
    },
    {
      "inputs": [
        {
          "internalType": "bytes",
          "name": "_proof",
          "type": "bytes"
        },
        {
          "components": [
            {
              "internalType": "uint256",
              "name": "rate",
              "type": "uint256"
            },
            {
              "internalType": "uint256",
              "name": "fee",
              "type": "uint256"
            },
            {
              "internalType": "address",
              "name": "instance",
              "type": "address"
            },
            {
              "internalType": "bytes32",
              "name": "rewardNullifier",
              "type": "bytes32"
            },
            {
              "internalType": "bytes32",
              "name": "extDataHash",
              "type": "bytes32"
            },
            {
              "internalType": "bytes32",
              "name": "depositRoot",
              "type": "bytes32"
            },
            {
              "internalType": "bytes32",
              "name": "withdrawalRoot",
              "type": "bytes32"
            },
            {
              "components": [
                {
                  "internalType": "address",
                  "name": "relayer",
                  "type": "address"
                },
                {
                  "internalType": "bytes",
                  "name": "encryptedAccount",
                  "type": "bytes"
                }
              ],
              "internalType": "struct Miner.RewardExtData",
              "name": "extData",
              "type": "tuple"
            },
            {
              "components": [
                {
                  "internalType": "bytes32",
                  "name": "inputRoot",
                  "type": "bytes32"
                },
                {
                  "internalType": "bytes32",
                  "name": "inputNullifierHash",
                  "type": "bytes32"
                },
                {
                  "internalType": "bytes32",
                  "name": "outputRoot",
                  "type": "bytes32"
                },
                {
                  "internalType": "uint256",
                  "name": "outputPathIndices",
                  "type": "uint256"
                },
                {
                  "internalType": "bytes32",
                  "name": "outputCommitment",
                  "type": "bytes32"
                }
              ],
              "internalType": "struct Miner.AccountUpdate",
              "name": "account",
              "type": "tuple"
            }
          ],
          "internalType": "struct Miner.RewardArgs",
          "name": "_args",
          "type": "tuple"
        }
      ],
      "name": "reward",
      "outputs": [],
      "stateMutability": "nonpayable",
      "type": "function"
    },
    {
      "inputs": [
        {
          "internalType": "bytes32",
          "name": "",
          "type": "bytes32"
        }
      ],
      "name": "rewardNullifiers",
      "outputs": [
        {
          "internalType": "bool",
          "name": "",
          "type": "bool"
        }
      ],
      "stateMutability": "view",
      "type": "function"
    },
    {
      "inputs": [],
      "name": "rewardSwap",
      "outputs": [
        {
          "internalType": "contract IRewardSwap",
          "name": "",
          "type": "address"
        }
      ],
      "stateMutability": "view",
      "type": "function"
    },
    {
      "inputs": [],
      "name": "rewardVerifier",
      "outputs": [
        {
          "internalType": "contract IVerifier",
          "name": "",
          "type": "address"
        }
      ],
      "stateMutability": "view",
      "type": "function"
    },
    {
      "inputs": [
        {
          "components": [
            {
              "internalType": "address",
              "name": "instance",
              "type": "address"
            },
            {
              "internalType": "uint256",
              "name": "value",
              "type": "uint256"
            }
          ],
          "internalType": "struct Miner.Rate[]",
          "name": "_rates",
          "type": "tuple[]"
        }
      ],
      "name": "setRates",
      "outputs": [],
      "stateMutability": "nonpayable",
      "type": "function"
    },
    {
      "inputs": [
        {
          "internalType": "contract TornadoTrees",
          "name": "_tornadoTrees",
          "type": "address"
        }
      ],
      "name": "setTornadoTreesContract",
      "outputs": [],
      "stateMutability": "nonpayable",
      "type": "function"
    },
    {
      "inputs": [
        {
          "internalType": "contract IVerifier[3]",
          "name": "_verifiers",
          "type": "address[3]"
        }
      ],
      "name": "setVerifiers",
      "outputs": [],
      "stateMutability": "nonpayable",
      "type": "function"
    },
    {
      "inputs": [],
      "name": "tornadoTrees",
      "outputs": [
        {
          "internalType": "contract TornadoTrees",
          "name": "",
          "type": "address"
        }
      ],
      "stateMutability": "view",
      "type": "function"
    },
    {
      "inputs": [],
      "name": "treeUpdateVerifier",
      "outputs": [
        {
          "internalType": "contract IVerifier",
          "name": "",
          "type": "address"
        }
      ],
      "stateMutability": "view",
      "type": "function"
    },
    {
      "inputs": [
        {
          "internalType": "bytes",
          "name": "_proof",
          "type": "bytes"
        },
        {
          "components": [
            {
              "internalType": "uint256",
              "name": "amount",
              "type": "uint256"
            },
            {
              "internalType": "bytes32",
              "name": "extDataHash",
              "type": "bytes32"
            },
            {
              "components": [
                {
                  "internalType": "uint256",
                  "name": "fee",
                  "type": "uint256"
                },
                {
                  "internalType": "address",
                  "name": "recipient",
                  "type": "address"
                },
                {
                  "internalType": "address",
                  "name": "relayer",
                  "type": "address"
                },
                {
                  "internalType": "bytes",
                  "name": "encryptedAccount",
                  "type": "bytes"
                }
              ],
              "internalType": "struct Miner.WithdrawExtData",
              "name": "extData",
              "type": "tuple"
            },
            {
              "components": [
                {
                  "internalType": "bytes32",
                  "name": "inputRoot",
                  "type": "bytes32"
                },
                {
                  "internalType": "bytes32",
                  "name": "inputNullifierHash",
                  "type": "bytes32"
                },
                {
                  "internalType": "bytes32",
                  "name": "outputRoot",
                  "type": "bytes32"
                },
                {
                  "internalType": "uint256",
                  "name": "outputPathIndices",
                  "type": "uint256"
                },
                {
                  "internalType": "bytes32",
                  "name": "outputCommitment",
                  "type": "bytes32"
                }
              ],
              "internalType": "struct Miner.AccountUpdate",
              "name": "account",
              "type": "tuple"
            }
          ],
          "internalType": "struct Miner.WithdrawArgs",
          "name": "_args",
          "type": "tuple"
        }
      ],
      "name": "withdraw",
      "outputs": [],
      "stateMutability": "nonpayable",
      "type": "function"
    },
    {
      "inputs": [
        {
          "internalType": "bytes",
          "name": "_proof",
          "type": "bytes"
        },
        {
          "components": [
            {
              "internalType": "uint256",
              "name": "amount",
              "type": "uint256"
            },
            {
              "internalType": "bytes32",
              "name": "extDataHash",
              "type": "bytes32"
            },
            {
              "components": [
                {
                  "internalType": "uint256",
                  "name": "fee",
                  "type": "uint256"
                },
                {
                  "internalType": "address",
                  "name": "recipient",
                  "type": "address"
                },
                {
                  "internalType": "address",
                  "name": "relayer",
                  "type": "address"
                },
                {
                  "internalType": "bytes",
                  "name": "encryptedAccount",
                  "type": "bytes"
                }
              ],
              "internalType": "struct Miner.WithdrawExtData",
              "name": "extData",
              "type": "tuple"
            },
            {
              "components": [
                {
                  "internalType": "bytes32",
                  "name": "inputRoot",
                  "type": "bytes32"
                },
                {
                  "internalType": "bytes32",
                  "name": "inputNullifierHash",
                  "type": "bytes32"
                },
                {
                  "internalType": "bytes32",
                  "name": "outputRoot",
                  "type": "bytes32"
                },
                {
                  "internalType": "uint256",
                  "name": "outputPathIndices",
                  "type": "uint256"
                },
                {
                  "internalType": "bytes32",
                  "name": "outputCommitment",
                  "type": "bytes32"
                }
              ],
              "internalType": "struct Miner.AccountUpdate",
              "name": "account",
              "type": "tuple"
            }
          ],
          "internalType": "struct Miner.WithdrawArgs",
          "name": "_args",
          "type": "tuple"
        },
        {
          "internalType": "bytes",
          "name": "_treeUpdateProof",
          "type": "bytes"
        },
        {
          "components": [
            {
              "internalType": "bytes32",
              "name": "oldRoot",
              "type": "bytes32"
            },
            {
              "internalType": "bytes32",
              "name": "newRoot",
              "type": "bytes32"
            },
            {
              "internalType": "bytes32",
              "name": "leaf",
              "type": "bytes32"
            },
            {
              "internalType": "uint256",
              "name": "pathIndices",
              "type": "uint256"
            }
          ],
          "internalType": "struct Miner.TreeUpdateArgs",
          "name": "_treeUpdateArgs",
          "type": "tuple"
        }
      ],
      "name": "withdraw",
      "outputs": [],
      "stateMutability": "nonpayable",
      "type": "function"
    },
    {
      "inputs": [],
      "name": "withdrawVerifier",
      "outputs": [
        {
          "internalType": "contract IVerifier",
          "name": "",
          "type": "address"
        }
      ],
      "stateMutability": "view",
      "type": "function"
    }
  ],
  "transactionHash": "0x089cf487014ad962149a1db123836cf6a6d0968a5b89c4e4754d509a40546f81",
  "args": [
    "0x8144aeF590a4aea9b26D5ccb2e696ad93A05bC67",
    "0xE356854c04927202C0188830424283ef1e34BAb0",
    "0x6c84381D436917056D81DE7b4b14287Cf9DDfC7E",
    [
      "0xFfB2B74B491901F4dada1B48608cFDb25b724DA1",
      "0x8A0F93F4c7D89F3bF44c24cdEA86439b6126308B",
      "0xC62eF95ca0f596cEE23F4E80675f20BabF009472"
    ],
    "0x29f9a0a07a22ab214d00aaa0190f54509e853f3119009baecb0035347606b0a9",
    [
      {
        "instance": "0x34317E92C6AFFF78865aC68CAE7BE415c55fA09b",
        "value": "1000"
      }
    ]
  ],
  "numDeployments": 3,
  "solcInputHash": "234b144eb250c0c6ecc69f4503e1427e",
  "bytecode": "0x60a06040523480156200001157600080fd5b506040516200245838038062002458833981016040819052620000349162000444565b600080546001600160a01b038089166001600160a01b031992831617835587811660805260048054918816919092161790558290600901556200007781620000de565b620000d26040518060600160405280856000600381106200009c576200009c62000520565b602090810291909101516001600160a01b039081168352878201518116918301919091526040808801519091169101526200024b565b5050505050506200055e565b60005b81518110156200024757600160801b82828151811062000105576200010562000520565b60200260200101516020015110620001545760405162461bcd60e51b815260206004820152600e60248201526d496e636f7272656374207261746560901b604482015260640160405180910390fd5b60008282815181106200016b576200016b62000520565b60200260200101516000015190508282815181106200018e576200018e62000520565b60200260200101516020015160076000836001600160a01b03166001600160a01b03168152602001908152602001600020819055507f14eccc240e5ba9a72e0ca955584fe1b0dca7104fce4dcb1296edbba8eea2da0481848481518110620001fa57620001fa62000520565b602002602001015160200151604051620002299291906001600160a01b03929092168252602082015260400190565b60405180910390a150806200023e8162000536565b915050620000e1565b5050565b8051600180546001600160a01b039283166001600160a01b031991821681179092556020808501516002805491861691841682179055604080870151600380549190971694168417909555845193845290830152918101919091527fcdb44c0a599b75813fe4a4593f032c7cfd38aa9e6461ba99a31aba3540b502109060600160405180910390a150565b80516001600160a01b0381168114620002ee57600080fd5b919050565b634e487b7160e01b600052604160045260246000fd5b604080519081016001600160401b03811182821017156200032e576200032e620002f3565b60405290565b604051606081016001600160401b03811182821017156200032e576200032e620002f3565b604051601f8201601f191681016001600160401b0381118282101715620003845762000384620002f3565b604052919050565b600082601f8301126200039e57600080fd5b815160206001600160401b03821115620003bc57620003bc620002f3565b620003cc818360051b0162000359565b82815260069290921b84018101918181019086841115620003ec57600080fd5b8286015b848110156200043957604081890312156200040b5760008081fd5b6200041562000309565b6200042082620002d6565b81528185015185820152835291830191604001620003f0565b509695505050505050565b60008060008060008061010087890312156200045f57600080fd5b6200046a87620002d6565b955060206200047b818901620002d6565b95506200048b60408901620002d6565b945088607f8901126200049d57600080fd5b620004a762000334565b8060c08a018b811115620004ba57600080fd5b60608b015b81811015620004e157620004d381620002d6565b8452928401928401620004bf565b505160e08b015191965094509150506001600160401b038111156200050557600080fd5b6200051389828a016200038c565b9150509295509295509295565b634e487b7160e01b600052603260045260246000fd5b6000600182016200055757634e487b7160e01b600052601160045260246000fd5b5060010190565b608051611ec96200058f60003960008181610203015281816108510152818161096f0152610db30152611ec96000f3fe608060405234801561001057600080fd5b50600436106101425760003560e01c806380bc50cc116100b8578063c2c267751161007c578063c2c26775146102df578063c6a4b053146102f2578063e2658c9c14610305578063e4af29fc14610318578063f9406cf314610321578063f945a17e1461033457600080fd5b806380bc50cc14610273578063864eb1641461028657806397f098d714610299578063a8734f0b146102ac578063b710cc7c146102cc57600080fd5b806352ef8e961161010a57806352ef8e96146101f65780635aa6e675146101fe578063637c09631461022557806366e6e60d1461023a57806377c55be51461024d5780637d9af9141461026057600080fd5b80631311b6e81461014757806334239b95146101625780633cb837fd1461019557806342a660b0146101c05780634a20de58146101e3575b600080fd5b61014f610347565b6040519081526020015b60405180910390f35b610185610170366004611418565b60066020526000908152604090205460ff1681565b6040519015158152602001610159565b6004546101a8906001600160a01b031681565b6040516001600160a01b039091168152602001610159565b6101856101ce366004611418565b60056020526000908152604090205460ff1681565b6003546101a8906001600160a01b031681565b61014f606481565b6101a87f000000000000000000000000000000000000000000000000000000000000000081565b61023861023336600461172d565b610371565b005b6000546101a8906001600160a01b031681565b61023861025b3660046117c6565b610846565b61023861026e3660046118be565b6108bf565b610238610281366004611921565b6108f8565b6002546101a8906001600160a01b031681565b6101856102a736600461197a565b61092d565b61014f6102ba36600461199c565b60076020526000908152604090205481565b6102386102da3660046119c0565b610964565b6102386102ed366004611a95565b6109b5565b61014f610300366004611418565b610d91565b61023861031336600461199c565b610da8565b61014f60085481565b6001546101a8906001600160a01b031681565b610238610342366004611af0565b610e12565b60006009606460085461035a9190611b64565b6064811061036a5761036a611b86565b0154905090565b6103818361010001518383610e79565b6004805460a085015160c086015160405163c11b968160e01b81529384019190915260248301526001600160a01b03169063c11b96819060440160006040518083038186803b1580156103d357600080fd5b505afa1580156103e7573d6000803e3d6000fd5b505050506104268360e001516040516020016104039190611be2565b60405160208183030381529060405280516020909101206001600160f81b031690565b83608001511461047d5760405162461bcd60e51b815260206004820152601c60248201527f496e636f72726563742065787465726e616c206461746120686173680000000060448201526064015b60405180910390fd5b600160f81b8360200151106104cd5760405162461bcd60e51b81526020600482015260166024820152754665652076616c7565206f7574206f662072616e676560501b6044820152606401610474565b6040808401516001600160a01b031660009081526007602052205483511480156104f75750825115155b6105395760405162461bcd60e51b8152602060048201526013602482015272496e76616c696420726577617264207261746560681b6044820152606401610474565b606083015160009081526006602052604090205460ff161561059d5760405162461bcd60e51b815260206004820152601d60248201527f52657761726420686173206265656e20616c7265616479207370656e740000006044820152606401610474565b60015460408051610180810182528551815260208087015181830152868301516001600160a01b0390811683850152606080890151818501526080808a0151818601526101008a810180515160a08089019190915281519096015160c080890191909152815189015160e0890152815190940151918701919091525101516101208501529188015161014084015290870151610160830152915163393ba7b960e11b815291909216916372774f729161065a918891600401611c17565b602060405180830381865afa158015610677573d6000803e3d6000fd5b505050506040513d601f19601f8201168201806040525081019061069b9190611c5f565b6106de5760405162461bcd60e51b815260206004820152601460248201527324b73b30b634b2103932bbb0b93210383937b7b360611b6044820152606401610474565b61010083015160209081015160009081526005825260408082208054600160ff1991821681179092556060880151845260069094529120805490921617905561074d610728610347565b610100850151511461073e578160200151610f9f565b83610100015160400151610f9f565b6020830151156107db5760005460e084015151602085015160405163d004f0f760e01b81526001600160a01b039283166004820152602481019190915291169063d004f0f7906044016020604051808303816000875af11580156107b5573d6000803e3d6000fd5b505050506040513d601f19601f820116820180604052508101906107d99190611c81565b505b7fbd4a5ca11c6f082fd6d00dc9d1dced6ab22490039bc36154bfa748bf2bf7435583610100015160800151846101000151602001518560e001516020015160016008546108289190611cb0565b6040516108389493929190611cc3565b60405180910390a150505050565b336001600160a01b037f0000000000000000000000000000000000000000000000000000000000000000161461088e5760405162461bcd60e51b815260040161047490611cf3565b6040805160608181019092526108bc9183906003908390839080828437600092019190915250610fd7915050565b50565b60408051600080825260a082018352602082018181529282018190526060820181905260808201526108f491849184916109b5565b5050565b60408051600080825260a082018352602082018181529282018190526060820181905260808201526108f49184918491610371565b6000821580159061095b5750826009610947606485611b64565b6064811061095757610957611b86565b0154145b90505b92915050565b336001600160a01b037f000000000000000000000000000000000000000000000000000000000000000016146109ac5760405162461bcd60e51b815260040161047490611cf3565b6108bc81611062565b6109c483606001518383610e79565b6109dc83604001516040516020016104039190611d3a565b836020015114610a2e5760405162461bcd60e51b815260206004820152601c60248201527f496e636f72726563742065787465726e616c20646174612068617368000000006044820152606401610474565b8251600160f81b11610a825760405162461bcd60e51b815260206004820152601960248201527f416d6f756e742076616c7565206f7574206f662072616e6765000000000000006044820152606401610474565b6002546040805160e081018252855181526020808701518183015260608088018051518486015280519092015181840152815184015160808085019190915282519091015160a08401529051015160c0820152905163598da1d160e01b81526001600160a01b039092169163598da1d191610b0291889190600401611d81565b602060405180830381865afa158015610b1f573d6000803e3d6000fd5b505050506040513d601f19601f82011682018060405250810190610b439190611c5f565b610b8f5760405162461bcd60e51b815260206004820152601860248201527f496e76616c6964207769746864726177616c2070726f6f6600000000000000006044820152606401610474565b610bbd610b9a610347565b60608501515114610baf578160200151610f9f565b836060015160400151610f9f565b6060808401516020908101516000908152600582526040808220805460ff191660011790558087015151815194850190915260218085529193610c0e9391929091611e7390830139865191906111b5565b90508015610c975760005460408581015160200151905163d004f0f760e01b81526001600160a01b0391821660048201526024810184905291169063d004f0f7906044016020604051808303816000875af1158015610c71573d6000803e3d6000fd5b505050506040513d601f19601f82011682018060405250810190610c959190611c81565b505b60408401515115610d2757600054604085810151808201519051915163d004f0f760e01b81526001600160a01b03918216600482015260248101929092529091169063d004f0f7906044016020604051808303816000875af1158015610d01573d6000803e3d6000fd5b505050506040513d601f19601f82011682018060405250810190610d259190611c81565b505b7fbd4a5ca11c6f082fd6d00dc9d1dced6ab22490039bc36154bfa748bf2bf743558460600151608001518560600151602001518660400151606001516001600854610d729190611cb0565b604051610d829493929190611cc3565b60405180910390a15050505050565b60098160648110610da157600080fd5b0154905081565b336001600160a01b037f00000000000000000000000000000000000000000000000000000000000000001614610df05760405162461bcd60e51b815260040161047490611cf3565b600480546001600160a01b0319166001600160a01b0392909216919091179055565b60005b81811015610e7457600080848484818110610e3257610e32611b86565b9050602002810190610e449190611dbe565b810190610e519190611921565b91509150610e5f82826108f8565b50508080610e6c90611e0b565b915050610e15565b505050565b60208084015160009081526005909152604090205460ff1615610ed75760405162461bcd60e51b81526020600482015260166024820152754f75746461746564206163636f756e7420737461746560501b6044820152606401610474565b610edf610347565b835114610f4a57610ef88360000151846060015161092d565b610f3b5760405162461bcd60e51b8152602060048201526014602482015273125b9d985b1a59081858d8dbdd5b9d081c9bdbdd60621b6044820152606401610474565b610e74828285608001516111e1565b600854836060015114610e745760405162461bcd60e51b815260206004820152601e60248201527f496e636f7272656374206163636f756e7420696e7365727420696e64657800006044820152606401610474565b8060096064600860008154610fb390611e0b565b9182905550610fc29190611b64565b60648110610fd257610fd2611b86565b015550565b8051600180546001600160a01b039283166001600160a01b031991821681179092556020808501516002805491861691841682179055604080870151600380549190971694168417909555845193845290830152918101919091527fcdb44c0a599b75813fe4a4593f032c7cfd38aa9e6461ba99a31aba3540b502109060600160405180910390a150565b60005b81518110156108f457600160801b82828151811061108557611085611b86565b602002602001015160200151106110cf5760405162461bcd60e51b815260206004820152600e60248201526d496e636f7272656374207261746560901b6044820152606401610474565b60008282815181106110e3576110e3611b86565b602002602001015160000151905082828151811061110357611103611b86565b60200260200101516020015160076000836001600160a01b03166001600160a01b03168152602001908152602001600020819055507f14eccc240e5ba9a72e0ca955584fe1b0dca7104fce4dcb1296edbba8eea2da048184848151811061116c5761116c611b86565b60200260200101516020015160405161119a9291906001600160a01b03929092168252602082015260400190565b60405180910390a150806111ad81611e0b565b915050611065565b600081848411156111d95760405162461bcd60e51b81526004016104749190611e24565b505050900390565b60008351116112325760405162461bcd60e51b815260206004820152601c60248201527f4f75746461746564206163636f756e74206d65726b6c6520726f6f74000000006044820152606401610474565b61123a610347565b8251146112895760405162461bcd60e51b815260206004820181905260248201527f4f75746461746564207472656520757064617465206d65726b6c6520726f6f746044820152606401610474565b808260400151146112dc5760405162461bcd60e51b815260206004820152601d60248201527f496e636f727265637420636f6d6d69746d656e7420696e7365727465640000006044820152606401610474565b6008548260600151146113315760405162461bcd60e51b815260206004820152601e60248201527f496e636f7272656374206163636f756e7420696e7365727420696e64657800006044820152606401610474565b60035460408051608081018252845181526020808601519082015284820151818301526060808601519082015290516335f8315960e11b81526001600160a01b0390921691636bf062b29161138b91879190600401611e37565b602060405180830381865afa1580156113a8573d6000803e3d6000fd5b505050506040513d601f19601f820116820180604052508101906113cc9190611c5f565b610e745760405162461bcd60e51b815260206004820152601960248201527f496e76616c69642074726565207570646174652070726f6f66000000000000006044820152606401610474565b60006020828403121561142a57600080fd5b5035919050565b634e487b7160e01b600052604160045260246000fd5b604080519081016001600160401b038111828210171561146957611469611431565b60405290565b60405161012081016001600160401b038111828210171561146957611469611431565b604051608081016001600160401b038111828210171561146957611469611431565b604051601f8201601f191681016001600160401b03811182821017156114dc576114dc611431565b604052919050565b600082601f8301126114f557600080fd5b81356001600160401b0381111561150e5761150e611431565b611521601f8201601f19166020016114b4565b81815284602083860101111561153657600080fd5b816020850160208301376000918101602001919091529392505050565b6001600160a01b03811681146108bc57600080fd5b803561157381611553565b919050565b60006040828403121561158a57600080fd5b611592611447565b9050813561159f81611553565b815260208201356001600160401b038111156115ba57600080fd5b6115c6848285016114e4565b60208301525092915050565b600060a082840312156115e457600080fd5b60405160a081018181106001600160401b038211171561160657611606611431565b806040525080915082358152602083013560208201526040830135604082015260608301356060820152608083013560808201525092915050565b60006101a0828403121561165457600080fd5b61165c61146f565b9050813581526020820135602082015261167860408301611568565b6040820152606082013560608201526080820135608082015260a082013560a082015260c082013560c082015260e08201356001600160401b038111156116be57600080fd5b6116ca84828501611578565b60e0830152506101006116df848285016115d2565b9082015292915050565b6000608082840312156116fb57600080fd5b611703611492565b90508135815260208201356020820152604082013560408201526060820135606082015292915050565b60008060008060e0858703121561174357600080fd5b84356001600160401b038082111561175a57600080fd5b611766888389016114e4565b9550602087013591508082111561177c57600080fd5b61178888838901611641565b9450604087013591508082111561179e57600080fd5b506117ab878288016114e4565b9250506117bb86606087016116e9565b905092959194509250565b6000606082840312156117d857600080fd5b826060830111156117e857600080fd5b50919050565b6000610100828403121561180157600080fd5b611809611492565b9050813581526020820135602082015260408201356001600160401b038082111561183357600080fd5b908301906080828603121561184757600080fd5b61184f611492565b82358152602083013561186181611553565b6020820152604083013561187481611553565b604082015260608301358281111561188b57600080fd5b611897878286016114e4565b6060830152508060408501525050506118b383606084016115d2565b606082015292915050565b600080604083850312156118d157600080fd5b82356001600160401b03808211156118e857600080fd5b6118f4868387016114e4565b9350602085013591508082111561190a57600080fd5b50611917858286016117ee565b9150509250929050565b6000806040838503121561193457600080fd5b82356001600160401b038082111561194b57600080fd5b611957868387016114e4565b9350602085013591508082111561196d57600080fd5b5061191785828601611641565b6000806040838503121561198d57600080fd5b50508035926020909101359150565b6000602082840312156119ae57600080fd5b81356119b981611553565b9392505050565b600060208083850312156119d357600080fd5b82356001600160401b03808211156119ea57600080fd5b818501915085601f8301126119fe57600080fd5b813581811115611a1057611a10611431565b611a1e848260051b016114b4565b818152848101925060069190911b830184019087821115611a3e57600080fd5b928401925b81841015611a8a5760408489031215611a5c5760008081fd5b611a64611447565b8435611a6f81611553565b81528486013586820152835260409093019291840191611a43565b979650505050505050565b60008060008060e08587031215611aab57600080fd5b84356001600160401b0380821115611ac257600080fd5b611ace888389016114e4565b95506020870135915080821115611ae457600080fd5b611788888389016117ee565b60008060208385031215611b0357600080fd5b82356001600160401b0380821115611b1a57600080fd5b818501915085601f830112611b2e57600080fd5b813581811115611b3d57600080fd5b8660208260051b8501011115611b5257600080fd5b60209290920196919550909350505050565b600082611b8157634e487b7160e01b600052601260045260246000fd5b500690565b634e487b7160e01b600052603260045260246000fd5b6000815180845260005b81811015611bc257602081850181015186830182015201611ba6565b506000602082860101526020601f19601f83011685010191505092915050565b602080825282516001600160a01b031682820152820151604080830152600090611c0f6060840182611b9c565b949350505050565b60006101a0808352611c2b81840186611b9c565b91505060208083018460005b600c811015611c5457815183529183019190830190600101611c37565b505050509392505050565b600060208284031215611c7157600080fd5b815180151581146119b957600080fd5b600060208284031215611c9357600080fd5b5051919050565b634e487b7160e01b600052601160045260246000fd5b8181038181111561095e5761095e611c9a565b848152836020820152608060408201526000611ce26080830185611b9c565b905082606083015295945050505050565b60208082526027908201527f4f6e6c7920676f7665726e616e63652063616e20706572666f726d20746869736040820152661030b1ba34b7b760c91b606082015260800190565b60208152815160208201526000602083015160018060a01b03808216604085015280604086015116606085015250506060830151608080840152611c0f60a0840182611b9c565b6000610100808352611d9581840186611b9c565b91505060208083018460005b6007811015611c5457815183529183019190830190600101611da1565b6000808335601e19843603018112611dd557600080fd5b8301803591506001600160401b03821115611def57600080fd5b602001915036819003821315611e0457600080fd5b9250929050565b600060018201611e1d57611e1d611c9a565b5060010190565b60208152600061095b6020830184611b9c565b60a081526000611e4a60a0830185611b9c565b905060208083018460005b6004811015611c5457815183529183019190830190600101611e5556fe416d6f756e742073686f756c642062652067726561746572207468616e20666565a26469706673582212200cba0d77399f371bb88d21157f7b2264604a77ee99181934d3e5d4300a45f33a64736f6c63430008130033",
  "devdoc": {
    "kind": "dev",
    "methods": {
      "getLastAccountRoot()": {
        "details": "Returns the last root"
      },
      "isKnownAccountRoot(bytes32,uint256)": {
        "details": "Whether the root is present in the root history"
      }
    },
    "version": 1
  },
  "userdoc": {
    "kind": "user",
    "methods": {},
    "version": 1
  },
  "storageLayout": {
    "storage": [
      {
        "astId": 10079,
        "contract": "contracts/tornado-core/Miner.sol:Miner",
        "label": "rewardSwap",
        "offset": 0,
        "slot": "0",
        "type": "t_contract(IRewardSwap)6584"
      },
      {
        "astId": 10082,
        "contract": "contracts/tornado-core/Miner.sol:Miner",
        "label": "rewardVerifier",
        "offset": 0,
        "slot": "1",
        "type": "t_contract(IVerifier)6672"
      },
      {
        "astId": 10085,
        "contract": "contracts/tornado-core/Miner.sol:Miner",
        "label": "withdrawVerifier",
        "offset": 0,
        "slot": "2",
        "type": "t_contract(IVerifier)6672"
      },
      {
        "astId": 10088,
        "contract": "contracts/tornado-core/Miner.sol:Miner",
        "label": "treeUpdateVerifier",
        "offset": 0,
        "slot": "3",
        "type": "t_contract(IVerifier)6672"
      },
      {
        "astId": 10093,
        "contract": "contracts/tornado-core/Miner.sol:Miner",
        "label": "tornadoTrees",
        "offset": 0,
        "slot": "4",
        "type": "t_contract(TornadoTrees)11811"
      },
      {
        "astId": 10097,
        "contract": "contracts/tornado-core/Miner.sol:Miner",
        "label": "accountNullifiers",
        "offset": 0,
        "slot": "5",
        "type": "t_mapping(t_bytes32,t_bool)"
      },
      {
        "astId": 10101,
        "contract": "contracts/tornado-core/Miner.sol:Miner",
        "label": "rewardNullifiers",
        "offset": 0,
        "slot": "6",
        "type": "t_mapping(t_bytes32,t_bool)"
      },
      {
        "astId": 10105,
        "contract": "contracts/tornado-core/Miner.sol:Miner",
        "label": "rates",
        "offset": 0,
        "slot": "7",
        "type": "t_mapping(t_address,t_uint256)"
      },
      {
        "astId": 10107,
        "contract": "contracts/tornado-core/Miner.sol:Miner",
        "label": "accountCount",
        "offset": 0,
        "slot": "8",
        "type": "t_uint256"
      },
      {
        "astId": 10114,
        "contract": "contracts/tornado-core/Miner.sol:Miner",
        "label": "accountRoots",
        "offset": 0,
        "slot": "9",
        "type": "t_array(t_bytes32)100_storage"
      }
    ],
    "types": {
      "t_address": {
        "encoding": "inplace",
        "label": "address",
        "numberOfBytes": "20"
      },
      "t_array(t_bytes32)100_storage": {
        "base": "t_bytes32",
        "encoding": "inplace",
        "label": "bytes32[100]",
        "numberOfBytes": "3200"
      },
      "t_bool": {
        "encoding": "inplace",
        "label": "bool",
        "numberOfBytes": "1"
      },
      "t_bytes32": {
        "encoding": "inplace",
        "label": "bytes32",
        "numberOfBytes": "32"
      },
      "t_contract(IRewardSwap)6584": {
        "encoding": "inplace",
        "label": "contract IRewardSwap",
        "numberOfBytes": "20"
      },
      "t_contract(IVerifier)6672": {
        "encoding": "inplace",
        "label": "contract IVerifier",
        "numberOfBytes": "20"
      },
      "t_contract(TornadoTrees)11811": {
        "encoding": "inplace",
        "label": "contract TornadoTrees",
        "numberOfBytes": "20"
      },
      "t_mapping(t_address,t_uint256)": {
        "encoding": "mapping",
        "key": "t_address",
        "label": "mapping(address => uint256)",
        "numberOfBytes": "32",
        "value": "t_uint256"
      },
      "t_mapping(t_bytes32,t_bool)": {
        "encoding": "mapping",
        "key": "t_bytes32",
        "label": "mapping(bytes32 => bool)",
        "numberOfBytes": "32",
        "value": "t_bool"
      },
      "t_uint256": {
        "encoding": "inplace",
        "label": "uint256",
        "numberOfBytes": "32"
      }
    }
  }
}