{
  "address": "0xc6aeb51E305a9533ce8FaE17499F0Da6AC35734A",
  "abi": [
    {
      "inputs": [
        {
          "internalType": "address",
          "name": "_relayerRegistry",
          "type": "address"
        }
      ],
      "stateMutability": "nonpayable",
      "type": "constructor"
    },
    {
      "inputs": [],
      "name": "relayerRegistry",
      "outputs": [
        {
          "internalType": "contract RelayerRegistry",
          "name": "",
          "type": "address"
        }
      ],
      "stateMutability": "view",
      "type": "function"
    },
    {
      "inputs": [
        {
          "internalType": "contract Tornado",
          "name": "_tornado",
          "type": "address"
        },
        {
          "internalType": "address",
          "name": "_relayerAddress",
          "type": "address"
        },
        {
          "internalType": "bytes",
          "name": "_proof",
          "type": "bytes"
        },
        {
          "internalType": "bytes32",
          "name": "_root",
          "type": "bytes32"
        },
        {
          "internalType": "bytes32",
          "name": "_nullifierHash",
          "type": "bytes32"
        },
        {
          "internalType": "address payable",
          "name": "_recipient",
          "type": "address"
        },
        {
          "internalType": "address payable",
          "name": "_relayer",
          "type": "address"
        },
        {
          "internalType": "uint256",
          "name": "_fee",
          "type": "uint256"
        },
        {
          "internalType": "uint256",
          "name": "_refund",
          "type": "uint256"
        }
      ],
      "name": "withdraw",
      "outputs": [],
      "stateMutability": "payable",
      "type": "function"
    }
  ],
  "transactionHash": "0xbbcca6a3d46471eee572f710b4653a7778417a943c9ad783c6584ed01060c3aa",
  "args": [
    "0xde02739Fac355584F174A9A65167C873366B8D65"
  ],
  "numDeployments": 1,
  "solcInputHash": "3e11c8d8e4560d46a454314f49b0c3b4",
  "bytecode": "0x608060405234801561001057600080fd5b5060405161040a38038061040a83398101604081905261002f91610054565b600080546001600160a01b0319166001600160a01b0392909216919091179055610084565b60006020828403121561006657600080fd5b81516001600160a01b038116811461007d57600080fd5b9392505050565b610377806100936000396000f3fe6080604052600436106100295760003560e01c806347ff589d1461002e5780637e087fac1461006a575b600080fd5b34801561003a57600080fd5b5060005461004e906001600160a01b031681565b6040516001600160a01b03909116815260200160405180910390f35b61007d6100783660046101d1565b61007f565b005b60005460405163fb04c93960e01b81526001600160a01b038b811660048301529091169063fb04c93990602401602060405180830381865afa1580156100c9573d6000803e3d6000fd5b505050506040513d601f19601f820116820180604052508101906100ed91906102b2565b61012f5760405162461bcd60e51b815260206004820152600f60248201526e24b73b30b634b2102932b630bcb2b960891b604482015260640160405180910390fd5b6040516310d056db60e11b81526001600160a01b038b16906321a0adb690349061016b908c908c908c908c908c908c908c908c906004016102db565b6000604051808303818588803b15801561018457600080fd5b505af1158015610198573d6000803e3d6000fd5b505050505050505050505050505050565b6001600160a01b03811681146101be57600080fd5b50565b80356101cc816101a9565b919050565b6000806000806000806000806000806101208b8d0312156101f157600080fd5b8a356101fc816101a9565b995060208b013561020c816101a9565b985060408b013567ffffffffffffffff8082111561022957600080fd5b818d0191508d601f83011261023d57600080fd5b81358181111561024c57600080fd5b8e602082850101111561025e57600080fd5b602083019a5080995050505060608b0135955060808b0135945061028460a08c016101c1565b935061029260c08c016101c1565b925060e08b013591506101008b013590509295989b9194979a5092959850565b6000602082840312156102c457600080fd5b815180151581146102d457600080fd5b9392505050565b60e081528760e08201526000610100898b828501376000838b0182015260208301989098525060408101959095526001600160a01b03938416606086015291909216608084015260a083019190915260c0820152601f909201601f19169091010191905056fea26469706673582212204faf8935f011129647354b73ac35d27fdd8de69f906dbc46d73c6eb139f1da5164736f6c63430008130033",
  "devdoc": {
    "kind": "dev",
    "methods": {},
    "version": 1
  },
  "userdoc": {
    "kind": "user",
    "methods": {},
    "version": 1
  },
  "storageLayout": {
    "storage": [
      {
        "astId": 5831,
        "contract": "contracts/portalgate/PGRouter.sol:PGRouter",
        "label": "relayerRegistry",
        "offset": 0,
        "slot": "0",
        "type": "t_contract(RelayerRegistry)6055"
      }
    ],
    "types": {
      "t_contract(RelayerRegistry)6055": {
        "encoding": "inplace",
        "label": "contract RelayerRegistry",
        "numberOfBytes": "20"
      }
    }
  }
}