{
  "address": "0x39517c4F6e00C6Bb292e043Cb6Db69a969bc86AE",
  "abi": [
    {
      "inputs": [
        {
          "internalType": "address",
          "name": "_tornadoTrees",
          "type": "address"
        },
        {
          "internalType": "address",
          "name": "_governance",
          "type": "address"
        },
        {
          "internalType": "address",
          "name": "_instanceRegistry",
          "type": "address"
        },
        {
          "internalType": "address",
          "name": "_relayerRegistry",
          "type": "address"
        }
      ],
      "stateMutability": "nonpayable",
      "type": "constructor"
    },
    {
      "anonymous": false,
      "inputs": [
        {
          "indexed": true,
          "internalType": "address",
          "name": "sender",
          "type": "address"
        },
        {
          "indexed": false,
          "internalType": "bytes",
          "name": "encryptedNote",
          "type": "bytes"
        }
      ],
      "name": "EncryptedNote",
      "type": "event"
    },
    {
      "anonymous": false,
      "inputs": [
        {
          "indexed": false,
          "internalType": "uint8",
          "name": "version",
          "type": "uint8"
        }
      ],
      "name": "Initialized",
      "type": "event"
    },
    {
      "anonymous": false,
      "inputs": [
        {
          "indexed": false,
          "internalType": "contract ITornadoTrees",
          "name": "addr",
          "type": "address"
        }
      ],
      "name": "TornadoTreesUpdated",
      "type": "event"
    },
    {
      "inputs": [
        {
          "internalType": "contract IERC20",
          "name": "_token",
          "type": "address"
        },
        {
          "internalType": "address",
          "name": "_spender",
          "type": "address"
        },
        {
          "internalType": "uint256",
          "name": "_amount",
          "type": "uint256"
        }
      ],
      "name": "approveExactToken",
      "outputs": [],
      "stateMutability": "nonpayable",
      "type": "function"
    },
    {
      "inputs": [
        {
          "internalType": "bytes[]",
          "name": "_encryptedNotes",
          "type": "bytes[]"
        }
      ],
      "name": "backupNotes",
      "outputs": [],
      "stateMutability": "nonpayable",
      "type": "function"
    },
    {
      "inputs": [
        {
          "internalType": "contract ITornadoInstance",
          "name": "_tornado",
          "type": "address"
        },
        {
          "internalType": "bytes32",
          "name": "_commitment",
          "type": "bytes32"
        },
        {
          "internalType": "bytes",
          "name": "_encryptedNote",
          "type": "bytes"
        },
        {
          "internalType": "address",
          "name": "sender",
          "type": "address"
        }
      ],
      "name": "deposit",
      "outputs": [],
      "stateMutability": "payable",
      "type": "function"
    },
    {
      "inputs": [],
      "name": "governance",
      "outputs": [
        {
          "internalType": "address",
          "name": "",
          "type": "address"
        }
      ],
      "stateMutability": "view",
      "type": "function"
    },
    {
      "inputs": [
        {
          "internalType": "address",
          "name": "_tornadoTrees",
          "type": "address"
        },
        {
          "internalType": "address",
          "name": "_governance",
          "type": "address"
        },
        {
          "internalType": "address",
          "name": "_instanceRegistry",
          "type": "address"
        },
        {
          "internalType": "address",
          "name": "_relayerRegistry",
          "type": "address"
        }
      ],
      "name": "initialize",
      "outputs": [],
      "stateMutability": "nonpayable",
      "type": "function"
    },
    {
      "inputs": [],
      "name": "instanceRegistry",
      "outputs": [
        {
          "internalType": "contract InstanceRegistry",
          "name": "",
          "type": "address"
        }
      ],
      "stateMutability": "view",
      "type": "function"
    },
    {
      "inputs": [],
      "name": "relayerRegistry",
      "outputs": [
        {
          "internalType": "contract RelayerRegistry",
          "name": "",
          "type": "address"
        }
      ],
      "stateMutability": "view",
      "type": "function"
    },
    {
      "inputs": [
        {
          "internalType": "contract IERC20",
          "name": "_token",
          "type": "address"
        },
        {
          "internalType": "address payable",
          "name": "_to",
          "type": "address"
        },
        {
          "internalType": "uint256",
          "name": "_amount",
          "type": "uint256"
        }
      ],
      "name": "rescueTokens",
      "outputs": [],
      "stateMutability": "nonpayable",
      "type": "function"
    },
    {
      "inputs": [
        {
          "internalType": "address",
          "name": "_govAddr",
          "type": "address"
        }
      ],
      "name": "setNewGovernance",
      "outputs": [],
      "stateMutability": "nonpayable",
      "type": "function"
    },
    {
      "inputs": [
        {
          "internalType": "contract ITornadoTrees",
          "name": "_tornadoTrees",
          "type": "address"
        }
      ],
      "name": "setTornadoTreesContract",
      "outputs": [],
      "stateMutability": "nonpayable",
      "type": "function"
    },
    {
      "inputs": [],
      "name": "tornadoTrees",
      "outputs": [
        {
          "internalType": "contract ITornadoTrees",
          "name": "",
          "type": "address"
        }
      ],
      "stateMutability": "view",
      "type": "function"
    },
    {
      "inputs": [
        {
          "internalType": "contract ITornadoInstance",
          "name": "_tornado",
          "type": "address"
        },
        {
          "internalType": "bytes",
          "name": "_proof",
          "type": "bytes"
        },
        {
          "internalType": "bytes32",
          "name": "_root",
          "type": "bytes32"
        },
        {
          "internalType": "bytes32",
          "name": "_nullifierHash",
          "type": "bytes32"
        },
        {
          "internalType": "address payable",
          "name": "_recipient",
          "type": "address"
        },
        {
          "internalType": "address payable",
          "name": "_relayer",
          "type": "address"
        },
        {
          "internalType": "uint256",
          "name": "_fee",
          "type": "uint256"
        },
        {
          "internalType": "uint256",
          "name": "_refund",
          "type": "uint256"
        }
      ],
      "name": "withdraw",
      "outputs": [],
      "stateMutability": "payable",
      "type": "function"
    }
  ],
  "transactionHash": "0x24c213f61697b3ccb5ee006a7e18e28356beafde5bd815f74da7ae899684fe4c",
  "args": [
    "0x0000000000000000000000000000000000000000",
    "0x777BEeF85E717Ab18e44cd054B1a1E33a4A93b83",
    "0x64E6Fb4D08ceDe6F71A98d351aE3538e793d1842",
    "0xdbf502EBD8606eD0677987017acb40b018520d59"
  ],
  "numDeployments": 9,
  "solcInputHash": "8beda19219579723a38f17825df12756",
  "bytecode": "0x60806040523480156200001157600080fd5b50604051620018cb380380620018cb8339810160408190526200003491620000b5565b600380546001600160a01b039586166001600160a01b03199182161790915560008054948616620100000262010000600160b01b03199095169490941790935560018054928516928416929092179091556002805491909316911617905562000112565b80516001600160a01b0381168114620000b057600080fd5b919050565b60008060008060808587031215620000cc57600080fd5b620000d78562000098565b9350620000e76020860162000098565b9250620000f76040860162000098565b9150620001076060860162000098565b905092959194509250565b6117a980620001226000396000f3fe6080604052600436106100a75760003560e01c80636485ba2a116100645780636485ba2a14610183578063b438689f146101a3578063cea9d26f146101b6578063e2658c9c146101d6578063e7d460bb146101f6578063f8c8765e1461021657600080fd5b806314e18376146100ac57806336a3874b146100c15780633cb837fd146100fd5780633ef107831461011d57806347ff589d1461013d5780635aa6e6751461015d575b600080fd5b6100bf6100ba3660046111e7565b610236565b005b3480156100cd57600080fd5b506001546100e1906001600160a01b031681565b6040516001600160a01b03909116815260200160405180910390f35b34801561010957600080fd5b506003546100e1906001600160a01b031681565b34801561012957600080fd5b506100bf6101383660046112c5565b610593565b34801561014957600080fd5b506002546100e1906001600160a01b031681565b34801561016957600080fd5b506000546100e1906201000090046001600160a01b031681565b34801561018f57600080fd5b506100bf61019e366004611306565b6105d6565b6100bf6101b136600461137b565b61064f565b3480156101c257600080fd5b506100bf6101d13660046112c5565b610908565b3480156101e257600080fd5b506100bf6101f1366004611448565b610b33565b34801561020257600080fd5b506100bf610211366004611448565b610bb7565b34801561022257600080fd5b506100bf610231366004611465565b610c11565b60015460405163032bb44360e01b81526001600160a01b038681166004830152600092839283928392169063032bb4439060240160c060405180830381865afa158015610287573d6000803e3d6000fd5b505050506040513d601f19601f820116820180604052508101906102ab91906114d1565b95505050935093509350600060028111156102c8576102c8611560565b8260028111156102da576102da611560565b0361032c5760405162461bcd60e51b815260206004820152601d60248201527f54686520696e7374616e6365206973206e6f7420737570706f7274656400000060448201526064015b60405180910390fd5b6040516370a0823160e01b81526001600160a01b0389811660048301528291908516906370a0823190602401602060405180830381865afa158015610375573d6000803e3d6000fd5b505050506040513d601f19601f820116820180604052508101906103999190611576565b106103e65760405162461bcd60e51b815260206004820152601f60248201527f457863656564206465706f7369742043617020666f722074686520706f6f6c006044820152606401610323565b83156104655761046533308a6001600160a01b0316638bca6d166040518163ffffffff1660e01b8152600401602060405180830381865afa15801561042f573d6000803e3d6000fd5b505050506040513d601f19601f820116820180604052508101906104539190611576565b6001600160a01b038716929190610d76565b60405163b214faa560e01b8152600481018890526001600160a01b0389169063b214faa59034906024016000604051808303818588803b1580156104a857600080fd5b505af11580156104bc573d6000803e3d6000fd5b50600293506104ca92505050565b8260028111156104dc576104dc611560565b036105485760035460405163c6758d6b60e01b81526001600160a01b038a81166004830152602482018a90529091169063c6758d6b90604401600060405180830381600087803b15801561052f57600080fd5b505af1158015610543573d6000803e3d6000fd5b505050505b846001600160a01b03167ffa28df43db3553771f7209dcef046f3bdfea15870ab625dcda30ac58b82b40088760405161058191906115e7565b60405180910390a25050505050505050565b6001546001600160a01b031633146105bd5760405162461bcd60e51b8152600401610323906115fa565b6105d16001600160a01b0384168383610de7565b505050565b60005b818110156105d157337ffa28df43db3553771f7209dcef046f3bdfea15870ab625dcda30ac58b82b400884848481811061061557610615611622565b90506020028101906106279190611638565b6040516106359291906116af565b60405180910390a280610647816116c3565b9150506105d9565b60015460405163032bb44360e01b81526001600160a01b038b81166004830152600092169063032bb4439060240160c060405180830381865afa15801561069a573d6000803e3d6000fd5b505050506040513d601f19601f820116820180604052508101906106be91906114d1565b50919450600093506106cf92505050565b8160028111156106e1576106e1611560565b0361072e5760405162461bcd60e51b815260206004820152601d60248201527f54686520696e7374616e6365206973206e6f7420737570706f727465640000006044820152606401610323565b846001600160a01b0316846001600160a01b0316146108085760025460405163fb04c93960e01b81526001600160a01b0386811660048301529091169063fb04c93990602401602060405180830381865afa158015610791573d6000803e3d6000fd5b505050506040513d601f19601f820116820180604052508101906107b591906116ea565b80156107c95750336001600160a01b038516145b6108085760405162461bcd60e51b815260206004820152601060248201526f24b73b30b634b2102932b630bcb2b91760811b6044820152606401610323565b6040516310d056db60e11b81526001600160a01b038b16906321a0adb6903490610844908d908d908d908d908d908d908d908d90600401611705565b6000604051808303818588803b15801561085d57600080fd5b505af1158015610871573d6000803e3d6000fd5b506002935061087f92505050565b81600281111561089157610891611560565b036108fc57600354604051620d70c960e51b81526001600160a01b038c8116600483015260248201899052909116906301ae192090604401600060405180830381600087803b1580156108e357600080fd5b505af11580156108f7573d6000803e3d6000fd5b505050505b50505050505050505050565b6000546201000090046001600160a01b031633146109385760405162461bcd60e51b8152600401610323906115fa565b6001600160a01b03821661098e5760405162461bcd60e51b815260206004820181905260248201527f50473a2063616e206e6f742073656e6420746f207a65726f20616464726573736044820152606401610323565b6001600160a01b038316610a4d574760006109a98284610efc565b90506000846001600160a01b03168260405160006040518083038185875af1925050503d80600081146109f8576040519150601f19603f3d011682016040523d82523d6000602084013e6109fd565b606091505b5050905080610a455760405162461bcd60e51b81526020600482015260146024820152732330b4b632b2103a379039b2b7321022ba3432b960611b6044820152606401610323565b505050505050565b6040516370a0823160e01b81523060048201526000906001600160a01b038516906370a0823190602401602060405180830381865afa158015610a94573d6000803e3d6000fd5b505050506040513d601f19601f82011682018060405250810190610ab89190611576565b90506000610ac68284610efc565b905060008111610b185760405162461bcd60e51b815260206004820152601c60248201527f50473a20747279696e6720746f2073656e6420302062616c616e6365000000006044820152606401610323565b610b2c6001600160a01b0386168583610f14565b5050505050565b6000546201000090046001600160a01b03163314610b635760405162461bcd60e51b8152600401610323906115fa565b600380546001600160a01b0319166001600160a01b0383169081179091556040519081527fd5ef75672982cb39cc849450302ce426d1655271003cae8a66cb533c12f86ecc9060200160405180910390a150565b6000546201000090046001600160a01b03163314610be75760405162461bcd60e51b8152600401610323906115fa565b600080546001600160a01b03909216620100000262010000600160b01b0319909216919091179055565b600054610100900460ff1615808015610c315750600054600160ff909116105b80610c4b5750303b158015610c4b575060005460ff166001145b610cae5760405162461bcd60e51b815260206004820152602e60248201527f496e697469616c697a61626c653a20636f6e747261637420697320616c72656160448201526d191e481a5b9a5d1a585b1a5e995960921b6064820152608401610323565b6000805460ff191660011790558015610cd1576000805461ff0019166101001790555b600380546001600160a01b03199081166001600160a01b03888116919091179092556000805462010000600160b01b0319166201000088851602179055600180548216868416179055600280549091169184169190911790558015610b2c576000805461ff0019169055604051600181527f7f26b83ff96e1f2b6a682f133852f6798a09c465da95921460cefb38474024989060200160405180910390a15050505050565b6040516001600160a01b0380851660248301528316604482015260648101829052610de19085906323b872dd60e01b906084015b60408051601f198184030181529190526020810180516001600160e01b03166001600160e01b031990931692909217909152610f44565b50505050565b801580610e615750604051636eb1769f60e11b81523060048201526001600160a01b03838116602483015284169063dd62ed3e90604401602060405180830381865afa158015610e3b573d6000803e3d6000fd5b505050506040513d601f19601f82011682018060405250810190610e5f9190611576565b155b610ecc5760405162461bcd60e51b815260206004820152603660248201527f5361666545524332303a20617070726f76652066726f6d206e6f6e2d7a65726f60448201527520746f206e6f6e2d7a65726f20616c6c6f77616e636560501b6064820152608401610323565b6040516001600160a01b0383166024820152604481018290526105d190849063095ea7b360e01b90606401610daa565b6000818310610f0b5781610f0d565b825b9392505050565b6040516001600160a01b0383166024820152604481018290526105d190849063a9059cbb60e01b90606401610daa565b6000610f99826040518060400160405280602081526020017f5361666545524332303a206c6f772d6c6576656c2063616c6c206661696c6564815250856001600160a01b03166110199092919063ffffffff16565b9050805160001480610fba575080806020019051810190610fba91906116ea565b6105d15760405162461bcd60e51b815260206004820152602a60248201527f5361666545524332303a204552433230206f7065726174696f6e20646964206e6044820152691bdd081cdd58d8d9595960b21b6064820152608401610323565b60606110288484600085611030565b949350505050565b6060824710156110915760405162461bcd60e51b815260206004820152602660248201527f416464726573733a20696e73756666696369656e742062616c616e636520666f6044820152651c8818d85b1b60d21b6064820152608401610323565b600080866001600160a01b031685876040516110ad9190611757565b60006040518083038185875af1925050503d80600081146110ea576040519150601f19603f3d011682016040523d82523d6000602084013e6110ef565b606091505b50915091506111008783838761110b565b979650505050505050565b6060831561117a578251600003611173576001600160a01b0385163b6111735760405162461bcd60e51b815260206004820152601d60248201527f416464726573733a2063616c6c20746f206e6f6e2d636f6e74726163740000006044820152606401610323565b5081611028565b611028838381511561118f5781518083602001fd5b8060405162461bcd60e51b815260040161032391906115e7565b6001600160a01b03811681146111be57600080fd5b50565b634e487b7160e01b600052604160045260246000fd5b80356111e2816111a9565b919050565b600080600080608085870312156111fd57600080fd5b8435611208816111a9565b935060208501359250604085013567ffffffffffffffff8082111561122c57600080fd5b818701915087601f83011261124057600080fd5b813581811115611252576112526111c1565b604051601f8201601f19908116603f0116810190838211818310171561127a5761127a6111c1565b816040528281528a602084870101111561129357600080fd5b8260208601602083013760006020848301015280965050505050506112ba606086016111d7565b905092959194509250565b6000806000606084860312156112da57600080fd5b83356112e5816111a9565b925060208401356112f5816111a9565b929592945050506040919091013590565b6000806020838503121561131957600080fd5b823567ffffffffffffffff8082111561133157600080fd5b818501915085601f83011261134557600080fd5b81358181111561135457600080fd5b8660208260051b850101111561136957600080fd5b60209290920196919550909350505050565b60008060008060008060008060006101008a8c03121561139a57600080fd5b89356113a5816111a9565b985060208a013567ffffffffffffffff808211156113c257600080fd5b818c0191508c601f8301126113d657600080fd5b8135818111156113e557600080fd5b8d60208285010111156113f757600080fd5b602083019a5080995050505060408a0135955060608a0135945061141d60808b016111d7565b935061142b60a08b016111d7565b925060c08a0135915060e08a013590509295985092959850929598565b60006020828403121561145a57600080fd5b8135610f0d816111a9565b6000806000806080858703121561147b57600080fd5b8435611486816111a9565b93506020850135611496816111a9565b925060408501356114a6816111a9565b915060608501356114b6816111a9565b939692955090935050565b805180151581146111e257600080fd5b60008060008060008060c087890312156114ea57600080fd5b6114f3876114c1565b95506020870151611503816111a9565b60408801519095506003811061151857600080fd5b606088015190945062ffffff8116811461153157600080fd5b608088015190935063ffffffff8116811461154b57600080fd5b8092505060a087015190509295509295509295565b634e487b7160e01b600052602160045260246000fd5b60006020828403121561158857600080fd5b5051919050565b60005b838110156115aa578181015183820152602001611592565b83811115610de15750506000910152565b600081518084526115d381602086016020860161158f565b601f01601f19169290920160200192915050565b602081526000610f0d60208301846115bb565b6020808252600e908201526d139bdd08185d5d1a1bdc9a5e995960921b604082015260600190565b634e487b7160e01b600052603260045260246000fd5b6000808335601e1984360301811261164f57600080fd5b83018035915067ffffffffffffffff82111561166a57600080fd5b60200191503681900382131561167f57600080fd5b9250929050565b81835281816020850137506000828201602090810191909152601f909101601f19169091010190565b602081526000611028602083018486611686565b6000600182016116e357634e487b7160e01b600052601160045260246000fd5b5060010190565b6000602082840312156116fc57600080fd5b610f0d826114c1565b60e08152600061171960e083018a8c611686565b60208301989098525060408101959095526001600160a01b03938416606086015291909216608084015260a083019190915260c09091015292915050565b6000825161176981846020870161158f565b919091019291505056fea26469706673582212209e721fff305b260434c545d31c23d67f514f64be4dfed087e1679d98833bb5b464736f6c634300080e0033",
  "devdoc": {
    "kind": "dev",
    "methods": {
      "approveExactToken(address,address,uint256)": {
        "details": "Sets `amount` allowance of `_spender` over the router's (this contract) tokens."
      },
      "deposit(address,bytes32,bytes,address)": {
        "params": {
          "_commitment": "the note commitment, which is PedersenHash(nullifier + secret)",
          "_encryptedNote": "the encrypted note",
          "_tornado": "PortralGate pool instance address",
          "sender": "the sender address (used in cases when the sender is not the caller e.g. zapper contract)"
        }
      },
      "rescueTokens(address,address,uint256)": {
        "details": "Method to claim junk and accidentally sent tokens"
      },
      "setNewGovernance(address)": {
        "params": {
          "_govAddr": "new governance address"
        }
      },
      "setTornadoTreesContract(address)": {
        "details": "Update new tornado tree instance.",
        "params": {
          "_tornadoTrees": "new tornado tree instance address"
        }
      },
      "withdraw(address,bytes,bytes32,bytes32,address,address,uint256,uint256)": {
        "params": {
          "_fee": "the token amount sent to relayer as fee",
          "_nullifierHash": "hash of unique deposit nullifier to prevent double spends",
          "_proof": "is a zkSNARK proof data, and input is an array of circuit public inputs `input` array",
          "_recipient": "the recipient address to recieve the token",
          "_refund": "the eth amount sent to recipient as gas",
          "_relayer": "the relayer address",
          "_root": "merkle root of all deposits in the contract",
          "_tornado": "TC pool instance address"
        }
      }
    },
    "version": 1
  },
  "userdoc": {
    "kind": "user",
    "methods": {
      "backupNotes(bytes[])": {
        "notice": "Manually backup encrypted notes"
      },
      "deposit(address,bytes32,bytes,address)": {
        "notice": "Deposit funds into the contract."
      },
      "initialize(address,address,address,address)": {
        "notice": "For proxy pattern"
      },
      "setNewGovernance(address)": {
        "notice": "Set new governance address."
      },
      "withdraw(address,bytes,bytes32,bytes32,address,address,uint256,uint256)": {
        "notice": "Withdraw a deposit from the contract. Relayer withdrawn should have different _relayer and _recipient addresses."
      }
    },
    "version": 1
  },
  "storageLayout": {
    "storage": [
      {
        "astId": 533,
        "contract": "contracts/portalgate/PGRouter.sol:PGRouter",
        "label": "_initialized",
        "offset": 0,
        "slot": "0",
        "type": "t_uint8"
      },
      {
        "astId": 536,
        "contract": "contracts/portalgate/PGRouter.sol:PGRouter",
        "label": "_initializing",
        "offset": 1,
        "slot": "0",
        "type": "t_bool"
      },
      {
        "astId": 22974,
        "contract": "contracts/portalgate/PGRouter.sol:PGRouter",
        "label": "governance",
        "offset": 2,
        "slot": "0",
        "type": "t_address"
      },
      {
        "astId": 22977,
        "contract": "contracts/portalgate/PGRouter.sol:PGRouter",
        "label": "instanceRegistry",
        "offset": 0,
        "slot": "1",
        "type": "t_contract(InstanceRegistry)22282"
      },
      {
        "astId": 22980,
        "contract": "contracts/portalgate/PGRouter.sol:PGRouter",
        "label": "relayerRegistry",
        "offset": 0,
        "slot": "2",
        "type": "t_contract(RelayerRegistry)23619"
      },
      {
        "astId": 22983,
        "contract": "contracts/portalgate/PGRouter.sol:PGRouter",
        "label": "tornadoTrees",
        "offset": 0,
        "slot": "3",
        "type": "t_contract(ITornadoTrees)6633"
      }
    ],
    "types": {
      "t_address": {
        "encoding": "inplace",
        "label": "address",
        "numberOfBytes": "20"
      },
      "t_bool": {
        "encoding": "inplace",
        "label": "bool",
        "numberOfBytes": "1"
      },
      "t_contract(ITornadoTrees)6633": {
        "encoding": "inplace",
        "label": "contract ITornadoTrees",
        "numberOfBytes": "20"
      },
      "t_contract(InstanceRegistry)22282": {
        "encoding": "inplace",
        "label": "contract InstanceRegistry",
        "numberOfBytes": "20"
      },
      "t_contract(RelayerRegistry)23619": {
        "encoding": "inplace",
        "label": "contract RelayerRegistry",
        "numberOfBytes": "20"
      },
      "t_uint8": {
        "encoding": "inplace",
        "label": "uint8",
        "numberOfBytes": "1"
      }
    }
  }
}