{
  "address": "0x123cb0a6dcC745dC88E6c500689a7359fbe8C42d",
  "abi": [
    {
      "inputs": [
        {
          "internalType": "address",
          "name": "_relayerRegistry",
          "type": "address"
        }
      ],
      "stateMutability": "nonpayable",
      "type": "constructor"
    },
    {
      "inputs": [],
      "name": "relayerRegistry",
      "outputs": [
        {
          "internalType": "contract IRelayerRegistry",
          "name": "",
          "type": "address"
        }
      ],
      "stateMutability": "view",
      "type": "function"
    },
    {
      "inputs": [
        {
          "internalType": "address[]",
          "name": "_relayers",
          "type": "address[]"
        }
      ],
      "name": "relayersData",
      "outputs": [
        {
          "components": [
            {
              "internalType": "uint256",
              "name": "balance",
              "type": "uint256"
            },
            {
              "internalType": "bool",
              "name": "isRegistered",
              "type": "bool"
            }
          ],
          "internalType": "struct Relayer[]",
          "name": "",
          "type": "tuple[]"
        }
      ],
      "stateMutability": "view",
      "type": "function"
    }
  ],
  "transactionHash": "0x25e45e974ef3568b69d7936cfd201553ed4c56e81d3e77bf227059e574f56ee2",
  "args": [
    "0xdbf502EBD8606eD0677987017acb40b018520d59"
  ],
  "numDeployments": 2,
  "solcInputHash": "8beda19219579723a38f17825df12756",
  "bytecode": "0x608060405234801561001057600080fd5b5060405161047238038061047283398101604081905261002f91610054565b600080546001600160a01b0319166001600160a01b0392909216919091179055610084565b60006020828403121561006657600080fd5b81516001600160a01b038116811461007d57600080fd5b9392505050565b6103df806100936000396000f3fe608060405234801561001057600080fd5b50600436106100365760003560e01c806347ff589d1461003b578063575a3ab01461006b575b600080fd5b60005461004e906001600160a01b031681565b6040516001600160a01b0390911681526020015b60405180910390f35b61007e61007936600461022d565b61008b565b60405161006291906102f2565b60606000825167ffffffffffffffff8111156100a9576100a96101fb565b6040519080825280602002602001820160405280156100ee57816020015b60408051808201909152600080825260208201528152602001906001900390816100c75790505b50905060005b83518110156101f45760005484516001600160a01b039091169063fb04c9399086908490811061012657610126610343565b60200260200101516040518263ffffffff1660e01b815260040161015991906001600160a01b0391909116815260200190565b602060405180830381865afa158015610176573d6000803e3d6000fd5b505050506040513d601f19601f8201168201806040525081019061019a9190610359565b8282815181106101ac576101ac610343565b6020026020010151602001901515908115158152505060008282815181106101d6576101d6610343565b602090810291909101015152806101ec81610382565b9150506100f4565b5092915050565b634e487b7160e01b600052604160045260246000fd5b80356001600160a01b038116811461022857600080fd5b919050565b6000602080838503121561024057600080fd5b823567ffffffffffffffff8082111561025857600080fd5b818501915085601f83011261026c57600080fd5b81358181111561027e5761027e6101fb565b8060051b604051601f19603f830116810181811085821117156102a3576102a36101fb565b6040529182528482019250838101850191888311156102c157600080fd5b938501935b828510156102e6576102d785610211565b845293850193928501926102c6565b98975050505050505050565b602080825282518282018190526000919060409081850190868401855b8281101561033657815180518552860151151586850152928401929085019060010161030f565b5091979650505050505050565b634e487b7160e01b600052603260045260246000fd5b60006020828403121561036b57600080fd5b8151801515811461037b57600080fd5b9392505050565b6000600182016103a257634e487b7160e01b600052601160045260246000fd5b506001019056fea2646970667358221220f28a9922e88f660be297bacc126881253fc3d0147ffc7e9a4e55578037f7fb5b64736f6c634300080e0033",
  "devdoc": {
    "kind": "dev",
    "methods": {},
    "version": 1
  },
  "userdoc": {
    "kind": "user",
    "methods": {},
    "version": 1
  },
  "storageLayout": {
    "storage": [
      {
        "astId": 23464,
        "contract": "contracts/portalgate/RelayerAggregator.sol:RelayerAggregator",
        "label": "relayerRegistry",
        "offset": 0,
        "slot": "0",
        "type": "t_contract(IRelayerRegistry)6564"
      }
    ],
    "types": {
      "t_contract(IRelayerRegistry)6564": {
        "encoding": "inplace",
        "label": "contract IRelayerRegistry",
        "numberOfBytes": "20"
      }
    }
  }
}