{
  "address": "0x8144aeF590a4aea9b26D5ccb2e696ad93A05bC67",
  "abi": [
    {
      "inputs": [
        {
          "internalType": "address",
          "name": "_apToken",
          "type": "address"
        },
        {
          "internalType": "address",
          "name": "_miner",
          "type": "address"
        }
      ],
      "stateMutability": "nonpayable",
      "type": "constructor"
    },
    {
      "anonymous": false,
      "inputs": [
        {
          "indexed": true,
          "internalType": "address",
          "name": "recipient",
          "type": "address"
        },
        {
          "indexed": false,
          "internalType": "uint256",
          "name": "amount",
          "type": "uint256"
        },
        {
          "indexed": false,
          "internalType": "uint256",
          "name": "tokens",
          "type": "uint256"
        }
      ],
      "name": "Swap",
      "type": "event"
    },
    {
      "inputs": [],
      "name": "apToken",
      "outputs": [
        {
          "internalType": "contract IPGAT",
          "name": "",
          "type": "address"
        }
      ],
      "stateMutability": "view",
      "type": "function"
    },
    {
      "inputs": [],
      "name": "miner",
      "outputs": [
        {
          "internalType": "address",
          "name": "",
          "type": "address"
        }
      ],
      "stateMutability": "view",
      "type": "function"
    },
    {
      "inputs": [],
      "name": "operator",
      "outputs": [
        {
          "internalType": "address",
          "name": "",
          "type": "address"
        }
      ],
      "stateMutability": "view",
      "type": "function"
    },
    {
      "inputs": [
        {
          "internalType": "address",
          "name": "_apToken",
          "type": "address"
        }
      ],
      "name": "setAPToken",
      "outputs": [],
      "stateMutability": "nonpayable",
      "type": "function"
    },
    {
      "inputs": [
        {
          "internalType": "address",
          "name": "_miner",
          "type": "address"
        }
      ],
      "name": "setMiner",
      "outputs": [],
      "stateMutability": "nonpayable",
      "type": "function"
    },
    {
      "inputs": [
        {
          "internalType": "address",
          "name": "_recipient",
          "type": "address"
        },
        {
          "internalType": "uint256",
          "name": "_amount",
          "type": "uint256"
        }
      ],
      "name": "swap",
      "outputs": [
        {
          "internalType": "uint256",
          "name": "",
          "type": "uint256"
        }
      ],
      "stateMutability": "nonpayable",
      "type": "function"
    }
  ],
  "transactionHash": "0xaf86442fbee387a2facd966e032d9cd4511c796d478c9fd18377e7fa27aecf7f",
  "args": [
    "0x0000000000000000000000000000000000000000",
    "0x0000000000000000000000000000000000000000"
  ],
  "numDeployments": 1,
  "solcInputHash": "234b144eb250c0c6ecc69f4503e1427e",
  "bytecode": "0x60a060405234801561001057600080fd5b506040516104cc3803806104cc83398101604081905261002f91610080565b600080546001600160a01b039384166001600160a01b03199182161790915560018054929093169116179055336080526100b3565b80516001600160a01b038116811461007b57600080fd5b919050565b6000806040838503121561009357600080fd5b61009c83610064565b91506100aa60208401610064565b90509250929050565b6080516103f16100db6000396000818160af0152818161012501526102cb01526103f16000f3fe608060405234801561001057600080fd5b50600436106100625760003560e01c8063349dc3291461006757806351982f5e14610097578063570ca735146100aa5780639742ca46146100d1578063d004f0f7146100e6578063eb5bd16014610107575b600080fd5b60015461007a906001600160a01b031681565b6040516001600160a01b0390911681526020015b60405180910390f35b60005461007a906001600160a01b031681565b61007a7f000000000000000000000000000000000000000000000000000000000000000081565b6100e46100df36600461036f565b61011a565b005b6100f96100f4366004610391565b6101b2565b60405190815260200161008e565b6100e461011536600461036f565b6102c0565b336001600160a01b037f000000000000000000000000000000000000000000000000000000000000000016146101905760405162461bcd60e51b815260206004820152601660248201527513db9b1e4813dc195c985d1bdc8818d85b8818d85b1b60521b60448201526064015b60405180910390fd5b600180546001600160a01b0319166001600160a01b0392909216919091179055565b6001546000906001600160a01b0316331461020f5760405162461bcd60e51b815260206004820152601c60248201527f4f6e6c79204d696e657220636f6e74726163742063616e2063616c6c000000006044820152606401610187565b6000546040516340c10f1960e01b81526001600160a01b03858116600483015260248201859052849216906340c10f1990604401600060405180830381600087803b15801561025d57600080fd5b505af1158015610271573d6000803e3d6000fd5b505060408051868152602081018590526001600160a01b03881693507f77f92a1b6a1a11de8ca49515ad4c1fad45632dd3442167d74b90b304a3c7a75892500160405180910390a29392505050565b336001600160a01b037f000000000000000000000000000000000000000000000000000000000000000016146103315760405162461bcd60e51b815260206004820152601660248201527513db9b1e4813dc195c985d1bdc8818d85b8818d85b1b60521b6044820152606401610187565b600080546001600160a01b0319166001600160a01b0392909216919091179055565b80356001600160a01b038116811461036a57600080fd5b919050565b60006020828403121561038157600080fd5b61038a82610353565b9392505050565b600080604083850312156103a457600080fd5b6103ad83610353565b94602093909301359350505056fea264697066735822122087a9df0a57ddd7edf9ba5f9ca276c08764e42dbe56861f34280ded3886b1fe4464736f6c63430008130033",
  "devdoc": {
    "kind": "dev",
    "methods": {},
    "version": 1
  },
  "userdoc": {
    "kind": "user",
    "methods": {},
    "version": 1
  },
  "storageLayout": {
    "storage": [
      {
        "astId": 11114,
        "contract": "contracts/tornado-core/RewardSwap.sol:RewardSwap",
        "label": "apToken",
        "offset": 0,
        "slot": "0",
        "type": "t_contract(IPGAT)6550"
      },
      {
        "astId": 11116,
        "contract": "contracts/tornado-core/RewardSwap.sol:RewardSwap",
        "label": "miner",
        "offset": 0,
        "slot": "1",
        "type": "t_address"
      }
    ],
    "types": {
      "t_address": {
        "encoding": "inplace",
        "label": "address",
        "numberOfBytes": "20"
      },
      "t_contract(IPGAT)6550": {
        "encoding": "inplace",
        "label": "contract IPGAT",
        "numberOfBytes": "20"
      }
    }
  }
}