{
  "address": "0x9FcC3022c40ddC54797fE9E40d88810fE8Ff465c",
  "abi": [
    {
      "inputs": [
        {
          "internalType": "bytes",
          "name": "proof",
          "type": "bytes"
        },
        {
          "internalType": "uint256[4]",
          "name": "input",
          "type": "uint256[4]"
        }
      ],
      "name": "verifyProof",
      "outputs": [
        {
          "internalType": "bool",
          "name": "",
          "type": "bool"
        }
      ],
      "stateMutability": "view",
      "type": "function"
    }
  ],
  "transactionHash": "0x48508c3aaed03daa1f2e38204c352221b92dab9a29b9ca8d3d34eac9f837c4ce",
  "args": [],
  "numDeployments": 2,
  "solcInputHash": "062683c16bee42514f7d34448b1873a2",
  "bytecode": "0x608060405234801561001057600080fd5b50610cdc806100206000396000f3fe608060405234801561001057600080fd5b506004361061002b5760003560e01c80636bf062b214610030575b600080fd5b610102600480360360a081101561004657600080fd5b81019060208101813564010000000081111561006157600080fd5b82018360208201111561007357600080fd5b8035906020019184600183028401116401000000008311171561009557600080fd5b91908080601f0160208091040260200160405190810160405280939291908181526020018383808284376000920191909152505060408051608081810190925293969594818101949350915060049083908390808284376000920191909152509194506101169350505050565b604080519115158252519081900360200190f35b6000610120610af6565b8380602001905161010081101561013657600080fd5b50905060005b60088160ff1610156101c1577f30644e72e131a029b85045b68181585d97816a916871ca8d3c208c16d87cfd47828260ff166008811061017857fe5b6020020151106101b95760405162461bcd60e51b8152600401808060200182810382526022815260200180610c856022913960400191505060405180910390fd5b60010161013c565b506101ca610b15565b506040805180820190915281518152602080830151908201526101eb610b2f565b506040805160808082018352848301518284019081526060808701519084015282528251808401909352840151825260a0840151602080840191909152810191909152610236610b15565b506040805180820190915260c0840151815260e0840151602082015261025a610b54565b610262610367565b905061026c610b15565b5060808101515160005b6004811015610331577f30644e72e131a029b85045b68181585d2833e84879b9709143e1f593f00000018982600481106102ac57fe5b6020020151106102ed5760405162461bcd60e51b8152600401808060200182810382526025815260200180610c606025913960400191505060405180910390fd5b610327826103228560800151846001016005811061030757fe5b60200201518c856004811061031857fe5b6020020151610788565b61082d565b9150600101610276565b5061035a61033e866108d1565b8584600001518560200151858760400151898960600151610978565b9998505050505050505050565b61036f610b54565b6040805180820182527f14faf245be4c5bed94955cd45309462a877ea31091098649837bf30a559ffc8a81527f2b9392b2e40443189b0ce84ff7ddebfa1507e60dcd17badd37cf42d6a4a3b2406020808301919091529083528151608080820184527f1f323825b0b9d9fc07d091d99411903c8d3e77cd102cfc4779cf4460f03de02c8285019081527f2fb924eb98a898b2ab339d49d224bc492aa76934e966862e81d968d93c4d3f4a606080850191909152908352845180860186527f070378962f254dbf8ff0c70899fbd80d490dbd322d74956a1f2af8cb4ddeb06281527f1b3edb3af597fa1a32b01b1da79b01b0013c979e1d56cec45cdfe51421227bef818601528385015285840192909252835180820185527f2a3fb88f2e69e84fc6ba7bfc0a78076e76274732b6c9fc1e42f56e7903068d018186019081527f2fcefee1220c747332e2a2375937f0e586bae24b240c874667085089e923b8ed828501528152845180860186527f2fd3fa7b3eb6098555577fb1b17545c890d94f416a1a64de80e9fe044bfde60681527f01122a71715c590587d4c91c32cc340ed904f67db37f5ef1fa0de049c1131524818601528185015285850152835180820185527f18ef3881fac18b59371001a6b42f97e84c5d7f2debcde2ae74fc435ede63258a8186019081527f0e7193f85d7d6439049ebfe6783cb16c17f556d622b0468127af198222ca7db5828501528152845180860186527f2ac43f28c6c381eab1e652044794965b7bbc4b4ee26081f43009d493898d506581527f2657ee7ece5067a38ba8a5062ea5fe1fff7c3e85542500d9a55305c1c81d03e2818601528185015282860152835180850185527f202ff87b1d07aedd231cbf0eaf7ef79ff959668401cc924266551e7b2f8e4fc481527f0f9ae8036285c6c0e2731f1ed70d0c4cf19490b2465c87f2d91a5e7a185cec1a81850152818601805191909152845180860186527f0c442e6c220549f6f7a381e749a953740236d53f53b2c20dfea711fedad9f29481527f1d7de9f4bcc45d602819e5f88c927964d47479c46cee39c2e18195a07a22e512818601528151850152845180860186527f0cecf6164de556269ad1136b296149266ac1e3aaee7b2167b93ec59319213b4781527f0f5bc6fd2b32b2754a50006001fbe0072c2c8e7fe10e0587c9d2dd6b221e7d12818601528151860152845180860186527f1d0c8b3bccddf8760fa8583a26b38367c249ae9ce9679ae1144c33bc3960d94681527f246a1a98bceaa00c314f7e68ec1de05e214fb2c10409a9bb9122a91959db6ca18186015281519093019290925283518085019094527f10e892e5b5981ea4cfe4a252aa2bce8f6def979daa8d0118d323f544f637698284527f0655423d8bd9fc1685ae9cc114b88a46795b3bd4a9ff6662ad44255aff8f6e4e9284019290925251015290565b610790610b15565b610798610b9b565b60405180606001604052808560000151815260200185602001518152602001848152509050600060608360808460076107d05a03fa90508080156107db576107dd565bfe5b5080610825576040805162461bcd60e51b81526020600482015260126024820152711c185a5c9a5b99cb5b5d5b0b59985a5b195960721b604482015290519081900360640190fd5b505092915050565b610835610b15565b61083d610bb9565b604051806080016040528085600001518152602001856020015181526020018460000151815260200184602001518152509050600060608360c08460066107d05a03fa90508080156107db575080610825576040805162461bcd60e51b81526020600482015260126024820152711c185a5c9a5b99cb5859190b59985a5b195960721b604482015290519081900360640190fd5b6108d9610b15565b81511580156108ea57506020820151155b1561090957506040805180820190915260008082526020820152610973565b6040518060400160405280836000015181526020017f30644e72e131a029b85045b68181585d97816a916871ca8d3c208c16d87cfd4784602001518161094b57fe5b067f30644e72e131a029b85045b68181585d97816a916871ca8d3c208c16d87cfd4703905290505b919050565b6000610982610bd7565b5060408051610300810182528a5181526020808c0151818301528a5151928201929092528951820151606082015289820180515160808301525182015160a0820152885160c08201528882015160e08201528751516101008201528751820151610120820152878201805151610140830152518201516101608201528651610180820152868201516101a08201528551516101c082015285518201516101e08201528582018051516102008301525182015161022082015284516102408201528482015161026082015283515161028082015283518201516102a08201528382018051516102c083015251909101516102e0820152610a7f610bf6565b60006020826103008560086107d05a03fa90508080156107db575080610ae4576040805162461bcd60e51b81526020600482015260156024820152741c185a5c9a5b99cb5bdc18dbd9194b59985a5b1959605a1b604482015290519081900360640190fd5b505115159a9950505050505050505050565b6040518061010001604052806008906020820280368337509192915050565b604051806040016040528060008152602001600081525090565b6040518060400160405280610b42610c14565b8152602001610b4f610c14565b905290565b6040518060a00160405280610b67610b15565b8152602001610b74610b2f565b8152602001610b81610b2f565b8152602001610b8e610b2f565b8152602001610b4f610c32565b60405180606001604052806003906020820280368337509192915050565b60405180608001604052806004906020820280368337509192915050565b6040518061030001604052806018906020820280368337509192915050565b60405180602001604052806001906020820280368337509192915050565b60405180604001604052806002906020820280368337509192915050565b6040518060a001604052806005905b610c49610b15565b815260200190600190039081610c41579050509056fe76657269666965722d696e7075742d6774652d736e61726b2d7363616c61722d6669656c6476657269666965722d70726f6f662d656c656d656e742d6774652d7072696d652d71a264697066735822122051d36a2488a65cfde1f4c47ec5f28fd99dc879430864b4e86a44c6d95e092d1364736f6c634300060c0033",
  "devdoc": {
    "kind": "dev",
    "methods": {},
    "version": 1
  },
  "userdoc": {
    "kind": "user",
    "methods": {},
    "version": 1
  },
  "storageLayout": {
    "storage": [],
    "types": null
  }
}