{
  "address": "0xE86150332225b3674f7fa851d0E1C71FA8F7df12",
  "abi": [
    {
      "inputs": [
        {
          "components": [
            {
              "internalType": "address",
              "name": "trustedForwarder",
              "type": "address"
            },
            {
              "internalType": "address",
              "name": "collateralToken",
              "type": "address"
            },
            {
              "internalType": "address",
              "name": "keyringCredentials",
              "type": "address"
            },
            {
              "internalType": "address",
              "name": "policyManager",
              "type": "address"
            },
            {
              "internalType": "address",
              "name": "userPolicies",
              "type": "address"
            },
            {
              "internalType": "address",
              "name": "exemptionsManager",
              "type": "address"
            }
          ],
          "internalType": "struct IKeyringGuard.KeyringConfig",
          "name": "config",
          "type": "tuple"
        },
        {
          "internalType": "uint32",
          "name": "policyId_",
          "type": "uint32"
        },
        {
          "internalType": "uint32",
          "name": "maximumConsentPeriod_",
          "type": "uint32"
        },
        {
          "internalType": "string",
          "name": "name_",
          "type": "string"
        },
        {
          "internalType": "string",
          "name": "symbol_",
          "type": "string"
        }
      ],
      "stateMutability": "nonpayable",
      "type": "constructor"
    },
    {
      "inputs": [],
      "name": "InvalidShortString",
      "type": "error"
    },
    {
      "inputs": [
        {
          "internalType": "string",
          "name": "str",
          "type": "string"
        }
      ],
      "name": "StringTooLong",
      "type": "error"
    },
    {
      "inputs": [
        {
          "internalType": "string",
          "name": "reason",
          "type": "string"
        }
      ],
      "name": "Unacceptable",
      "type": "error"
    },
    {
      "inputs": [
        {
          "internalType": "address",
          "name": "sender",
          "type": "address"
        },
        {
          "internalType": "string",
          "name": "module",
          "type": "string"
        },
        {
          "internalType": "string",
          "name": "method",
          "type": "string"
        },
        {
          "internalType": "bytes32",
          "name": "role",
          "type": "bytes32"
        },
        {
          "internalType": "string",
          "name": "reason",
          "type": "string"
        },
        {
          "internalType": "string",
          "name": "context",
          "type": "string"
        }
      ],
      "name": "Unauthorized",
      "type": "error"
    },
    {
      "anonymous": false,
      "inputs": [
        {
          "indexed": true,
          "internalType": "address",
          "name": "owner",
          "type": "address"
        },
        {
          "indexed": true,
          "internalType": "address",
          "name": "spender",
          "type": "address"
        },
        {
          "indexed": false,
          "internalType": "uint256",
          "name": "value",
          "type": "uint256"
        }
      ],
      "name": "Approval",
      "type": "event"
    },
    {
      "anonymous": false,
      "inputs": [],
      "name": "EIP712DomainChanged",
      "type": "event"
    },
    {
      "anonymous": false,
      "inputs": [
        {
          "indexed": true,
          "internalType": "address",
          "name": "user",
          "type": "address"
        },
        {
          "indexed": false,
          "internalType": "uint256",
          "name": "revocationDeadline",
          "type": "uint256"
        }
      ],
      "name": "GrantDegradedServiceConsent",
      "type": "event"
    },
    {
      "anonymous": false,
      "inputs": [
        {
          "indexed": false,
          "internalType": "address",
          "name": "keyringCredentials",
          "type": "address"
        },
        {
          "indexed": false,
          "internalType": "address",
          "name": "policyManager",
          "type": "address"
        },
        {
          "indexed": false,
          "internalType": "address",
          "name": "userPolicies",
          "type": "address"
        },
        {
          "indexed": false,
          "internalType": "uint32",
          "name": "admissionPolicyId",
          "type": "uint32"
        },
        {
          "indexed": false,
          "internalType": "bytes32",
          "name": "universeRule",
          "type": "bytes32"
        },
        {
          "indexed": false,
          "internalType": "bytes32",
          "name": "emptyRule",
          "type": "bytes32"
        }
      ],
      "name": "KeyringGuardConfigured",
      "type": "event"
    },
    {
      "anonymous": false,
      "inputs": [
        {
          "indexed": true,
          "internalType": "address",
          "name": "user",
          "type": "address"
        }
      ],
      "name": "RevokeDegradedServiceConsent",
      "type": "event"
    },
    {
      "anonymous": false,
      "inputs": [
        {
          "indexed": true,
          "internalType": "bytes32",
          "name": "role",
          "type": "bytes32"
        },
        {
          "indexed": true,
          "internalType": "bytes32",
          "name": "previousAdminRole",
          "type": "bytes32"
        },
        {
          "indexed": true,
          "internalType": "bytes32",
          "name": "newAdminRole",
          "type": "bytes32"
        }
      ],
      "name": "RoleAdminChanged",
      "type": "event"
    },
    {
      "anonymous": false,
      "inputs": [
        {
          "indexed": true,
          "internalType": "bytes32",
          "name": "role",
          "type": "bytes32"
        },
        {
          "indexed": true,
          "internalType": "address",
          "name": "account",
          "type": "address"
        },
        {
          "indexed": true,
          "internalType": "address",
          "name": "sender",
          "type": "address"
        }
      ],
      "name": "RoleGranted",
      "type": "event"
    },
    {
      "anonymous": false,
      "inputs": [
        {
          "indexed": true,
          "internalType": "bytes32",
          "name": "role",
          "type": "bytes32"
        },
        {
          "indexed": true,
          "internalType": "address",
          "name": "account",
          "type": "address"
        },
        {
          "indexed": true,
          "internalType": "address",
          "name": "sender",
          "type": "address"
        }
      ],
      "name": "RoleRevoked",
      "type": "event"
    },
    {
      "anonymous": false,
      "inputs": [
        {
          "indexed": true,
          "internalType": "address",
          "name": "from",
          "type": "address"
        },
        {
          "indexed": true,
          "internalType": "address",
          "name": "to",
          "type": "address"
        },
        {
          "indexed": false,
          "internalType": "uint256",
          "name": "value",
          "type": "uint256"
        }
      ],
      "name": "Transfer",
      "type": "event"
    },
    {
      "inputs": [],
      "name": "DEFAULT_ADMIN_ROLE",
      "outputs": [
        {
          "internalType": "bytes32",
          "name": "",
          "type": "bytes32"
        }
      ],
      "stateMutability": "view",
      "type": "function"
    },
    {
      "inputs": [],
      "name": "DOMAIN_SEPARATOR",
      "outputs": [
        {
          "internalType": "bytes32",
          "name": "",
          "type": "bytes32"
        }
      ],
      "stateMutability": "view",
      "type": "function"
    },
    {
      "inputs": [],
      "name": "admissionPolicyId",
      "outputs": [
        {
          "internalType": "uint32",
          "name": "",
          "type": "uint32"
        }
      ],
      "stateMutability": "view",
      "type": "function"
    },
    {
      "inputs": [
        {
          "internalType": "address",
          "name": "owner",
          "type": "address"
        },
        {
          "internalType": "address",
          "name": "spender",
          "type": "address"
        }
      ],
      "name": "allowance",
      "outputs": [
        {
          "internalType": "uint256",
          "name": "",
          "type": "uint256"
        }
      ],
      "stateMutability": "view",
      "type": "function"
    },
    {
      "inputs": [
        {
          "internalType": "address",
          "name": "spender",
          "type": "address"
        },
        {
          "internalType": "uint256",
          "name": "amount",
          "type": "uint256"
        }
      ],
      "name": "approve",
      "outputs": [
        {
          "internalType": "bool",
          "name": "",
          "type": "bool"
        }
      ],
      "stateMutability": "nonpayable",
      "type": "function"
    },
    {
      "inputs": [
        {
          "internalType": "address",
          "name": "account",
          "type": "address"
        }
      ],
      "name": "balanceOf",
      "outputs": [
        {
          "internalType": "uint256",
          "name": "",
          "type": "uint256"
        }
      ],
      "stateMutability": "view",
      "type": "function"
    },
    {
      "inputs": [
        {
          "internalType": "address",
          "name": "observer",
          "type": "address"
        },
        {
          "internalType": "address",
          "name": "subject",
          "type": "address"
        }
      ],
      "name": "checkTraderWallet",
      "outputs": [
        {
          "internalType": "bool",
          "name": "passed",
          "type": "bool"
        }
      ],
      "stateMutability": "nonpayable",
      "type": "function"
    },
    {
      "inputs": [
        {
          "internalType": "address",
          "name": "observer",
          "type": "address"
        },
        {
          "internalType": "address",
          "name": "subject",
          "type": "address"
        }
      ],
      "name": "checkZKPIICache",
      "outputs": [
        {
          "internalType": "bool",
          "name": "passed",
          "type": "bool"
        }
      ],
      "stateMutability": "nonpayable",
      "type": "function"
    },
    {
      "inputs": [],
      "name": "decimals",
      "outputs": [
        {
          "internalType": "uint8",
          "name": "",
          "type": "uint8"
        }
      ],
      "stateMutability": "view",
      "type": "function"
    },
    {
      "inputs": [
        {
          "internalType": "address",
          "name": "spender",
          "type": "address"
        },
        {
          "internalType": "uint256",
          "name": "subtractedValue",
          "type": "uint256"
        }
      ],
      "name": "decreaseAllowance",
      "outputs": [
        {
          "internalType": "bool",
          "name": "",
          "type": "bool"
        }
      ],
      "stateMutability": "nonpayable",
      "type": "function"
    },
    {
      "inputs": [
        {
          "internalType": "address",
          "name": "trader",
          "type": "address"
        },
        {
          "internalType": "uint256",
          "name": "amount",
          "type": "uint256"
        }
      ],
      "name": "depositFor",
      "outputs": [
        {
          "internalType": "bool",
          "name": "",
          "type": "bool"
        }
      ],
      "stateMutability": "nonpayable",
      "type": "function"
    },
    {
      "inputs": [],
      "name": "eip712Domain",
      "outputs": [
        {
          "internalType": "bytes1",
          "name": "fields",
          "type": "bytes1"
        },
        {
          "internalType": "string",
          "name": "name",
          "type": "string"
        },
        {
          "internalType": "string",
          "name": "version",
          "type": "string"
        },
        {
          "internalType": "uint256",
          "name": "chainId",
          "type": "uint256"
        },
        {
          "internalType": "address",
          "name": "verifyingContract",
          "type": "address"
        },
        {
          "internalType": "bytes32",
          "name": "salt",
          "type": "bytes32"
        },
        {
          "internalType": "uint256[]",
          "name": "extensions",
          "type": "uint256[]"
        }
      ],
      "stateMutability": "view",
      "type": "function"
    },
    {
      "inputs": [],
      "name": "emptyRule",
      "outputs": [
        {
          "internalType": "bytes32",
          "name": "",
          "type": "bytes32"
        }
      ],
      "stateMutability": "view",
      "type": "function"
    },
    {
      "inputs": [],
      "name": "exemptionsManager",
      "outputs": [
        {
          "internalType": "address",
          "name": "",
          "type": "address"
        }
      ],
      "stateMutability": "view",
      "type": "function"
    },
    {
      "inputs": [
        {
          "internalType": "bytes32",
          "name": "role",
          "type": "bytes32"
        }
      ],
      "name": "getRoleAdmin",
      "outputs": [
        {
          "internalType": "bytes32",
          "name": "",
          "type": "bytes32"
        }
      ],
      "stateMutability": "view",
      "type": "function"
    },
    {
      "inputs": [
        {
          "internalType": "uint256",
          "name": "revocationDeadline",
          "type": "uint256"
        }
      ],
      "name": "grantDegradedServiceConsent",
      "outputs": [],
      "stateMutability": "nonpayable",
      "type": "function"
    },
    {
      "inputs": [
        {
          "internalType": "bytes32",
          "name": "role",
          "type": "bytes32"
        },
        {
          "internalType": "address",
          "name": "account",
          "type": "address"
        }
      ],
      "name": "grantRole",
      "outputs": [],
      "stateMutability": "nonpayable",
      "type": "function"
    },
    {
      "inputs": [
        {
          "internalType": "bytes32",
          "name": "role",
          "type": "bytes32"
        },
        {
          "internalType": "address",
          "name": "account",
          "type": "address"
        }
      ],
      "name": "hasRole",
      "outputs": [
        {
          "internalType": "bool",
          "name": "",
          "type": "bool"
        }
      ],
      "stateMutability": "view",
      "type": "function"
    },
    {
      "inputs": [
        {
          "internalType": "address",
          "name": "spender",
          "type": "address"
        },
        {
          "internalType": "uint256",
          "name": "addedValue",
          "type": "uint256"
        }
      ],
      "name": "increaseAllowance",
      "outputs": [
        {
          "internalType": "bool",
          "name": "",
          "type": "bool"
        }
      ],
      "stateMutability": "nonpayable",
      "type": "function"
    },
    {
      "inputs": [
        {
          "internalType": "address",
          "name": "from",
          "type": "address"
        },
        {
          "internalType": "address",
          "name": "to",
          "type": "address"
        }
      ],
      "name": "isAuthorized",
      "outputs": [
        {
          "internalType": "bool",
          "name": "passed",
          "type": "bool"
        }
      ],
      "stateMutability": "nonpayable",
      "type": "function"
    },
    {
      "inputs": [
        {
          "internalType": "address",
          "name": "forwarder",
          "type": "address"
        }
      ],
      "name": "isTrustedForwarder",
      "outputs": [
        {
          "internalType": "bool",
          "name": "",
          "type": "bool"
        }
      ],
      "stateMutability": "view",
      "type": "function"
    },
    {
      "inputs": [],
      "name": "keyringCredentials",
      "outputs": [
        {
          "internalType": "address",
          "name": "",
          "type": "address"
        }
      ],
      "stateMutability": "view",
      "type": "function"
    },
    {
      "inputs": [],
      "name": "maximumConsentPeriod",
      "outputs": [
        {
          "internalType": "uint256",
          "name": "",
          "type": "uint256"
        }
      ],
      "stateMutability": "view",
      "type": "function"
    },
    {
      "inputs": [],
      "name": "name",
      "outputs": [
        {
          "internalType": "string",
          "name": "",
          "type": "string"
        }
      ],
      "stateMutability": "view",
      "type": "function"
    },
    {
      "inputs": [
        {
          "internalType": "address",
          "name": "owner",
          "type": "address"
        }
      ],
      "name": "nonces",
      "outputs": [
        {
          "internalType": "uint256",
          "name": "",
          "type": "uint256"
        }
      ],
      "stateMutability": "view",
      "type": "function"
    },
    {
      "inputs": [
        {
          "internalType": "address",
          "name": "owner",
          "type": "address"
        },
        {
          "internalType": "address",
          "name": "spender",
          "type": "address"
        },
        {
          "internalType": "uint256",
          "name": "value",
          "type": "uint256"
        },
        {
          "internalType": "uint256",
          "name": "deadline",
          "type": "uint256"
        },
        {
          "internalType": "uint8",
          "name": "v",
          "type": "uint8"
        },
        {
          "internalType": "bytes32",
          "name": "r",
          "type": "bytes32"
        },
        {
          "internalType": "bytes32",
          "name": "s",
          "type": "bytes32"
        }
      ],
      "name": "permit",
      "outputs": [],
      "stateMutability": "nonpayable",
      "type": "function"
    },
    {
      "inputs": [],
      "name": "policyManager",
      "outputs": [
        {
          "internalType": "address",
          "name": "",
          "type": "address"
        }
      ],
      "stateMutability": "view",
      "type": "function"
    },
    {
      "inputs": [
        {
          "internalType": "bytes32",
          "name": "role",
          "type": "bytes32"
        },
        {
          "internalType": "address",
          "name": "account",
          "type": "address"
        }
      ],
      "name": "renounceRole",
      "outputs": [],
      "stateMutability": "nonpayable",
      "type": "function"
    },
    {
      "inputs": [],
      "name": "revokeMitigationConsent",
      "outputs": [],
      "stateMutability": "nonpayable",
      "type": "function"
    },
    {
      "inputs": [
        {
          "internalType": "bytes32",
          "name": "role",
          "type": "bytes32"
        },
        {
          "internalType": "address",
          "name": "account",
          "type": "address"
        }
      ],
      "name": "revokeRole",
      "outputs": [],
      "stateMutability": "nonpayable",
      "type": "function"
    },
    {
      "inputs": [
        {
          "internalType": "bytes4",
          "name": "",
          "type": "bytes4"
        }
      ],
      "name": "supportsInterface",
      "outputs": [
        {
          "internalType": "bool",
          "name": "",
          "type": "bool"
        }
      ],
      "stateMutability": "view",
      "type": "function"
    },
    {
      "inputs": [],
      "name": "symbol",
      "outputs": [
        {
          "internalType": "string",
          "name": "",
          "type": "string"
        }
      ],
      "stateMutability": "view",
      "type": "function"
    },
    {
      "inputs": [],
      "name": "totalSupply",
      "outputs": [
        {
          "internalType": "uint256",
          "name": "",
          "type": "uint256"
        }
      ],
      "stateMutability": "view",
      "type": "function"
    },
    {
      "inputs": [
        {
          "internalType": "address",
          "name": "to",
          "type": "address"
        },
        {
          "internalType": "uint256",
          "name": "amount",
          "type": "uint256"
        }
      ],
      "name": "transfer",
      "outputs": [
        {
          "internalType": "bool",
          "name": "",
          "type": "bool"
        }
      ],
      "stateMutability": "nonpayable",
      "type": "function"
    },
    {
      "inputs": [
        {
          "internalType": "address",
          "name": "from",
          "type": "address"
        },
        {
          "internalType": "address",
          "name": "to",
          "type": "address"
        },
        {
          "internalType": "uint256",
          "name": "amount",
          "type": "uint256"
        }
      ],
      "name": "transferFrom",
      "outputs": [
        {
          "internalType": "bool",
          "name": "",
          "type": "bool"
        }
      ],
      "stateMutability": "nonpayable",
      "type": "function"
    },
    {
      "inputs": [],
      "name": "underlying",
      "outputs": [
        {
          "internalType": "contract IERC20",
          "name": "",
          "type": "address"
        }
      ],
      "stateMutability": "view",
      "type": "function"
    },
    {
      "inputs": [],
      "name": "universeRule",
      "outputs": [
        {
          "internalType": "bytes32",
          "name": "",
          "type": "bytes32"
        }
      ],
      "stateMutability": "view",
      "type": "function"
    },
    {
      "inputs": [
        {
          "internalType": "address",
          "name": "",
          "type": "address"
        }
      ],
      "name": "userConsentDeadlines",
      "outputs": [
        {
          "internalType": "uint256",
          "name": "",
          "type": "uint256"
        }
      ],
      "stateMutability": "view",
      "type": "function"
    },
    {
      "inputs": [
        {
          "internalType": "address",
          "name": "user",
          "type": "address"
        }
      ],
      "name": "userConsentsToMitigation",
      "outputs": [
        {
          "internalType": "bool",
          "name": "doesIndeed",
          "type": "bool"
        }
      ],
      "stateMutability": "view",
      "type": "function"
    },
    {
      "inputs": [],
      "name": "userPolicies",
      "outputs": [
        {
          "internalType": "address",
          "name": "",
          "type": "address"
        }
      ],
      "stateMutability": "view",
      "type": "function"
    },
    {
      "inputs": [
        {
          "internalType": "address",
          "name": "trader",
          "type": "address"
        },
        {
          "internalType": "uint256",
          "name": "amount",
          "type": "uint256"
        }
      ],
      "name": "withdrawTo",
      "outputs": [
        {
          "internalType": "bool",
          "name": "",
          "type": "bool"
        }
      ],
      "stateMutability": "nonpayable",
      "type": "function"
    }
  ],
  "transactionHash": "0xbe4f3925ecfed79f2c645a859a5da80b9379a3fbf8f79e6ccdd53ab56555eba2",
  "args": [
    {
      "trustedForwarder": "0x161e8A42FaEC8f2c254B8444F9fa771d79AA3D27",
      "keyringCredentials": "0x22F4f112179CD6cca7152BBA306F775c74e068D4",
      "policyManager": "0x4C5775343d4a9f0eB3A4777ed340A3bf73c0abC9",
      "userPolicies": "0x8cE1fd061C1D50466111df622077925C5e62BaeE",
      "exemptionsManager": "0x5D8ABdFA37eb4716374C139279cc9b5116bc4e2D",
      "collateralToken": "0x2f3A40A3db8a7e3D09B0adfEfbCe4f6F81927557"
    },
    3,
    10368000,
    "USDCKyc",
    "USDCKyc"
  ],
  "numDeployments": 2,
  "solcInputHash": "f0c8e66b1ada43cd43b78a5d8620dc61",
  "bytecode": "0x6102a06040523480156200001257600080fd5b5060405162003e8138038062003e81833981016040819052620000359162000bd6565b84848482600001518163ffffffff1681808b602001518980604051806040016040528060018152602001603160f81b8152508c8c816003908051906020019062000081929190620009f9565b50805162000097906004906020840190620009f9565b505050620000b56005836200095f60201b620016931790919060201c565b61012052620000d28160066200095f602090811b6200169317901c565b61014052815160208084019190912060e052815190820120610100524660a0526200016060e05161010051604080517f8b73c3c69bb8fe3d512ecc4cf759cc79239f7b179b0ffacaa9a75d522b39400f60208201529081019290925260608201524660808201523060a082015260009060c00160405160208183030381529060405280519060200120905090565b60805250503060c08190526001600160a01b038316039050620001ca5760405162461bcd60e51b815260206004820152601e60248201527f4552433230577261707065723a2063616e6e6f742073656c662077726170000060448201526064015b60405180910390fd5b6001600160a01b03908116610160529081166101805281166200023157604051636415329d60e01b815260206004820181905260248201527f74727573746564466f727761726465722063616e6e6f7420626520656d7074796044820152606401620001c1565b50610e10811015620002a257604051636415329d60e01b815260206004820152603260248201527f546865206d6178696d756d20636f6e73656e7420706572696f64206d7573742060448201527131329030ba103632b0b9ba1018903437bab960711b6064820152608401620001c1565b6101a0525060408301516001600160a01b03166200030457604051636415329d60e01b815260206004820152601c60248201527f63726564656e7469616c735f2063616e6e6f7420626520656d707479000000006044820152606401620001c1565b60608301516001600160a01b03166200036157604051636415329d60e01b815260206004820152601e60248201527f706f6c6963794d616e616765725f2063616e6e6f7420626520656d70747900006044820152606401620001c1565b60808301516001600160a01b0316620003be57604051636415329d60e01b815260206004820152601d60248201527f75736572506f6c69636965735f2063616e6e6f7420626520656d7074790000006044820152606401620001c1565b60a08301516001600160a01b03166200042657604051636415329d60e01b815260206004820152602260248201527f6578656d7074696f6e734d616e616765725f2063616e6e6f7420626520656d70604482015261747960f01b6064820152608401620001c1565b6060830151604051632a9c5ced60e21b815263ffffffff841660048201526001600160a01b039091169063aa7173b490602401602060405180830381865afa15801562000477573d6000803e3d6000fd5b505050506040513d601f19601f820116820180604052508101906200049d919062000cf8565b620004ec57604051636415329d60e01b815260206004820152601b60248201527f61646d697373696f6e506f6c6963794964206e6f7420666f756e6400000000006044820152606401620001c1565b60608301516040516328b4bbd360e01b815263ffffffff841660048201526001600160a01b03909116906328b4bbd390602401602060405180830381865afa1580156200053d573d6000803e3d6000fd5b505050506040513d601f19601f8201168201806040525081019062000563919062000cf8565b15620005b357604051636415329d60e01b815260206004820152601b60248201527f61646d697373696f6e506f6c6963792069732064697361626c656400000000006044820152606401620001c1565b6040808401516001600160a01b039081166101c05260608501805182166101e052608086015182166102005260a086015182166102205263ffffffff85166102405251825163b166473760e01b8152925191169163b16647379160048083019260209291908290030181865afa15801562000632573d6000803e3d6000fd5b505050506040513d601f19601f8201168201806040525081019062000658919062000d23565b6001600160a01b031663a7f0b3de6040518163ffffffff1660e01b81526004016040805180830381865afa15801562000695573d6000803e3d6000fd5b505050506040513d601f19601f82011682018060405250810190620006bb919062000d41565b610280526102608190526200074857604051636415329d60e01b8152602060048201526044602482018190527f74686520756e6976657273652072756c65206973206e6f7420646566696e6564908201527f20696e2074686520506f6c6963794d616e6167657227732052756c65526567696064820152637374727960e01b608482015260a401620001c1565b61028051620007cb57604051636415329d60e01b815260206004820152604160248201527f74686520656d7074792072756c65206973206e6f7420646566696e656420696e60448201527f2074686520506f6c6963794d616e6167657227732052756c65526567697374726064820152607960f81b608482015260a401620001c1565b604083810151606080860151608080880151610260516102805187516001600160a01b0397881681529487166020860152959091168387015263ffffffff88169383019390935281019190915260a081019190915290517ff1d134defae95ed41ff3db7f28fc025a67ddcbf0e13b622d88c559e55154e6a19181900360c00190a150505060208501516001600160a01b0316620008ac57604051636415329d60e01b815260206004820181905260248201527f636f6c6c61746572616c20746f6b656e2063616e6e6f7420626520656d7074796044820152606401620001c1565b81516000036200090057604051636415329d60e01b815260206004820152601560248201527f6e616d655f2063616e6e6f7420626520656d70747900000000000000000000006044820152606401620001c1565b80516000036200095457604051636415329d60e01b815260206004820152601760248201527f73796d626f6c5f2063616e6e6f7420626520656d7074790000000000000000006044820152606401620001c1565b505050505062000df9565b60006020835110156200097f576200097783620009b3565b9050620009ad565b826200099683620009f660201b620016ca1760201c565b8151620009a79260200190620009f9565b5060ff90505b92915050565b600080829050601f81511115620009e1578260405163305a27a960e01b8152600401620001c1919062000d66565b8051620009ee8262000d9b565b179392505050565b90565b82805462000a079062000dc3565b90600052602060002090601f01602090048101928262000a2b576000855562000a76565b82601f1062000a4657805160ff191683800117855562000a76565b8280016001018555821562000a76579182015b8281111562000a7657825182559160200191906001019062000a59565b5062000a8492915062000a88565b5090565b5b8082111562000a84576000815560010162000a89565b634e487b7160e01b600052604160045260246000fd5b60405160c081016001600160401b038111828210171562000ada5762000ada62000a9f565b60405290565b80516001600160a01b038116811462000af857600080fd5b919050565b805163ffffffff8116811462000af857600080fd5b60005b8381101562000b2f57818101518382015260200162000b15565b8381111562000b3f576000848401525b50505050565b600082601f83011262000b5757600080fd5b81516001600160401b038082111562000b745762000b7462000a9f565b604051601f8301601f19908116603f0116810190828211818310171562000b9f5762000b9f62000a9f565b8160405283815286602085880101111562000bb957600080fd5b62000bcc84602083016020890162000b12565b9695505050505050565b600080600080600085870361014081121562000bf157600080fd5b60c081121562000c0057600080fd5b5062000c0b62000ab5565b62000c168762000ae0565b815262000c266020880162000ae0565b602082015262000c396040880162000ae0565b604082015262000c4c6060880162000ae0565b606082015262000c5f6080880162000ae0565b608082015262000c7260a0880162000ae0565b60a0820152945062000c8760c0870162000afd565b935062000c9760e0870162000afd565b6101008701519093506001600160401b038082111562000cb657600080fd5b62000cc489838a0162000b45565b935061012088015191508082111562000cdc57600080fd5b5062000ceb8882890162000b45565b9150509295509295909350565b60006020828403121562000d0b57600080fd5b8151801515811462000d1c57600080fd5b9392505050565b60006020828403121562000d3657600080fd5b62000d1c8262000ae0565b6000806040838503121562000d5557600080fd5b505080516020909101519092909150565b602081526000825180602084015262000d8781604085016020870162000b12565b601f01601f19169190910160400192915050565b8051602080830151919081101562000dbd576000198160200360031b1b821691505b50919050565b600181811c9082168062000dd857607f821691505b60208210810362000dbd57634e487b7160e01b600052602260045260246000fd5b60805160a05160c05160e05161010051610120516101405161016051610180516101a0516101c0516101e0516102005161022051610240516102605161028051612f3362000f4e600039600061051a015260006102d601526000818161029a01528181610a2301528181610aeb01528181610ba601528181610ce401528181610f6b0152818161106701526112e001526000818161036f01528181610a6a0152610b2501526000818161031e01528181610db20152610e4701526000818161061a01528181610bd001528181610d0e0152610f9f0152600081816103df015261130a0152600081816104e0015261159501526000818161047f0152611d5f01526000818161053e015281816118130152818161197601526119ab0152600061115f0152600061113401526000611b0c01526000611ae401526000611a3f01526000611a6901526000611a930152612f336000f3fe608060405234801561001057600080fd5b50600436106102535760003560e01c80636136a6d21161014657806395d89b41116100c3578063c2ddeab211610087578063c2ddeab21461063c578063d505accf1461064f578063d547741f14610662578063dd62ed3e14610675578063e5103bde14610688578063ea985e04146106a857600080fd5b806395d89b41146105df578063a217fddf146105e7578063a457c2d7146105ef578063a9059cbb14610602578063ab3dbf3b1461061557600080fd5b806370a082311161010a57806370a08231146105625780637546401a1461058b5780637ecebe001461059e57806384b0196e146105b157806391d14854146105cc57600080fd5b80636136a6d2146104af57806362d7983e146104db57806365e4ad9e1461050257806369b9abc5146105155780636f307dc31461053c57600080fd5b806323b872dd116101d4578063313ce56711610198578063313ce567146104275780633644e5151461044157806336568abe14610449578063395093511461045c578063572b6c051461046f57600080fd5b806323b872dd146103a4578063248a9ca3146103b75780632eb396f2146103da5780632f2ff15d146104015780632f4f21e21461041457600080fd5b80631370f9f51161021b5780631370f9f51461031957806318160ddd146103585780631b72b757146103605780631faa18011461036a578063205c28781461039157600080fd5b806301ffc9a71461025857806306fdde0314610280578063071f45021461029557806308f707e6146102d1578063095ea7b314610306575b600080fd5b61026b610266366004612956565b6106bb565b60405190151581526020015b60405180910390f35b610288610705565b60405161027791906129d8565b6102bc7f000000000000000000000000000000000000000000000000000000000000000081565b60405163ffffffff9091168152602001610277565b6102f87f000000000000000000000000000000000000000000000000000000000000000081565b604051908152602001610277565b61026b610314366004612a00565b610797565b6103407f000000000000000000000000000000000000000000000000000000000000000081565b6040516001600160a01b039091168152602001610277565b6002546102f8565b6103686107bb565b005b6103407f000000000000000000000000000000000000000000000000000000000000000081565b61026b61039f366004612a00565b610822565b61026b6103b2366004612a2c565b610883565b6102f86103c5366004612a6d565b60009081526009602052604090206001015490565b6103407f000000000000000000000000000000000000000000000000000000000000000081565b61036861040f366004612a86565b6108c3565b61026b610422366004612a00565b6108ed565b61042f610941565b60405160ff9091168152602001610277565b6102f8610950565b610368610457366004612a86565b61095a565b61026b61046a366004612a00565b6109e8565b61026b61047d366004612ab6565b7f00000000000000000000000000000000000000000000000000000000000000006001600160a01b0390811691161490565b61026b6104bd366004612ab6565b6001600160a01b03166000908152603c602052604090205442111590565b6102f87f000000000000000000000000000000000000000000000000000000000000000081565b61026b610510366004612ad3565b610a14565b6102f87f000000000000000000000000000000000000000000000000000000000000000081565b7f0000000000000000000000000000000000000000000000000000000000000000610340565b6102f8610570366004612ab6565b6001600160a01b031660009081526020819052604090205490565b61026b610599366004612ad3565b610f57565b6102f86105ac366004612ab6565b611108565b6105b9611126565b6040516102779796959493929190612b01565b61026b6105da366004612a86565b6111af565b6102886111da565b6102f8600081565b61026b6105fd366004612a00565b6111e9565b61026b610610366004612a00565b61126f565b6103407f000000000000000000000000000000000000000000000000000000000000000081565b61026b61064a366004612ad3565b6112b4565b61036861065d366004612ba6565b611379565b610368610670366004612a86565b6114dd565b6102f8610683366004612ad3565b611502565b6102f8610696366004612ab6565b603c6020526000908152604090205481565b6103686106b6366004612a6d565b61152d565b604051636415329d60e01b8152602060048201526016602482015275115490cc8c4d8d481a5cc81d5b9cdd5c1c1bdc9d195960521b60448201526000906064015b60405180910390fd5b60606003805461071490612c17565b80601f016020809104026020016040519081016040528092919081815260200182805461074090612c17565b801561078d5780601f106107625761010080835404028352916020019161078d565b820191906000526020600020905b81548152906001019060200180831161077057829003601f168201915b5050505050905090565b6000806107a26116cd565b90506107af8185856116d7565b60019150505b92915050565b6000603c60006107c96116cd565b6001600160a01b031681526020810191909152604001600020556107eb6116cd565b6001600160a01b03167fb50fb5f88ee1359587dc4eaa1f4c030cf314b42f5f27664e4c63514f622b3fbf60405160405180910390a2565b600061082c6116cd565b6001600160a01b0316836001600160a01b0316146108725761085561084f6116cd565b84610a14565b61087257604051636415329d60e01b81526004016106fc90612c4b565b61087c83836117fb565b9392505050565b600083836108918282610a14565b6108ae57604051636415329d60e01b81526004016106fc90612c4b565b6108b9868686611842565b9695505050505050565b6000828152600960205260409020600101546108de81611865565b6108e88383611879565b505050565b60006108f76116cd565b6001600160a01b0316836001600160a01b0316146109375761091a61084f6116cd565b61093757604051636415329d60e01b81526004016106fc90612c4b565b61087c8383611900565b600061094b6119a7565b905090565b600061094b611a32565b6109626116cd565b6001600160a01b0316816001600160a01b0316146109da5760405162461bcd60e51b815260206004820152602f60248201527f416363657373436f6e74726f6c3a2063616e206f6e6c792072656e6f756e636560448201526e103937b632b9903337b91039b2b63360891b60648201526084016106fc565b6109e48282611b5d565b5050565b6000806109f36116cd565b90506107af818585610a058589611502565b610a0f9190612c90565b6116d7565b6040516384b5b36d60e01b81527f000000000000000000000000000000000000000000000000000000000000000063ffffffff1660048201526001600160a01b03838116602483015260009182918291829182917f0000000000000000000000000000000000000000000000000000000000000000909116906384b5b36d90604401602060405180830381865afa158015610ab3573d6000803e3d6000fd5b505050506040513d601f19601f82011682018060405250810190610ad79190612ca8565b6040516384b5b36d60e01b815263ffffffff7f00000000000000000000000000000000000000000000000000000000000000001660048201526001600160a01b0388811660248301529193507f0000000000000000000000000000000000000000000000000000000000000000909116906384b5b36d90604401602060405180830381865afa158015610b6e573d6000803e3d6000fd5b505050506040513d601f19601f82011682018060405250810190610b929190612ca8565b6040516328b4bbd360e01b815263ffffffff7f00000000000000000000000000000000000000000000000000000000000000001660048201529091507f00000000000000000000000000000000000000000000000000000000000000006001600160a01b0316906328b4bbd390602401602060405180830381865afa158015610c1f573d6000803e3d6000fd5b505050506040513d601f19601f82011682018060405250810190610c439190612ca8565b15610cb4576001600160a01b0387166000908152603c6020526040902054421080610c8d5750818015610c8d57506001600160a01b0386166000908152603c602052604090205442105b80610c955750805b15610ca75760019450505050506107b5565b60009450505050506107b5565b818015610cbe5750805b15610cd05760019450505050506107b5565b604051637ca614ff60e11b815263ffffffff7f00000000000000000000000000000000000000000000000000000000000000001660048201526000907f00000000000000000000000000000000000000000000000000000000000000006001600160a01b03169063f94c29fe906024016020604051808303816000875af1158015610d5f573d6000803e3d6000fd5b505050506040513d601f19601f82011682018060405250810190610d839190612ca8565b90508015610eb7576040516351c4bc1f60e11b81526001600160a01b03888116600483015289811660248301527f0000000000000000000000000000000000000000000000000000000000000000169063a389783e90604401602060405180830381865afa158015610df9573d6000803e3d6000fd5b505050506040513d601f19601f82011682018060405250810190610e1d9190612ca8565b6040516351c4bc1f60e11b81526001600160a01b038a8116600483015289811660248301529196507f00000000000000000000000000000000000000000000000000000000000000009091169063a389783e90604401602060405180830381865afa158015610e90573d6000803e3d6000fd5b505050506040513d601f19601f82011682018060405250810190610eb49190612ca8565b93505b82158015610ec3575084155b15610f0057610ed28789610f57565b610ee4576000955050505050506107b5565b610eee87896112b4565b610f00576000955050505050506107b5565b81158015610f0c575083155b15610f4957610f1b8888610f57565b610f2d576000955050505050506107b5565b610f3788886112b4565b610f49576000955050505050506107b5565b506001979650505050505050565b604051633af9c82f60e11b815263ffffffff7f000000000000000000000000000000000000000000000000000000000000000016600482015260009081906001600160a01b037f000000000000000000000000000000000000000000000000000000000000000016906375f3905e906024016000604051808303816000875af1158015610fe8573d6000803e3d6000fd5b505050506040513d6000823e601f3d908101601f191682016040526110109190810190612ceb565b905060005b81518110156110fd5781818151811061103057611030612db0565b6020908102919091010151604051632cc4191f60e01b81526001600160a01b038781166004830152868116602483015263ffffffff7f000000000000000000000000000000000000000000000000000000000000000016604483015290911690632cc4191f906064016020604051808303816000875af11580156110b8573d6000803e3d6000fd5b505050506040513d601f19601f820116820180604052508101906110dc9190612ca8565b6110eb576000925050506107b5565b806110f581612dc6565b915050611015565b506001949350505050565b6001600160a01b0381166000908152600760205260408120546107b5565b60006060808280808361115a7f00000000000000000000000000000000000000000000000000000000000000006005611be2565b6111857f00000000000000000000000000000000000000000000000000000000000000006006611be2565b60408051600080825260208201909252600f60f81b9b939a50919850469750309650945092509050565b60009182526009602090815260408084206001600160a01b0393909316845291905290205460ff1690565b60606004805461071490612c17565b6000806111f46116cd565b905060006112028286611502565b9050838110156112625760405162461bcd60e51b815260206004820152602560248201527f45524332303a2064656372656173656420616c6c6f77616e63652062656c6f77604482015264207a65726f60d81b60648201526084016106fc565b6110fd82868684036116d7565b60006112796116cd565b836112848282610a14565b6112a157604051636415329d60e01b81526004016106fc90612c4b565b6112ab8585611c86565b95945050505050565b604051632335670760e21b81526001600160a01b038381166004830152828116602483015263ffffffff7f00000000000000000000000000000000000000000000000000000000000000001660448301526000917f000000000000000000000000000000000000000000000000000000000000000090911690638cd59c1c906064016020604051808303816000875af1158015611355573d6000803e3d6000fd5b505050506040513d601f19601f8201168201806040525081019061087c9190612ca8565b834211156113c95760405162461bcd60e51b815260206004820152601d60248201527f45524332305065726d69743a206578706972656420646561646c696e6500000060448201526064016106fc565b60007f6e71edae12b1b97f4d1f60370fef10105fa2faae0126114a169c64845d6126c98888886113f88c611c9e565b6040805160208101969096526001600160a01b0394851690860152929091166060840152608083015260a082015260c0810186905260e001604051602081830303815290604052805190602001209050600061145382611cc6565b9050600061146382878787611cf3565b9050896001600160a01b0316816001600160a01b0316146114c65760405162461bcd60e51b815260206004820152601e60248201527f45524332305065726d69743a20696e76616c6964207369676e6174757265000060448201526064016106fc565b6114d18a8a8a6116d7565b50505050505050505050565b6000828152600960205260409020600101546114f881611865565b6108e88383611b5d565b6001600160a01b03918216600090815260016020908152604080832093909416825291909152205490565b4281101561159057604051636415329d60e01b815260206004820152602960248201527f7265766f636174696f6e20646561646c696e652063616e6e6f7420626520696e604482015268081d1a19481c185cdd60ba1b60648201526084016106fc565b6115ba7f000000000000000000000000000000000000000000000000000000000000000042612c90565b81111561161f57604051636415329d60e01b815260206004820152602c60248201527f7265766f636174696f6e20646561646c696e6520697320746f6f20666172206960448201526b6e207468652066757475726560a01b60648201526084016106fc565b80603c600061162c6116cd565b6001600160a01b0316815260208101919091526040016000205561164e6116cd565b6001600160a01b03167fef47164fc34d1e7a5a4d37a3bb38b064f19bfc578154e78d0bb9fe34fc2b4fd28260405161168891815260200190565b60405180910390a250565b60006020835110156116af576116a883611d1d565b90506107b5565b828281516116c092602001906128bd565b5060ff90506107b5565b90565b600061094b611d5b565b6001600160a01b0383166117395760405162461bcd60e51b8152602060048201526024808201527f45524332303a20617070726f76652066726f6d20746865207a65726f206164646044820152637265737360e01b60648201526084016106fc565b6001600160a01b03821661179a5760405162461bcd60e51b815260206004820152602260248201527f45524332303a20617070726f766520746f20746865207a65726f206164647265604482015261737360f01b60648201526084016106fc565b6001600160a01b0383811660008181526001602090815260408083209487168084529482529182902085905590518481527f8c5be1e5ebec7d5bd14f71427d1e84f3dd0314c0f7b2291e5b200ac8c7c3b925910160405180910390a3505050565b600061180e6118086116cd565b83611d9f565b6118397f00000000000000000000000000000000000000000000000000000000000000008484611ed1565b50600192915050565b60008061184d6116cd565b905061185a858285611f34565b6110fd858585611fae565b611876816118716116cd565b612152565b50565b61188382826111af565b6109e45760008281526009602090815260408083206001600160a01b03851684529091529020805460ff191660011790556118bc6116cd565b6001600160a01b0316816001600160a01b0316837f2f8788117e7eff1d82e926ec794901d17c78024a50270940304540a733656f0d60405160405180910390a45050565b60008061190b6116cd565b9050306001600160a01b038216036119715760405162461bcd60e51b815260206004820152602360248201527f4552433230577261707065723a20777261707065722063616e2774206465706f6044820152621cda5d60ea1b60648201526084016106fc565b61199d7f00000000000000000000000000000000000000000000000000000000000000008230866121ab565b6107af84846121e3565b60007f00000000000000000000000000000000000000000000000000000000000000006001600160a01b031663313ce5676040518163ffffffff1660e01b8152600401602060405180830381865afa925050508015611a23575060408051601f3d908101601f19168201909252611a2091810190612ddf565b60015b611a2d5750601290565b919050565b6000306001600160a01b037f000000000000000000000000000000000000000000000000000000000000000016148015611a8b57507f000000000000000000000000000000000000000000000000000000000000000046145b15611ab557507f000000000000000000000000000000000000000000000000000000000000000090565b61094b604080517f8b73c3c69bb8fe3d512ecc4cf759cc79239f7b179b0ffacaa9a75d522b39400f60208201527f0000000000000000000000000000000000000000000000000000000000000000918101919091527f000000000000000000000000000000000000000000000000000000000000000060608201524660808201523060a082015260009060c00160405160208183030381529060405280519060200120905090565b611b6782826111af565b156109e45760008281526009602090815260408083206001600160a01b03851684529091529020805460ff19169055611b9e6116cd565b6001600160a01b0316816001600160a01b0316837ff6391f5c32d9c69d2a47ea670b442974b53935d1edc7fd64eb21e047a839171b60405160405180910390a45050565b606060ff8314611bf5576116a8836122a2565b818054611c0190612c17565b80601f0160208091040260200160405190810160405280929190818152602001828054611c2d90612c17565b8015611c7a5780601f10611c4f57610100808354040283529160200191611c7a565b820191906000526020600020905b815481529060010190602001808311611c5d57829003601f168201915b505050505090506107b5565b600080611c916116cd565b90506107af818585611fae565b6001600160a01b03811660009081526007602052604090208054600181018255905b50919050565b60006107b5611cd3611a32565b8360405161190160f01b8152600281019290925260228201526042902090565b6000806000611d04878787876122e1565b91509150611d11816123a5565b5090505b949350505050565b600080829050601f81511115611d48578260405163305a27a960e01b81526004016106fc91906129d8565b8051611d5382612dfc565b179392505050565b60007f00000000000000000000000000000000000000000000000000000000000000006001600160a01b03163303611d9a575060131936013560601c90565b503390565b6001600160a01b038216611dff5760405162461bcd60e51b815260206004820152602160248201527f45524332303a206275726e2066726f6d20746865207a65726f206164647265736044820152607360f81b60648201526084016106fc565b6001600160a01b03821660009081526020819052604090205481811015611e735760405162461bcd60e51b815260206004820152602260248201527f45524332303a206275726e20616d6f756e7420657863656564732062616c616e604482015261636560f01b60648201526084016106fc565b6001600160a01b0383166000818152602081815260408083208686039055600280548790039055518581529192917fddf252ad1be2c89b69c2b068fc378daa952ba7f163c4a11628f55a4df523b3ef910160405180910390a3505050565b6040516001600160a01b0383166024820152604481018290526108e890849063a9059cbb60e01b906064015b60408051601f198184030181529190526020810180516001600160e01b03166001600160e01b0319909316929092179091526124ef565b6000611f408484611502565b90506000198114611fa85781811015611f9b5760405162461bcd60e51b815260206004820152601d60248201527f45524332303a20696e73756666696369656e7420616c6c6f77616e636500000060448201526064016106fc565b611fa884848484036116d7565b50505050565b6001600160a01b0383166120125760405162461bcd60e51b815260206004820152602560248201527f45524332303a207472616e736665722066726f6d20746865207a65726f206164604482015264647265737360d81b60648201526084016106fc565b6001600160a01b0382166120745760405162461bcd60e51b815260206004820152602360248201527f45524332303a207472616e7366657220746f20746865207a65726f206164647260448201526265737360e81b60648201526084016106fc565b6001600160a01b038316600090815260208190526040902054818110156120ec5760405162461bcd60e51b815260206004820152602660248201527f45524332303a207472616e7366657220616d6f756e7420657863656564732062604482015265616c616e636560d01b60648201526084016106fc565b6001600160a01b03848116600081815260208181526040808320878703905593871680835291849020805487019055925185815290927fddf252ad1be2c89b69c2b068fc378daa952ba7f163c4a11628f55a4df523b3ef910160405180910390a3611fa8565b61215c82826111af565b6109e457612169816125c4565b6121748360206125d6565b604051602001612185929190612e20565b60408051601f198184030181529082905262461bcd60e51b82526106fc916004016129d8565b6040516001600160a01b0380851660248301528316604482015260648101829052611fa89085906323b872dd60e01b90608401611efd565b6001600160a01b0382166122395760405162461bcd60e51b815260206004820152601f60248201527f45524332303a206d696e7420746f20746865207a65726f20616464726573730060448201526064016106fc565b806002600082825461224b9190612c90565b90915550506001600160a01b038216600081815260208181526040808320805486019055518481527fddf252ad1be2c89b69c2b068fc378daa952ba7f163c4a11628f55a4df523b3ef910160405180910390a35050565b606060006122af83612772565b604080516020808252818301909252919250600091906020820181803683375050509182525060208101929092525090565b6000807f7fffffffffffffffffffffffffffffff5d576e7357a4501ddfe92f46681b20a0831115612318575060009050600361239c565b6040805160008082526020820180845289905260ff881692820192909252606081018690526080810185905260019060a0016020604051602081039080840390855afa15801561236c573d6000803e3d6000fd5b5050604051601f1901519150506001600160a01b0381166123955760006001925092505061239c565b9150600090505b94509492505050565b60008160048111156123b9576123b9612e95565b036123c15750565b60018160048111156123d5576123d5612e95565b036124225760405162461bcd60e51b815260206004820152601860248201527f45434453413a20696e76616c6964207369676e6174757265000000000000000060448201526064016106fc565b600281600481111561243657612436612e95565b036124835760405162461bcd60e51b815260206004820152601f60248201527f45434453413a20696e76616c6964207369676e6174757265206c656e6774680060448201526064016106fc565b600381600481111561249757612497612e95565b036118765760405162461bcd60e51b815260206004820152602260248201527f45434453413a20696e76616c6964207369676e6174757265202773272076616c604482015261756560f01b60648201526084016106fc565b6000612544826040518060400160405280602081526020017f5361666545524332303a206c6f772d6c6576656c2063616c6c206661696c6564815250856001600160a01b031661279a9092919063ffffffff16565b90508051600014806125655750808060200190518101906125659190612ca8565b6108e85760405162461bcd60e51b815260206004820152602a60248201527f5361666545524332303a204552433230206f7065726174696f6e20646964206e6044820152691bdd081cdd58d8d9595960b21b60648201526084016106fc565b60606107b56001600160a01b03831660145b606060006125e5836002612eab565b6125f0906002612c90565b67ffffffffffffffff81111561260857612608612cca565b6040519080825280601f01601f191660200182016040528015612632576020820181803683370190505b509050600360fc1b8160008151811061264d5761264d612db0565b60200101906001600160f81b031916908160001a905350600f60fb1b8160018151811061267c5761267c612db0565b60200101906001600160f81b031916908160001a90535060006126a0846002612eab565b6126ab906001612c90565b90505b6001811115612723576f181899199a1a9b1b9c1cb0b131b232b360811b85600f16601081106126df576126df612db0565b1a60f81b8282815181106126f5576126f5612db0565b60200101906001600160f81b031916908160001a90535060049490941c9361271c81612eca565b90506126ae565b50831561087c5760405162461bcd60e51b815260206004820181905260248201527f537472696e67733a20686578206c656e67746820696e73756666696369656e7460448201526064016106fc565b600060ff8216601f8111156107b557604051632cd44ac360e21b815260040160405180910390fd5b6060611d15848460008585600080866001600160a01b031685876040516127c19190612ee1565b60006040518083038185875af1925050503d80600081146127fe576040519150601f19603f3d011682016040523d82523d6000602084013e612803565b606091505b50915091506128148783838761281f565b979650505050505050565b6060831561288e578251600003612887576001600160a01b0385163b6128875760405162461bcd60e51b815260206004820152601d60248201527f416464726573733a2063616c6c20746f206e6f6e2d636f6e747261637400000060448201526064016106fc565b5081611d15565b611d1583838151156128a35781518083602001fd5b8060405162461bcd60e51b81526004016106fc91906129d8565b8280546128c990612c17565b90600052602060002090601f0160209004810192826128eb5760008555612931565b82601f1061290457805160ff1916838001178555612931565b82800160010185558215612931579182015b82811115612931578251825591602001919060010190612916565b5061293d929150612941565b5090565b5b8082111561293d5760008155600101612942565b60006020828403121561296857600080fd5b81356001600160e01b03198116811461087c57600080fd5b60005b8381101561299b578181015183820152602001612983565b83811115611fa85750506000910152565b600081518084526129c4816020860160208601612980565b601f01601f19169290920160200192915050565b60208152600061087c60208301846129ac565b6001600160a01b038116811461187657600080fd5b60008060408385031215612a1357600080fd5b8235612a1e816129eb565b946020939093013593505050565b600080600060608486031215612a4157600080fd5b8335612a4c816129eb565b92506020840135612a5c816129eb565b929592945050506040919091013590565b600060208284031215612a7f57600080fd5b5035919050565b60008060408385031215612a9957600080fd5b823591506020830135612aab816129eb565b809150509250929050565b600060208284031215612ac857600080fd5b813561087c816129eb565b60008060408385031215612ae657600080fd5b8235612af1816129eb565b91506020830135612aab816129eb565b60ff60f81b881681526000602060e081840152612b2160e084018a6129ac565b8381036040850152612b33818a6129ac565b606085018990526001600160a01b038816608086015260a0850187905284810360c0860152855180825283870192509083019060005b81811015612b8557835183529284019291840191600101612b69565b50909c9b505050505050505050505050565b60ff8116811461187657600080fd5b600080600080600080600060e0888a031215612bc157600080fd5b8735612bcc816129eb565b96506020880135612bdc816129eb565b955060408801359450606088013593506080880135612bfa81612b97565b9699959850939692959460a0840135945060c09093013592915050565b600181811c90821680612c2b57607f821691505b602082108103611cc057634e487b7160e01b600052602260045260246000fd5b6020808252601590820152741d1c9859195c881b9bdd08185d5d1a1bdc9a5e9959605a1b604082015260600190565b634e487b7160e01b600052601160045260246000fd5b60008219821115612ca357612ca3612c7a565b500190565b600060208284031215612cba57600080fd5b8151801515811461087c57600080fd5b634e487b7160e01b600052604160045260246000fd5b8051611a2d816129eb565b60006020808385031215612cfe57600080fd5b825167ffffffffffffffff80821115612d1657600080fd5b818501915085601f830112612d2a57600080fd5b815181811115612d3c57612d3c612cca565b8060051b604051601f19603f83011681018181108582111715612d6157612d61612cca565b604052918252848201925083810185019188831115612d7f57600080fd5b938501935b82851015612da457612d9585612ce0565b84529385019392850192612d84565b98975050505050505050565b634e487b7160e01b600052603260045260246000fd5b600060018201612dd857612dd8612c7a565b5060010190565b600060208284031215612df157600080fd5b815161087c81612b97565b80516020808301519190811015611cc05760001960209190910360031b1b16919050565b7f416363657373436f6e74726f6c3a206163636f756e7420000000000000000000815260008351612e58816017850160208801612980565b7001034b99036b4b9b9b4b733903937b6329607d1b6017918401918201528351612e89816028840160208801612980565b01602801949350505050565b634e487b7160e01b600052602160045260246000fd5b6000816000190483118215151615612ec557612ec5612c7a565b500290565b600081612ed957612ed9612c7a565b506000190190565b60008251612ef3818460208701612980565b919091019291505056fea2646970667358221220a8fde7ecb4668d9f8d7889116539ade0aae38aeac59773c4f45ca5278ee56c1364736f6c634300080e0033",
  "devdoc": {
    "kind": "dev",
    "methods": {
      "DOMAIN_SEPARATOR()": {
        "details": "See {IERC20Permit-DOMAIN_SEPARATOR}."
      },
      "allowance(address,address)": {
        "details": "See {IERC20-allowance}."
      },
      "approve(address,uint256)": {
        "details": "See {IERC20-approve}. NOTE: If `amount` is the maximum `uint256`, the allowance is not updated on `transferFrom`. This is semantically equivalent to an infinite approval. Requirements: - `spender` cannot be the zero address."
      },
      "balanceOf(address)": {
        "details": "See {IERC20-balanceOf}."
      },
      "checkTraderWallet(address,address)": {
        "params": {
          "observer": "The user who must consent to reliance on degraded services.",
          "subject": "The subject to inspect."
        },
        "returns": {
          "passed": "True if the wallet check is new enough, or if the degraded service mitigation is possible and the user has provided consent. "
        }
      },
      "checkZKPIICache(address,address)": {
        "params": {
          "observer": "The user who must consent to reliance on degraded services.",
          "subject": "The subject to inspect."
        },
        "returns": {
          "passed": "True if cached credential is new enough, or if degraded service mitigation is possible and the user has provided consent. "
        }
      },
      "constructor": {
        "params": {
          "config": "Keyring contract addresses. See IKycERC20.",
          "maximumConsentPeriod_": "The upper limit for user consent deadlines.",
          "name_": "The name of the new wrapped token. Passed to ERC20.constructor to set the ERC20.name",
          "policyId_": "The unique identifier of a Policy.",
          "symbol_": "The symbol for the new wrapped token. Passed to ERC20.constructor to set the ERC20.symbol"
        }
      },
      "decimals()": {
        "returns": {
          "_0": "uint8 decimals integer"
        }
      },
      "decreaseAllowance(address,uint256)": {
        "details": "Atomically decreases the allowance granted to `spender` by the caller. This is an alternative to {approve} that can be used as a mitigation for problems described in {IERC20-approve}. Emits an {Approval} event indicating the updated allowance. Requirements: - `spender` cannot be the zero address. - `spender` must have allowance for the caller of at least `subtractedValue`."
      },
      "depositFor(address,uint256)": {
        "params": {
          "amount": "Quantity of underlying tokens from _msgSender() to exchange for wrapped tokens (to account) at 1:1",
          "trader": "Recipient of the wrapped tokens"
        }
      },
      "eip712Domain()": {
        "details": "See {EIP-5267}. _Available since v4.9._"
      },
      "getRoleAdmin(bytes32)": {
        "details": "Returns the admin role that controls `role`. See {grantRole} and {revokeRole}. To change a role's admin, use {_setRoleAdmin}."
      },
      "grantDegradedServiceConsent(uint256)": {
        "details": "The deadline must be no further in the future than the maximumConsentDeadline.",
        "params": {
          "revocationDeadline": "The consent will automatically expire at the deadline. "
        }
      },
      "grantRole(bytes32,address)": {
        "details": "Grants `role` to `account`. If `account` had not been already granted `role`, emits a {RoleGranted} event. Requirements: - the caller must have ``role``'s admin role. May emit a {RoleGranted} event."
      },
      "hasRole(bytes32,address)": {
        "details": "Returns `true` if `account` has been granted `role`."
      },
      "increaseAllowance(address,uint256)": {
        "details": "Atomically increases the allowance granted to `spender` by the caller. This is an alternative to {approve} that can be used as a mitigation for problems described in {IERC20-approve}. Emits an {Approval} event indicating the updated allowance. Requirements: - `spender` cannot be the zero address."
      },
      "isAuthorized(address,address)": {
        "details": "Both parties are compliant, where compliant means:  - they have a cached credential and if required, a wallet check   - they are an approved counterparty of the other party  - they can rely on degraded service mitigation, and their counterparty consents  - the policy excepts them from compliance checks, usually reserved for contracts",
        "params": {
          "from": "First trader wallet to inspect. ",
          "to": "Second trader wallet to inspect. "
        },
        "returns": {
          "passed": "True, if both parties are compliant."
        }
      },
      "name()": {
        "details": "Returns the name of the token."
      },
      "nonces(address)": {
        "details": "See {IERC20Permit-nonces}."
      },
      "permit(address,address,uint256,uint256,uint8,bytes32,bytes32)": {
        "details": "See {IERC20Permit-permit}."
      },
      "renounceRole(bytes32,address)": {
        "details": "Revokes `role` from the calling account. Roles are often managed via {grantRole} and {revokeRole}: this function's purpose is to provide a mechanism for accounts to lose their privileges if they are compromised (such as when a trusted device is misplaced). If the calling account had been revoked `role`, emits a {RoleRevoked} event. Requirements: - the caller must be `account`. May emit a {RoleRevoked} event."
      },
      "revokeRole(bytes32,address)": {
        "details": "Revokes `role` from `account`. If `account` had been granted `role`, emits a {RoleRevoked} event. Requirements: - the caller must have ``role``'s admin role. May emit a {RoleRevoked} event."
      },
      "supportsInterface(bytes4)": {
        "details": "Always reverts. Do not rely on ERC165 support to interact with this contract.",
        "returns": {
          "_0": "bool Never returned."
        }
      },
      "symbol()": {
        "details": "Returns the symbol of the token, usually a shorter version of the name."
      },
      "totalSupply()": {
        "details": "See {IERC20-totalSupply}."
      },
      "transfer(address,uint256)": {
        "params": {
          "amount": "The amount to transfer.",
          "to": "The recipient of amount"
        },
        "returns": {
          "_0": "bool True if successfully executed."
        }
      },
      "transferFrom(address,address,uint256)": {
        "params": {
          "amount": "The amount to be deducted from the to's allowance.",
          "from": "The sender of amount",
          "to": "The recipient of amount"
        },
        "returns": {
          "_0": "bool True if successfully executed."
        }
      },
      "underlying()": {
        "details": "Returns the address of the underlying ERC-20 token that is being wrapped."
      },
      "userConsentsToMitigation(address)": {
        "params": {
          "user": "The user to inspect. "
        },
        "returns": {
          "doesIndeed": "True if the user's consent deadline is in the future."
        }
      },
      "withdrawTo(address,uint256)": {
        "params": {
          "amount": "Quantity of wrapped tokens from _msgSender() to exchange for underlying tokens (to account) at 1:1",
          "trader": "Recipient of the underlying tokens"
        }
      }
    },
    "version": 1
  },
  "userdoc": {
    "kind": "user",
    "methods": {
      "checkTraderWallet(address,address)": {
        "notice": "Check the trader wallet against all wallet checks in the policy configuration. "
      },
      "checkZKPIICache(address,address)": {
        "notice": "Checks keyringCache for cached PII credential. "
      },
      "decimals()": {
        "notice": "Returns decimals based on the underlying token decimals"
      },
      "depositFor(address,uint256)": {
        "notice": "Deposit underlying tokens and mint the same number of wrapped tokens."
      },
      "grantDegradedServiceConsent(uint256)": {
        "notice": "A user may grant consent to service mitigation measures. "
      },
      "isAuthorized(address,address)": {
        "notice": "Check from and to addresses for compliance. "
      },
      "revokeMitigationConsent()": {
        "notice": "A user may revoke their consent to mitigation measures. "
      },
      "supportsInterface(bytes4)": {
        "notice": "Disables incomplete ERC165 support inherited from oz/AccessControl.sol"
      },
      "transfer(address,uint256)": {
        "notice": "Wraps the inherited ERC20.transfer function with the keyringCompliance guard."
      },
      "transferFrom(address,address,uint256)": {
        "notice": "Wraps the inherited ERC20.transferFrom function with the keyringCompliance guard."
      },
      "withdrawTo(address,uint256)": {
        "notice": "Burn a number of wrapped tokens and withdraw the same number of underlying tokens."
      }
    },
    "notice": "This contract illustrates how an immutable KeyringGuard can be wrapped around collateral tokens (e.g. DAI Token). Specify the token to wrap and the new name/symbol of the wrapped token - then good to go! Tokens can only be transferred to an address that maintains compliance with the configured policy.",
    "version": 1
  },
  "storageLayout": {
    "storage": [
      {
        "astId": 1354,
        "contract": "contracts/portalgate/KycERC20.sol:KycERC20",
        "label": "_balances",
        "offset": 0,
        "slot": "0",
        "type": "t_mapping(t_address,t_uint256)"
      },
      {
        "astId": 1360,
        "contract": "contracts/portalgate/KycERC20.sol:KycERC20",
        "label": "_allowances",
        "offset": 0,
        "slot": "1",
        "type": "t_mapping(t_address,t_mapping(t_address,t_uint256))"
      },
      {
        "astId": 1362,
        "contract": "contracts/portalgate/KycERC20.sol:KycERC20",
        "label": "_totalSupply",
        "offset": 0,
        "slot": "2",
        "type": "t_uint256"
      },
      {
        "astId": 1364,
        "contract": "contracts/portalgate/KycERC20.sol:KycERC20",
        "label": "_name",
        "offset": 0,
        "slot": "3",
        "type": "t_string_storage"
      },
      {
        "astId": 1366,
        "contract": "contracts/portalgate/KycERC20.sol:KycERC20",
        "label": "_symbol",
        "offset": 0,
        "slot": "4",
        "type": "t_string_storage"
      },
      {
        "astId": 4162,
        "contract": "contracts/portalgate/KycERC20.sol:KycERC20",
        "label": "_nameFallback",
        "offset": 0,
        "slot": "5",
        "type": "t_string_storage"
      },
      {
        "astId": 4164,
        "contract": "contracts/portalgate/KycERC20.sol:KycERC20",
        "label": "_versionFallback",
        "offset": 0,
        "slot": "6",
        "type": "t_string_storage"
      },
      {
        "astId": 2026,
        "contract": "contracts/portalgate/KycERC20.sol:KycERC20",
        "label": "_nonces",
        "offset": 0,
        "slot": "7",
        "type": "t_mapping(t_address,t_struct(Counter)3140_storage)"
      },
      {
        "astId": 2034,
        "contract": "contracts/portalgate/KycERC20.sol:KycERC20",
        "label": "_PERMIT_TYPEHASH_DEPRECATED_SLOT",
        "offset": 0,
        "slot": "8",
        "type": "t_bytes32"
      },
      {
        "astId": 523,
        "contract": "contracts/portalgate/KycERC20.sol:KycERC20",
        "label": "_roles",
        "offset": 0,
        "slot": "9",
        "type": "t_mapping(t_bytes32,t_struct(RoleData)518_storage)"
      },
      {
        "astId": 5432,
        "contract": "contracts/portalgate/KycERC20.sol:KycERC20",
        "label": "_reservedSlots",
        "offset": 0,
        "slot": "10",
        "type": "t_array(t_bytes32)50_storage"
      },
      {
        "astId": 5557,
        "contract": "contracts/portalgate/KycERC20.sol:KycERC20",
        "label": "userConsentDeadlines",
        "offset": 0,
        "slot": "60",
        "type": "t_mapping(t_address,t_uint256)"
      }
    ],
    "types": {
      "t_address": {
        "encoding": "inplace",
        "label": "address",
        "numberOfBytes": "20"
      },
      "t_array(t_bytes32)50_storage": {
        "base": "t_bytes32",
        "encoding": "inplace",
        "label": "bytes32[50]",
        "numberOfBytes": "1600"
      },
      "t_bool": {
        "encoding": "inplace",
        "label": "bool",
        "numberOfBytes": "1"
      },
      "t_bytes32": {
        "encoding": "inplace",
        "label": "bytes32",
        "numberOfBytes": "32"
      },
      "t_mapping(t_address,t_bool)": {
        "encoding": "mapping",
        "key": "t_address",
        "label": "mapping(address => bool)",
        "numberOfBytes": "32",
        "value": "t_bool"
      },
      "t_mapping(t_address,t_mapping(t_address,t_uint256))": {
        "encoding": "mapping",
        "key": "t_address",
        "label": "mapping(address => mapping(address => uint256))",
        "numberOfBytes": "32",
        "value": "t_mapping(t_address,t_uint256)"
      },
      "t_mapping(t_address,t_struct(Counter)3140_storage)": {
        "encoding": "mapping",
        "key": "t_address",
        "label": "mapping(address => struct Counters.Counter)",
        "numberOfBytes": "32",
        "value": "t_struct(Counter)3140_storage"
      },
      "t_mapping(t_address,t_uint256)": {
        "encoding": "mapping",
        "key": "t_address",
        "label": "mapping(address => uint256)",
        "numberOfBytes": "32",
        "value": "t_uint256"
      },
      "t_mapping(t_bytes32,t_struct(RoleData)518_storage)": {
        "encoding": "mapping",
        "key": "t_bytes32",
        "label": "mapping(bytes32 => struct AccessControl.RoleData)",
        "numberOfBytes": "32",
        "value": "t_struct(RoleData)518_storage"
      },
      "t_string_storage": {
        "encoding": "bytes",
        "label": "string",
        "numberOfBytes": "32"
      },
      "t_struct(Counter)3140_storage": {
        "encoding": "inplace",
        "label": "struct Counters.Counter",
        "members": [
          {
            "astId": 3139,
            "contract": "contracts/portalgate/KycERC20.sol:KycERC20",
            "label": "_value",
            "offset": 0,
            "slot": "0",
            "type": "t_uint256"
          }
        ],
        "numberOfBytes": "32"
      },
      "t_struct(RoleData)518_storage": {
        "encoding": "inplace",
        "label": "struct AccessControl.RoleData",
        "members": [
          {
            "astId": 515,
            "contract": "contracts/portalgate/KycERC20.sol:KycERC20",
            "label": "members",
            "offset": 0,
            "slot": "0",
            "type": "t_mapping(t_address,t_bool)"
          },
          {
            "astId": 517,
            "contract": "contracts/portalgate/KycERC20.sol:KycERC20",
            "label": "adminRole",
            "offset": 0,
            "slot": "1",
            "type": "t_bytes32"
          }
        ],
        "numberOfBytes": "64"
      },
      "t_uint256": {
        "encoding": "inplace",
        "label": "uint256",
        "numberOfBytes": "32"
      }
    }
  }
}