{
  "address": "0xc3AD3578F67eb5640Cd1630C6DA3Dd99874E3b7b",
  "abi": [
    {
      "inputs": [
        {
          "internalType": "bytes",
          "name": "proof",
          "type": "bytes"
        },
        {
          "internalType": "uint256[6]",
          "name": "input",
          "type": "uint256[6]"
        }
      ],
      "name": "verifyProof",
      "outputs": [
        {
          "internalType": "bool",
          "name": "",
          "type": "bool"
        }
      ],
      "stateMutability": "view",
      "type": "function"
    }
  ],
  "transactionHash": "0xc63aa73dc62efbcd62defe3a6bf46d82d08031a65bf389fa335e56d80c1bc983",
  "args": [],
  "numDeployments": 1,
  "solcInputHash": "14983fa83c315ed6b0f2bb049230558b",
  "bytecode": "0x608060405234801561001057600080fd5b506110fd806100206000396000f3fe608060405234801561001057600080fd5b506004361061002b5760003560e01c8063695ef6f914610030575b600080fd5b61004361003e366004610ede565b610057565b604051901515815260200160405180910390f35b6000808380602001905181019061006e9190610f85565b905060005b60088160ff161015610129577f30644e72e131a029b85045b68181585d97816a916871ca8d3c208c16d87cfd47828260ff16600881106100b5576100b5611004565b6020020151106101175760405162461bcd60e51b815260206004820152602260248201527f76657269666965722d70726f6f662d656c656d656e742d6774652d7072696d656044820152612d7160f01b60648201526084015b60405180910390fd5b8061012181611030565b915050610073565b50610132610cb6565b6040805180820182528351815260208085015181830152908352815160808082018452858401518285019081526060808801519084015282528351808501855290860151815260a08601518184015281830152838201528151808301835260c0850151815260e0850151918101919091529082015260006101b161032b565b90506000604051806040016040528060008152602001600081525090506101f38183608001516000600781106101e9576101e9611004565b60200201516107f6565b905060005b60068110156102e9577f30644e72e131a029b85045b68181585d2833e84879b9709143e1f593f000000187826006811061023457610234611004565b6020020151106102865760405162461bcd60e51b815260206004820152601f60248201527f76657269666965722d6774652d736e61726b2d7363616c61722d6669656c6400604482015260640161010e565b6102d5826102d0856080015184600161029f919061104f565b600781106102af576102af611004565b60200201518a85600681106102c6576102c6611004565b6020020151610897565b6107f6565b9150806102e181611062565b9150506101f8565b5061031e6102fa8460000151610925565b846020015184600001518560200151858760400151896040015189606001516109df565b9450505050505b92915050565b610333610d07565b6040805180820182527f2dbfc3ec62a3eee5a3b4b464bcf1f8527bbca12adea0f1f12033cd4f61b0e09181527f19e55bd0b72c126da18665039556776642ff82e2f347f24fcea2475f4db087df6020808301919091529083528151608080820184527f1ae724ab134e5a7c6bd8a116fa5505b259522c0f164a5e8126e3ec7d34465f6e8285019081527e9f1bcdc853f8e3531756bb625b0d1dc014f4ab57c3f79f4f4e2e7ef7e0ead6606080850191909152908352845180860186527f23a8ca5760457e726365b92fd0ceb486665797cd68c35dcffd8e4ae8066691e981527f13ec7182c9fd68331a10f8be0fe885d730de5c7f89aa7d0b7bafaa009bbc9e3e818601528385015285840192909252835180820185527f198e9393920d483a7260bfb731fb5d25f1aa493335a9e71297e485b7aef312c28186019081527f1800deef121f1e76426a00665e5c4479674322d4f75edadd46debd5cd992f6ed828501528152845180860186527f090689d0585ff075ec9e99ad690c3395bc4b313370b38ef355acdadcd122975b81527f12c85ea5db8c6deb4aab71808dcb408fe3d1e7690c43d37b4ce6cc0166fa7daa818601528185015285850152835180820185527f2f0c63d0c53b3dfbca27b6b43ae7fbf55a38d78a21470996485b03128accc2088186019081527e556502356e37ed150db2e36531b0f275fd6835c0fc1945922e270b48c48a86828501528152845180860186527f02644c27b5dbd793592a70b735e22c798a5e309fa17a992a7dc2a050e01b298f81527f194776b6a53439d7336f389d2a8f6651e40885f5ca2538b0dc9cb534fb23f7fa818601528185015282860152835180850185527f23df1bc9165e9c1c9b2bc036d8ebdd10e7aeae7e5e8019fde68aec7c818bb23e81527f0b6c92080d37c5fb2ddf30892a33665e5478432ef3f71ac8768ecbbe62c7789281850152818601805191909152845180860186527f1c7b2adf45e046caea000956b2ecb2d8617e710d2a7bb201a95ea276f92307b481527f2b15f07536f45948cf4abe6596637d902ffabb18c8c2f5c151544c294ce4a672818601528151850152845180860186527f1cecfe92882a8c835a47bf01bfa655cf628cbba7f81cf4042179fd13edcd6a3981527f0154bfbb2cb786ca247d4b69183d1751f267bbc7656be8d0f0e7a5a47e2c1101818601528151860152845180860186527f1584616a7423efcc72f69ea84fa0b2bc01433677297f4e8351bebfc15bcd0cda81527f0623755b1488526daa9fecf0e11b110dd6df12c461579d792e1db65af523c8be81860152815190930192909252835180850185527f12fbb5bfca9d61357ba2d641604cf4852e21ef54faa180fe539c18994dc1da5a81527f2f09dd9972a1af5f7bcfccf3d7ab600c9d898ea6d6933150ba0ae228ece17e5f81850152825190910152825180840184527f0adb513796fdf2103022c64151ce05f7c7a6d9200e8d819fa59e654fc4bfe83c81527f2d64f72ef4eddf9ca032058ed2bf691758387e913a77cf99d6a3cfb37c8ba7ee81840152815160a0015282518084019093527f21e7c9bffda74bfd2c4393b6803d775545de6fa89145f4a23476241d9881b66183527f0bbe41e52237ac13eb7b01f3cb999b7394d08734e71b1c3ada62713e17eb560c918301919091525160c0015290565b6040805180820190915260008082526020820152610812610d58565b8351815260208085015181830152835160408301528301516060808301919091526000908360c08460066107d05a03fa9050808061084c57fe5b508061088f5760405162461bcd60e51b81526020600482015260126024820152711c185a5c9a5b99cb5859190b59985a5b195960721b604482015260640161010e565b505092915050565b60408051808201909152600080825260208201526108b3610d76565b835181526020808501519082015260408101839052600060608360808460076107d05a03fa905080806108e257fe5b508061088f5760405162461bcd60e51b81526020600482015260126024820152711c185a5c9a5b99cb5b5d5b0b59985a5b195960721b604482015260640161010e565b6040805180820190915260008082526020820152815115801561094a57506020820151155b15610968575050604080518082019091526000808252602082015290565b6040518060400160405280836000015181526020017f30644e72e131a029b85045b68181585d97816a916871ca8d3c208c16d87cfd4784602001516109ad919061107b565b6109d7907f30644e72e131a029b85045b68181585d97816a916871ca8d3c208c16d87cfd4761109d565b905292915050565b60408051608080820183528a825260208083018a90528284018890526060808401879052845192830185528b83528282018a9052828501889052820185905283516018808252610320820190955260009491859190839082016103008036833701905050905060005b6004811015610c33576000610a5e8260066110b0565b9050858260048110610a7257610a72611004565b60200201515183610a8483600061104f565b81518110610a9457610a94611004565b602002602001018181525050858260048110610ab257610ab2611004565b60200201516020015183826001610ac9919061104f565b81518110610ad957610ad9611004565b602002602001018181525050848260048110610af757610af7611004565b6020020151515183610b0a83600261104f565b81518110610b1a57610b1a611004565b602002602001018181525050848260048110610b3857610b38611004565b6020020151516001602002015183610b5183600361104f565b81518110610b6157610b61611004565b602002602001018181525050848260048110610b7f57610b7f611004565b602002015160200151600060028110610b9a57610b9a611004565b602002015183610bab83600461104f565b81518110610bbb57610bbb611004565b602002602001018181525050848260048110610bd957610bd9611004565b602002015160200151600160028110610bf457610bf4611004565b602002015183610c0583600561104f565b81518110610c1557610c15611004565b60209081029190910101525080610c2b81611062565b915050610a48565b50610c3c610d94565b6000602082602086026020860160086107d05a03fa90508080610c5b57fe5b5080610ca15760405162461bcd60e51b81526020600482015260156024820152741c185a5c9a5b99cb5bdc18dbd9194b59985a5b1959605a1b604482015260640161010e565b505115159d9c50505050505050505050505050565b6040805160a081019091526000606082018181526080830191909152815260208101610ce0610db2565b8152602001610d02604051806040016040528060008152602001600081525090565b905290565b6040805160e08101909152600060a0820181815260c0830191909152815260208101610d31610db2565b8152602001610d3e610db2565b8152602001610d4b610db2565b8152602001610d02610dd2565b60405180608001604052806004906020820280368337509192915050565b60405180606001604052806003906020820280368337509192915050565b60405180602001604052806001906020820280368337509192915050565b6040518060400160405280610dc5610e0b565b8152602001610d02610e0b565b6040518060e001604052806007905b6040805180820190915260008082526020820152815260200190600190039081610de15790505090565b60405180604001604052806002906020820280368337509192915050565b634e487b7160e01b600052604160045260246000fd5b604051601f8201601f1916810167ffffffffffffffff81118282101715610e6857610e68610e29565b604052919050565b600082601f830112610e8157600080fd5b60405160c0810181811067ffffffffffffffff82111715610ea457610ea4610e29565b6040528060c0840185811115610eb957600080fd5b845b81811015610ed3578035835260209283019201610ebb565b509195945050505050565b60008060e08385031215610ef157600080fd5b823567ffffffffffffffff80821115610f0957600080fd5b818501915085601f830112610f1d57600080fd5b8135602082821115610f3157610f31610e29565b610f43601f8301601f19168201610e3f565b92508183528781838601011115610f5957600080fd5b81818501828501376000818385010152829550610f7888828901610e70565b9450505050509250929050565b6000610100808385031215610f9957600080fd5b83601f840112610fa857600080fd5b60405181810181811067ffffffffffffffff82111715610fca57610fca610e29565b604052908301908085831115610fdf57600080fd5b845b83811015610ff9578051825260209182019101610fe1565b509095945050505050565b634e487b7160e01b600052603260045260246000fd5b634e487b7160e01b600052601160045260246000fd5b600060ff821660ff81036110465761104661101a565b60010192915050565b808201808211156103255761032561101a565b6000600182016110745761107461101a565b5060010190565b60008261109857634e487b7160e01b600052601260045260246000fd5b500690565b818103818111156103255761032561101a565b80820281158282048414176103255761032561101a56fea2646970667358221220f707c560c98cd66ed6ea84c50a8882be60468d8601f719e7a2614eec9e7deaf864736f6c63430008130033",
  "devdoc": {
    "kind": "dev",
    "methods": {},
    "version": 1
  },
  "userdoc": {
    "kind": "user",
    "methods": {},
    "version": 1
  },
  "storageLayout": {
    "storage": [],
    "types": null
  }
}