{
  "address": "0x5bA3278b9Da0248c38BE7783d4D561f6af10D46E",
  "abi": [
    {
      "inputs": [
        {
          "internalType": "address",
          "name": "_pgRouter",
          "type": "address"
        },
        {
          "internalType": "address",
          "name": "_instanceRegistry",
          "type": "address"
        }
      ],
      "stateMutability": "nonpayable",
      "type": "constructor"
    },
    {
      "anonymous": false,
      "inputs": [
        {
          "indexed": true,
          "internalType": "address",
          "name": "previousOwner",
          "type": "address"
        },
        {
          "indexed": true,
          "internalType": "address",
          "name": "newOwner",
          "type": "address"
        }
      ],
      "name": "OwnershipTransferred",
      "type": "event"
    },
    {
      "inputs": [],
      "name": "instanceRegistry",
      "outputs": [
        {
          "internalType": "contract InstanceRegistry",
          "name": "",
          "type": "address"
        }
      ],
      "stateMutability": "view",
      "type": "function"
    },
    {
      "inputs": [],
      "name": "owner",
      "outputs": [
        {
          "internalType": "address",
          "name": "",
          "type": "address"
        }
      ],
      "stateMutability": "view",
      "type": "function"
    },
    {
      "inputs": [],
      "name": "pgRouter",
      "outputs": [
        {
          "internalType": "contract PGRouter",
          "name": "",
          "type": "address"
        }
      ],
      "stateMutability": "view",
      "type": "function"
    },
    {
      "inputs": [],
      "name": "renounceOwnership",
      "outputs": [],
      "stateMutability": "nonpayable",
      "type": "function"
    },
    {
      "inputs": [
        {
          "internalType": "address",
          "name": "newOwner",
          "type": "address"
        }
      ],
      "name": "transferOwnership",
      "outputs": [],
      "stateMutability": "nonpayable",
      "type": "function"
    },
    {
      "inputs": [
        {
          "internalType": "address",
          "name": "_newinstanceRegistry",
          "type": "address"
        }
      ],
      "name": "updateInstanceRegistry",
      "outputs": [],
      "stateMutability": "nonpayable",
      "type": "function"
    },
    {
      "inputs": [
        {
          "internalType": "address",
          "name": "_newPgRouter",
          "type": "address"
        }
      ],
      "name": "updatePgRouter",
      "outputs": [],
      "stateMutability": "nonpayable",
      "type": "function"
    },
    {
      "inputs": [
        {
          "internalType": "contract ITornadoInstance",
          "name": "_tornado",
          "type": "address"
        },
        {
          "internalType": "bytes32",
          "name": "_commitment",
          "type": "bytes32"
        }
      ],
      "name": "zapIn",
      "outputs": [],
      "stateMutability": "nonpayable",
      "type": "function"
    },
    {
      "inputs": [
        {
          "internalType": "contract ITornadoInstance",
          "name": "_tornado",
          "type": "address"
        },
        {
          "internalType": "bytes32",
          "name": "_commitment",
          "type": "bytes32"
        }
      ],
      "name": "zapInEth",
      "outputs": [],
      "stateMutability": "payable",
      "type": "function"
    }
  ],
  "transactionHash": "0x1eb77e93b63b531049663ab0ba9e01f3d2dd4cf9e8e6e803133e50a81c542cdd",
  "args": [
    "0x4A16E57450597D541ae14F6Afc562394Efae031b",
    "0xBA86955f4Fd93CAd342325e4E4A4e6f43B537F16"
  ],
  "numDeployments": 2,
  "solcInputHash": "f0c8e66b1ada43cd43b78a5d8620dc61",
  "bytecode": "0x608060405234801561001057600080fd5b5060405161102f38038061102f83398101604081905261002f916100d5565b61003833610069565b600180546001600160a01b039384166001600160a01b03199182161790915560028054929093169116179055610108565b600080546001600160a01b038381166001600160a01b0319831681178455604051919092169283917f8be0079c531659141344cd1fd0a4f28419497f9722a3daafe3b4186f6b6457e09190a35050565b80516001600160a01b03811681146100d057600080fd5b919050565b600080604083850312156100e857600080fd5b6100f1836100b9565b91506100ff602084016100b9565b90509250929050565b610f18806101176000396000f3fe6080604052600436106100865760003560e01c8063715018a611610059578063715018a6146101295780638da5cb5b1461013e578063a310b4e41461015c578063c55eb50e1461017c578063f2fde38b1461018f57600080fd5b806323473de31461008b57806336a3874b146100c757806359de1805146100e75780636d0809d514610109575b600080fd5b34801561009757600080fd5b506001546100ab906001600160a01b031681565b6040516001600160a01b03909116815260200160405180910390f35b3480156100d357600080fd5b506002546100ab906001600160a01b031681565b3480156100f357600080fd5b50610107610102366004610cef565b6101af565b005b34801561011557600080fd5b50610107610124366004610d1b565b610635565b34801561013557600080fd5b5061010761065f565b34801561014a57600080fd5b506000546001600160a01b03166100ab565b34801561016857600080fd5b50610107610177366004610d1b565b610673565b61010761018a366004610cef565b61069d565b34801561019b57600080fd5b506101076101aa366004610d1b565b6108e8565b60025460405163032bb44360e01b81526001600160a01b038481166004830152600092169063032bb4439060240160c060405180830381865afa1580156101fa573d6000803e3d6000fd5b505050506040513d601f19601f8201168201806040525081019061021e9190610d54565b50505050915050600081905060008190506000816001600160a01b0316636f307dc36040518163ffffffff1660e01b8152600401602060405180830381865afa15801561026f573d6000803e3d6000fd5b505050506040513d601f19601f820116820180604052508101906102939190610de3565b905061030e3330886001600160a01b0316638bca6d166040518163ffffffff1660e01b8152600401602060405180830381865afa1580156102d8573d6000803e3d6000fd5b505050506040513d601f19601f820116820180604052508101906102fc9190610e00565b6001600160a01b038516929190610966565b806001600160a01b031663095ea7b384886001600160a01b0316638bca6d166040518163ffffffff1660e01b8152600401602060405180830381865afa15801561035c573d6000803e3d6000fd5b505050506040513d601f19601f820116820180604052508101906103809190610e00565b6040516001600160e01b031960e085901b1681526001600160a01b03909216600483015260248201526044016020604051808303816000875af11580156103cb573d6000803e3d6000fd5b505050506040513d601f19601f820116820180604052508101906103ef9190610e19565b50816001600160a01b0316632f4f21e230886001600160a01b0316638bca6d166040518163ffffffff1660e01b8152600401602060405180830381865afa15801561043e573d6000803e3d6000fd5b505050506040513d601f19601f820116820180604052508101906104629190610e00565b6040516001600160e01b031960e085901b1681526001600160a01b03909216600483015260248201526044016020604051808303816000875af11580156104ad573d6000803e3d6000fd5b505050506040513d601f19601f820116820180604052508101906104d19190610e19565b50816001600160a01b031663095ea7b3600160009054906101000a90046001600160a01b0316886001600160a01b0316638bca6d166040518163ffffffff1660e01b8152600401602060405180830381865afa158015610535573d6000803e3d6000fd5b505050506040513d601f19601f820116820180604052508101906105599190610e00565b6040516001600160e01b031960e085901b1681526001600160a01b03909216600483015260248201526044016020604051808303816000875af11580156105a4573d6000803e3d6000fd5b505050506040513d601f19601f820116820180604052508101906105c89190610e19565b506001546040516313d98d1360e01b81526001600160a01b03909116906313d98d13906105fb9089908990600401610e34565b600060405180830381600087803b15801561061557600080fd5b505af1158015610629573d6000803e3d6000fd5b50505050505050505050565b61063d6109c6565b600280546001600160a01b0319166001600160a01b0392909216919091179055565b6106676109c6565b6106716000610a20565b565b61067b6109c6565b600180546001600160a01b0319166001600160a01b0392909216919091179055565b60025460405163032bb44360e01b81526001600160a01b038481166004830152600092169063032bb4439060240160c060405180830381865afa1580156106e8573d6000803e3d6000fd5b505050506040513d601f19601f8201168201806040525081019061070c9190610d54565b5050505091505060008190506000819050806001600160a01b03166369ae202a346040518263ffffffff1660e01b81526004016000604051808303818588803b15801561075857600080fd5b505af115801561076c573d6000803e3d6000fd5b5050600154604051636eb1769f60e11b81523060048201526001600160a01b03918216602482015260009450908516925063dd62ed3e9150604401602060405180830381865afa1580156107c4573d6000803e3d6000fd5b505050506040513d601f19601f820116820180604052508101906107e89190610e00565b9050856001600160a01b0316638bca6d166040518163ffffffff1660e01b8152600401602060405180830381865afa158015610828573d6000803e3d6000fd5b505050506040513d601f19601f8201168201806040525081019061084c9190610e00565b8110156108b657816001600160a01b031663095ea7b3600160009054906101000a90046001600160a01b0316886001600160a01b0316638bca6d166040518163ffffffff1660e01b8152600401602060405180830381865afa158015610535573d6000803e3d6000fd5b6001546040516313d98d1360e01b81526001600160a01b03909116906313d98d13906105fb9089908990600401610e34565b6108f06109c6565b6001600160a01b03811661095a5760405162461bcd60e51b815260206004820152602660248201527f4f776e61626c653a206e6577206f776e657220697320746865207a65726f206160448201526564647265737360d01b60648201526084015b60405180910390fd5b61096381610a20565b50565b604080516001600160a01b0385811660248301528416604482015260648082018490528251808303909101815260849091019091526020810180516001600160e01b03166323b872dd60e01b1790526109c0908590610a70565b50505050565b6000546001600160a01b031633146106715760405162461bcd60e51b815260206004820181905260248201527f4f776e61626c653a2063616c6c6572206973206e6f7420746865206f776e65726044820152606401610951565b600080546001600160a01b038381166001600160a01b0319831681178455604051919092169283917f8be0079c531659141344cd1fd0a4f28419497f9722a3daafe3b4186f6b6457e09190a35050565b6000610ac5826040518060400160405280602081526020017f5361666545524332303a206c6f772d6c6576656c2063616c6c206661696c6564815250856001600160a01b0316610b4a9092919063ffffffff16565b9050805160001480610ae6575080806020019051810190610ae69190610e19565b610b455760405162461bcd60e51b815260206004820152602a60248201527f5361666545524332303a204552433230206f7065726174696f6e20646964206e6044820152691bdd081cdd58d8d9595960b21b6064820152608401610951565b505050565b6060610b598484600085610b61565b949350505050565b606082471015610bc25760405162461bcd60e51b815260206004820152602660248201527f416464726573733a20696e73756666696369656e742062616c616e636520666f6044820152651c8818d85b1b60d21b6064820152608401610951565b600080866001600160a01b03168587604051610bde9190610e93565b60006040518083038185875af1925050503d8060008114610c1b576040519150601f19603f3d011682016040523d82523d6000602084013e610c20565b606091505b5091509150610c3187838387610c3c565b979650505050505050565b60608315610cab578251600003610ca4576001600160a01b0385163b610ca45760405162461bcd60e51b815260206004820152601d60248201527f416464726573733a2063616c6c20746f206e6f6e2d636f6e74726163740000006044820152606401610951565b5081610b59565b610b598383815115610cc05781518083602001fd5b8060405162461bcd60e51b81526004016109519190610eaf565b6001600160a01b038116811461096357600080fd5b60008060408385031215610d0257600080fd5b8235610d0d81610cda565b946020939093013593505050565b600060208284031215610d2d57600080fd5b8135610d3881610cda565b9392505050565b80518015158114610d4f57600080fd5b919050565b60008060008060008060c08789031215610d6d57600080fd5b610d7687610d3f565b95506020870151610d8681610cda565b604088015190955060038110610d9b57600080fd5b606088015190945062ffffff81168114610db457600080fd5b608088015190935063ffffffff81168114610dce57600080fd5b8092505060a087015190509295509295509295565b600060208284031215610df557600080fd5b8151610d3881610cda565b600060208284031215610e1257600080fd5b5051919050565b600060208284031215610e2b57600080fd5b610d3882610d3f565b6001600160a01b03929092168252602082015260606040820181905260029082015261060f60f31b608082015260a00190565b60005b83811015610e82578181015183820152602001610e6a565b838111156109c05750506000910152565b60008251610ea5818460208701610e67565b9190910192915050565b6020815260008251806020840152610ece816040850160208701610e67565b601f01601f1916919091016040019291505056fea26469706673582212204fdc53c7ac5d46cf61c04a0d92d59cdaf5623f40ad6884665b22a32429c001e664736f6c634300080e0033",
  "devdoc": {
    "kind": "dev",
    "methods": {
      "owner()": {
        "details": "Returns the address of the current owner."
      },
      "renounceOwnership()": {
        "details": "Leaves the contract without owner. It will not be possible to call `onlyOwner` functions. Can only be called by the current owner. NOTE: Renouncing ownership will leave the contract without an owner, thereby disabling any functionality that is only available to the owner."
      },
      "transferOwnership(address)": {
        "details": "Transfers ownership of the contract to a new account (`newOwner`). Can only be called by the current owner."
      },
      "zapIn(address,bytes32)": {
        "params": {
          "_commitment": "the note commitment, which is PedersenHash(nullifier + secret)",
          "_tornado": "TC pool instance address"
        }
      },
      "zapInEth(address,bytes32)": {
        "params": {
          "_commitment": "the note commitment, which is PedersenHash(nullifier + secret)",
          "_tornado": "TC pool instance address"
        }
      }
    },
    "version": 1
  },
  "userdoc": {
    "kind": "user",
    "methods": {
      "zapIn(address,bytes32)": {
        "notice": "Once click zap in function to convert erc20 tokens to kycErc20 tokens and deposit into relevant tc pool. The pool denomination will be the convert and deposit amount by default."
      },
      "zapInEth(address,bytes32)": {
        "notice": "Once click zap in function to convert eth to kycEth tokens and deposit into relevant tc pool. The pool denomination will be the convert and deposit amount by default."
      }
    },
    "version": 1
  },
  "storageLayout": {
    "storage": [
      {
        "astId": 895,
        "contract": "contracts/portalgate/Zapper.sol:Zapper",
        "label": "_owner",
        "offset": 0,
        "slot": "0",
        "type": "t_address"
      },
      {
        "astId": 21593,
        "contract": "contracts/portalgate/Zapper.sol:Zapper",
        "label": "pgRouter",
        "offset": 0,
        "slot": "1",
        "type": "t_contract(PGRouter)21492"
      },
      {
        "astId": 21596,
        "contract": "contracts/portalgate/Zapper.sol:Zapper",
        "label": "instanceRegistry",
        "offset": 0,
        "slot": "2",
        "type": "t_contract(InstanceRegistry)20459"
      }
    ],
    "types": {
      "t_address": {
        "encoding": "inplace",
        "label": "address",
        "numberOfBytes": "20"
      },
      "t_contract(InstanceRegistry)20459": {
        "encoding": "inplace",
        "label": "contract InstanceRegistry",
        "numberOfBytes": "20"
      },
      "t_contract(PGRouter)21492": {
        "encoding": "inplace",
        "label": "contract PGRouter",
        "numberOfBytes": "20"
      }
    }
  }
}